:100000000C9463000C948B000C948B000C948B006C
:100010000C948B000C948B000C948B000C948B0034
:100020000C948B000C948B000C948B000C948B0024
:100030000C948B000C948B000C948B000C948B0014
:100040000C9413070C948B000C94E1060C94BB06E3
:100050000C948B000C948B000C948B000C948B00F4
:100060000C945D070C948B006364696E6F707375FC
:1000700078585B0000000000240027002A000000E0
:100080000000250028002B000404040404040404D8
:100090000202020202020303030303030102040833
:1000A00010204080010204081020010204081020E2
:1000B0000000000800020100000304070000000027
:1000C000000000007C0811241FBECFEFD8E0DEBF87
:1000D000CDBF11E0A0E0B1E0E2E7F4E202C005909C
:1000E0000D92AA34B107D9F722E0AAE4B1E001C029
:1000F0001D92AB3AB207E1F710E0C3E6D0E004C0CE
:100100002197FE010E942E0DC236D107C9F70E9429
:10011000B5080C9437120C9400000895CF93DF9328
:10012000AC01E091F401F091F5013097F1F090917C
:10013000F3018091F2019817C0F090E0292F30E090
:100140002617370754F4D901AD5ABE4F240F351F77
:10015000E90128812C939F5FF1CF1092F301609306
:10016000F201CB01DF91CF910994DF91CF910895F6
:10017000AF92BF92CF92DF92EF92FF920F931F93B5
:10018000CF93DF936C017B018B01040F151FEB01F3
:100190005E01AE18BF08C017D10759F06991D601AA
:1001A000ED91FC910190F081E02DC6010995892B1C
:1001B00079F7C501DF91CF911F910F91FF90EF90DB
:1001C000DF90CF90BF90AF900895FC01538D448D88
:1001D000252F30E0842F90E0821B930B541710F0F2
:1001E000CF96089501970895FC01918D828D9817FF
:1001F00061F0A28DAE0FBF2FB11D5D968C91928DD7
:100200009F5F9F73928F90E008958FEF9FEF089507
:10021000FC01918D828D981731F0828DE80FF11DD0
:10022000858D90E008958FEF9FEF0895FC01918DEB
:10023000228D892F90E0805C9F4F821B91098F73E4
:10024000992708958EEF91E00E94160121E0892BF5
:1002500009F420E0822F0895FC01A48DA80FB92F86
:10026000B11DA35ABF4F2C91848D90E001968F73DE
:100270009927848FA689B7892C93A089B1898C91FD
:10028000837080648C93938D848D981306C002884C
:10029000F389E02D80818F7D80830895EF92FF9216
:1002A0000F931F93CF93DF93EC0181E0888F9B8D99
:1002B0008C8D98131AC0E889F989808185FF15C053
:1002C0009FB7F894EE89FF896083E889F989808176
:1002D0008370806480839FBF81E090E0DF91CF9145
:1002E0001F910F91FF90EF900895F62E0B8D10E067
:1002F0000F5F1F4F0F731127E02E8C8D8E110CC0D6
:100300000FB607FCFACFE889F989808185FFF5CF20
:10031000CE010E942C01F1CFEB8DEC0FFD2FF11DD2
:10032000E35AFF4FF0829FB7F8940B8FEA89FB895D
:1003300080818062CFCFCF93DF93EC01888D8823BB
:10034000B9F0AA89BB89E889F9898C9185FD03C038
:10035000808186FD0DC00FB607FCF7CF8C9185FF1D
:10036000F2CF808185FFEDCFCE010E942C01E9CF35
:10037000DF91CF91089590E0FC01E055FF4F24916B
:10038000FC01E456FF4F3491FC01E857FF4FE49124
:10039000EE23C9F0222339F0233001F1A8F42130F3
:1003A00019F1223029F1F0E0EE0FFF1FE258FF4F64
:1003B000A591B4918FB7F894EC91611126C0309556
:1003C0003E233C938FBF08952730A9F02830C9F011
:1003D000243049F7809180008F7D03C08091800098
:1003E0008F7780938000DFCF84B58F7784BDDBCF9C
:1003F00084B58F7DFBCF8091B0008F778093B00064
:10040000D2CF8091B0008F7DF9CF3E2BDACFCF9342
:10041000DF9390E0FC01E456FF4F249188579F4FF3
:10042000FC0184918823D1F090E0880F991FFC0192
:10043000EC58FF4FA591B491FC01E258FF4FC591D4
:10044000D49161110EC09FB7F8948C91E22FE09582
:100450008E238C932881E223E8839FBFDF91CF9185
:1004600008958FB7F894EC91E22BEC938FBFF6CF01
:100470008E3008F08E50806480937C0080917A00EA
:10048000806480937A0080917A0086FDFCCF809111
:1004900078009091790008953FB7F8948091E40135
:1004A0009091E501A091E601B091E70126B5A89BE6
:1004B00005C02F3F19F00196A11DB11D3FBFBA2FF6
:1004C000A92F982F8827BC01CD01620F711D811DB6
:1004D000911D42E0660F771F881F991F4A95D1F73B
:1004E00008958F929F92AF92BF92CF92DF92EF9238
:1004F000FF920E944C024B015C0184EFC82EDD2468
:10050000D394E12CF12C0E944C02681979098A09D4
:100510009B09683E734081059105A8F321E0C21A4A
:10052000D108E108F10888EE880E83E0981EA11C2E
:10053000B11CC114D104E104F10429F7FF90EF903C
:10054000DF90CF90BF90AF909F908F9008952091B3
:100550009901260F3327331F21323105ECF4209106
:10056000BD01FC0190E080E0243069F082E0089554
:10057000A09199012191AC0147585E4FA40FB52F6E
:10058000B11D2C930196861798F380919901680FFD
:100590006093990180E0089581E008951092BD0173
:1005A00081E08093BF011092BE0161E082E10E9470
:1005B000BB0161E083E10E94BB01E9EBF0E08081D7
:1005C0008E7F808380818D7F808388E48093B800D4
:1005D00085E48093BC0008950895E091F301809133
:1005E000F201E81730F4F0E0ED5AFE4F808190E020
:1005F00008958FEF9FEF08959091F3018091F2019C
:100600002FEF3FEF981748F4E92FF0E0ED5AFE4F37
:10061000208130E09F5F9093F301C901089580919C
:10062000F2019091F301891B990B0895CF93DF9309
:10063000CB01EA01642F0E94A702CE01DF91CF9186
:100640000895CF93DF931F92CDB7DEB7698361E042
:10065000CE0101960E94A70281E090E00F90DF9109
:10066000CF91089590E080E008958F929F92AF928D
:10067000BF920F931F93CF93DF93CDB7DEB7A197B0
:100680000FB6F894DEBF0FBECDBF19A2423008F4FA
:100690004AE08E010F5D1F4F842E912CB12CA12CAE
:1006A000A50194010E94610CE62FB901CA01EA304C
:1006B00044F5E05DD801EE938D01232B242B252BEF
:1006C00079F790E080E0109769F0FD01019000203B
:1006D000E9F73197AF014A1B5B0BBD018EEF91E04B
:1006E0000E94B800A1960FB6F894DEBF0FBECDBF32
:1006F000DF91CF911F910F91BF90AF909F908F90FE
:100700000895E95CD7CF42E050E061E471E08EEFFC
:1007100091E00C94B800CF93DF93FC0144815581A4
:10072000608171818EEF91E00E94B800EC010E941F
:1007300083038C0F9D1FDF91CF910895EF92FF925D
:100740000F931F93CF93DF93CDB7DEB72A970FB6E2
:10075000F894DEBF0FBECDBF8E010F5F1F4F780133
:100760009091F2018091F301981749F08BE992E0A2
:100770000E94FC02F80181938F011082F1CFC70122
:100780000E94960A90935201809351012FB7F894DA
:100790008091E8019091E901A091EA01B091EB010B
:1007A0002FBF2091F6013091F701821B930B90939C
:1007B000500180934F012FB7F8948091E8019091F8
:1007C000E901A091EA01B091EB012FBF9093F701ED
:1007D0008093F60181E080934E012A960FB6F8943B
:1007E000DEBF0FBECDBFDF91CF911F910F91FF9064
:1007F000EF9008950F931F93CF93DF93EC018881BF
:100800009981009759F02A813B812617370730F0EC
:1008100081E0DF91CF911F910F9108958B016F5F60
:100820007F4F0E94590E009759F0998388831B834C
:100830000A832C813D81232B59F7FC011082E8CFDC
:1008400080E0E7CFCF93DF93EC0188819981009717
:1008500011F00E94D00D198218821D821C821B8209
:100860001A82DF91CF9108950F931F93CF93DF9357
:10087000EC010C811D810F5F1F4FB8010E94FA032C
:10088000882391F0288139818C819D816CE371E00E
:10089000820F931F0E94280F1D830C83CE01DF91CE
:1008A000CF911F910F910895CE010E942204F6CF9F
:1008B000EF92FF920F931F93CF93DF93EC01FB0115
:1008C000E080F180E114F10411F10481158101153A
:1008D0001105A9F08C819D81080F191FB801CE0167
:1008E0000E94FA03882399F0288139818C819D81A7
:1008F000B701820F931F0E94280F1D830C83CE0126
:10090000DF91CF911F910F91FF90EF900895CE014D
:100910000E942204F4CFEF92FF920F931F93CF9384
:10092000DF93EC017B018A01BA010E94FA03811175
:100930000BC0CE010E942204CE01DF91CF911F9106
:100940000F91FF90EF9008951D830C83B70188816C
:1009500099810E94280FF0CFEF92FF920F931F937F
:10096000CF93DF93CDB7DEB762970FB6F894DEBFB3
:100970000FBECDBF8C01CB01F80111821082138212
:100980001282158214824AE09E012F5F3F4F790147
:10099000B9010E94B40AF70101900020E9F73197EC
:1009A000AF014E195F09B701C8010E948B0462961E
:1009B0000FB6F894DEBF0FBECDBFDF91CF911F9170
:1009C0000F91FF90EF900895EF92FF920F931F9376
:1009D000CF93DF93CDB7DEB761970FB6F894DEBF44
:1009E0000FBECDBF8C01CB01F801118210821382A2
:1009F0001282158214824AE09E012F5F3F4F7901D7
:100A0000B9010E94C70AF70101900020E9F7319768
:100A1000AF014E195F09B701C8010E948B046196AE
:100A20000FB6F894DEBF0FBECDBFDF91CF911F91FF
:100A30000F91FF90EF900895FC01808191810097C4
:100A400011F00C94D00D08958F929F92AF92BF92A7
:100A5000CF92DF92EF92FF920F931F93CF93DF938A
:100A6000CDB7DEB7EE970FB6F894DEBF0FBECDBFA1
:100A70008E010F5F1F4F78018EEF91E00E941601EB
:100A8000892B49F08EEF91E00E94F400F8018193E8
:100A90008F011082F1CF6EE371E0C7010E941F0F3A
:100AA000892B09F04BC06091F8017091F901CE01DA
:100AB000C5960E94E4046091FA017091FB01CE0199
:100AC00089960E94E40418AA1FA61AAA19AA1CAAA9
:100AD0001BAA69A57AA56115710531F04DA55EA522
:100AE000CE018F960E948B04CE018F960E94340413
:100AF000BE016B5C7F4F0E9458040E948B03CE01A5
:100B00008F960E941C05CE0189960E941C05CE017D
:100B1000C5960E941C05EE960FB6F894DEBF0FBE78
:100B2000CDBFDF91CF911F910F91FF90EF90DF909C
:100B3000CF90BF90AF909F908F900895CE01CD96AB
:100B40009F938F9302979F938F9384E491E09F9359
:100B50008F93FF92EF920E942F0F8DAD9EAD0FB637
:100B6000F894DEBF0FBECDBF8B309105F1F02BADF9
:100B70003CAD2B303105C9F03093FD012093FC01D1
:100B800090930D0180930C0160910C0170910D0107
:100B9000CE01C5960E94AC046091FC017091FD01EC
:100BA000CE0189960E94AC048ECF86ECC82E85E0DB
:100BB000D82ED0928900C092880093ECE92E95E05F
:100BC000F92EF0928B00E0928A000E9471020AE0F6
:100BD00016E01093890000938800F0928B00E09259
:100BE0008A000E947102109389000093880029E610
:100BF000A22E27E0B22EB0928B00A0928A000E9413
:100C000071021093890000938800F0928B00E092AB
:100C10008A000E947102109389000093880034E2D8
:100C2000832E34E0932E90928B0080928A000E9453
:100C300071021093890000938800F0928B00E0927B
:100C40008A000E9471021093890000938800B0927C
:100C50008B00A0928A000E94710210938900009379
:100C6000880090928B0080928A000E9471021093FB
:100C7000890000938800B0928B00A0928A000E94A5
:100C800071021093890000938800F0928B00E0922B
:100C90008A000E947102D092FB01C092FA01D092A8
:100CA0008900C0928800F092F901E092F801F09278
:100CB0008B00E0928A000E94710266CF0E9422019E
:100CC00081110C9424050895CF93DF9385ED8093D3
:100CD000BC008091750190917601A0917701B0914F
:100CE00078010796A11DB11D23E0B695A7959795AC
:100CF00087952A95D1F72091BC0024FD03C010925E
:100D0000BD0136C040917501509176016091770127
:100D100070917801452B462B472B69F30097A1056D
:100D2000B10541F025E32A95F1F700000197A109EB
:100D3000B109E1CF8091740191E090937301882310
:100D4000B9F0C091B800D091BA008091BC008A7B04
:100D50008093BC0060E082E10E94BB0160E083E11F
:100D60000E94BB010E94CE02D093BA00C093B8008B
:100D7000DF91CF9108951F920F920FB60F92112419
:100D80002F933F934F935F936F937F938F939F9393
:100D9000AF93BF93EF93FF938EEF91E00E942C01EE
:100DA000FF91EF91BF91AF919F918F917F916F9143
:100DB0005F914F913F912F910F900FBE0F901F9019
:100DC00018951F920F920FB60F9211242F938F93A5
:100DD0009F93EF93FF93E0910E02F0910F028081B9
:100DE000E0911402F091150282FD1BC09081809168
:100DF00017028F5F8F7320911802821741F0E091E4
:100E00001702F0E0E250FE4F958F80931702FF919A
:100E1000EF919F918F912F910F900FBE0F901F9088
:100E200018958081F4CF1F920F920FB60F92112464
:100E30002F933F938F939F93AF93BF938091E8013C
:100E40009091E901A091EA01B091EB013091E301A9
:100E500023E0230F2D3758F50196A11DB11D2093D6
:100E6000E3018093E8019093E901A093EA01B09334
:100E7000EB018091E4019091E501A091E601B09130
:100E8000E7010196A11DB11D8093E4019093E50156
:100E9000A093E601B093E701BF91AF919F918F912D
:100EA0003F912F910F900FBE0F901F90189526E83D
:100EB000230F0296A11DB11DD2CF1F920F920FB624
:100EC0000F9211242F933F934F935F936F937F93D0
:100ED0008F939F93AF93BF93EF93FF938091B9004C
:100EE000887F803609F44AC0F0F5883209F4A7C03B
:100EF00018F5803109F49BC0B8F4882309F4F9C0CF
:100F0000883009F494C0FF91EF91BF91AF919F9108
:100F10008F917F916F915F914F913F912F910F90A2
:100F20000FBE0F901F901895883109F488C0803249
:100F300051F78093BC0114C0803409F49DC040F483
:100F40008033B9F38833F9F68093BC0185ECB0C0E7
:100F5000803509F485C0883509F496C0883499F63F
:100F60000E946406D0CF883909F48CC038F58837E0
:100F700029F050F4883611F0803729F683E0809309
:100F8000BD011092BB0157C0883809F47BC080397D
:100F900019F0803809F0B7CF8091BB01803208F09A
:100FA00071C0E091BB0181E08E0F8093BB01809105
:100FB000BB00F0E0E556FE4F80833DC0803B39F03A
:100FC000E0F4803A09F479C0883A09F09CCF84E0D3
:100FD0008093BD0110929A0110929901E091EE0167
:100FE000F091EF0109958091990181110FC081E085
:100FF000809399011092790109C0803C09F4A6CF31
:10100000883C09F4A3CF883B09F07DCFE0919A0199
:1010100081E08E0F80939A01F0E0E758FE4F8081C7
:101020008093BB0090919A018091990129C0809191
:10103000E2018093BB0085EC8093BC0064CF90916B
:10104000E1018091E001981758F5E091E10181E01C
:101050008E0F8093E101F0E0E054FE4F8081E9CFF4
:10106000E091E10181E08E0F8093E1018091BB006E
:10107000F0E0E054FE4F80839091E1018091E00127
:101080009817C8F285E8D8CFE091E10181E08E0F92
:101090008093E1018091BB00F0E0E054FE4F80833B
:1010A0008091BF0181115CCF81E08093BE0184EA11
:1010B0008093BC001092BD0126CF85EC8093BC00CC
:1010C0001092BD018091BB01803230F4E091BB01F0
:1010D000F0E0E556FE4F10826091BB0170E0E091B8
:1010E000EC01F091ED018BE991E009951092BB01C3
:1010F0000ACF1092BC0134CFEEEFF1E013821282DE
:1011000088EE93E0A0E0B0E084839583A683B78364
:101110002CE131E03183208325EC30E035872487D2
:1011200024EC30E03787268720EC30E0318B208BB1
:1011300021EC30E0338B228B22EC30E0358B248B9A
:1011400026EC30E0378B268B118E128E138E148E88
:10115000EBE9F2E01382128284839583A683B7833E
:101160008EE291E0918380830895789484B58260C3
:1011700084BD84B5816084BD85B5826085BD85B53B
:10118000816085BD80916E00816080936E001092B9
:101190008100809181008260809381008091810034
:1011A00081608093810080918000816080938000C5
:1011B0008091B10084608093B1008091B000816023
:1011C0008093B00080917A00846080937A0080914F
:1011D0007A00826080937A0080917A0081608093A7
:1011E0007A0080917A00806880937A001092C10022
:1011F00060E084E10E94070260E088E00E9407024C
:1012000061E089E00E94070261E08AE00E94070233
:10121000E0910E02F0910F0282E08083E0910A02D9
:10122000F0910B021082E0910C02F0910D021082FD
:1012300010921602E0911202F091130286E0808370
:10124000E0911002F0911102808180618083E09131
:101250001002F0911102808188608083E091100279
:10126000F0911102808180688083E0911002F091FA
:10127000110280818F7D808384E10E94380201E029
:1012800010E020E030E0853691051CF400E010E02D
:1012900098014AE0C901B8010E9435030E94830306
:1012A0002FB7F8948091E8019091E901A091EA01AB
:1012B000B091EB012FBF9093F7018093F60110924C
:1012C000F3011092F2011092F1011092F0010E94CC
:1012D000CE028DE890E09093EF018093EE018EE8CE
:1012E00090E09093ED018093EC0182E08093BA004E
:1012F0008EE993E09093F5018093F40182EA809364
:10130000800082E18093810080E29EE490938700D8
:1013100080938600189B09C01092FB011092FA017D
:101320001092890010928800F5CF80E00E94380268
:10133000BC01990F880B990B611571058105910509
:1013400011F00E948D0A63B161708DE00E94BB01B3
:1013500060910C0170910D01072E000C880B990B08
:101360000E94FC0A23E333E34FE551EC0E94370B64
:1013700020E030ED48EB54E40E94930C0E94FF0CF7
:101380008091FC019091FD011816190614F186EC6C
:1013900095E0653224E07207F8F0693627E07207BD
:1013A000F0F49093FB018093FA019093890080936D
:1013B00088007093F9016093F80170938B0060933B
:1013C0008A000E942201882309F4BDCF0E942405CF
:1013D000BACF8AE096E0DDCF64E274E0E2CF69E65E
:1013E00077E0DFCF8F929F92AF92BF92CF92DF9242
:1013F000EF92FF92CF93DF93EC01688179818A812C
:101400009B81611571058105910521F464E279EDF7
:101410008BE597E02DE133EF41E050E00E94F80BBF
:1014200049015A019B01AC01A7EAB1E40E94170CE3
:101430006B017C01ACEEB4EFA50194010E94250C78
:10144000C60ED71EE81EF91EF7FE06C081E0C81AB8
:10145000D108E10880E8F80AC882D982EA82FB82D2
:10146000C701B6019F77DF91CF91FF90EF90DF909A
:10147000CF90BF90AF909F908F9008958F929F9242
:10148000AF92BF92CF92DF92EF92FF9260910E01E6
:1014900070910F01809110019091110161157105FA
:1014A0008105910521F464E279ED8BE597E02DE16A
:1014B00033EF41E050E00E94F80B49015A019B01D3
:1014C000AC01A7EAB1E40E94170C6B017C01ACEE01
:1014D000B4EFA50194010E94250CC60ED71EE81E8C
:1014E000F91EF7FE06C081E0C81AD108E10880E8BD
:1014F000F80AC0920E01D0920F01E0921001F09212
:101500001101C701B6019F77FF90EF90DF90CF9058
:10151000BF90AF909F908F90089560930E0170934D
:101520000F0180931001909311010895FC01882709
:101530009927E89421912032E9F3293010F02E30D8
:10154000C8F32B3241F02D3239F4689404C00E9464
:10155000BF0A820F911D219120532A30C0F31EF43F
:10156000909581959F4F0895BB274A3031F4992378
:1015700022F4BDE2909581959F4F0C94C80A7AE0C1
:10158000979F902D879F802D910D11240895BB2743
:10159000FB015527AA27880F991FAA1FA41710F02F
:1015A000A41B83955051B9F7A05DAA3308F0A95D3B
:1015B000A193009779F7B111B1931192CB010C94DB
:1015C000EA0A91110C94A40B803219F089508550CD
:1015D000C8F70895DC01FC01672F71917723E1F7CB
:1015E000329704C07C916D9370836291AE17BF07F0
:1015F000C8F30895E89409C097FB3EF49095809550
:10160000709561957F4F8F4F9F4F9923A9F0F92FC8
:1016100096E9BB279395F695879577956795B79546
:10162000F111F8CFFAF4BB0F11F460FF1BC06F5F2C
:101630007F4F8F4F9F4F16C0882311F096E911C03E
:10164000772321F09EE8872F762F05C0662371F05F
:1016500096E8862F70E060E02AF09A95660F771F73
:10166000881FDAF7880F9695879597F908950E9455
:101670004A0B0C94BE0B0E94B00B38F00E94B70BC3
:1016800020F0952311F00C94A70B0C94AD0B1124B2
:101690000C94F20B0E94CF0B70F3959FC1F3950F42
:1016A00050E0551F629FF001729FBB27F00DB11DE6
:1016B000639FAA27F00DB11DAA1F649F6627B00D76
:1016C000A11D661F829F2227B00DA11D621F739F5F
:1016D000B00DA11D621F839FA00D611D221F749F6D
:1016E0003327A00D611D231F849F600D211D822FB4
:1016F000762F6A2F11249F5750409AF0F1F08823DB
:101700004AF0EE0FFF1FBB1F661F771F881F915007
:101710005040A9F79E3F510580F00C94A70B0C9404
:10172000F20B5F3FE4F3983ED4F386957795679587
:10173000B795F795E7959F5FC1F7FE2B880F911D31
:101740009695879597F9089599278827089597F989
:101750009F6780E870E060E008959FEF80EC089557
:1017600000240A9416161706180609060895002480
:101770000A9412161306140605060895092E0394FA
:10178000000C11F4882352F0BB0F40F4BF2B11F46E
:1017900060FF04C06F5F7F4F8F4F9F4F089557FDCD
:1017A0009058440F551F59F05F3F71F04795880FCF
:1017B00097FB991F61F09F3F79F087950895121666
:1017C00013061406551FF2CF4695F1DF08C0161612
:1017D00017061806991FF1CF8695710561050894C3
:1017E0000895E894BB2766277727CB0197F90895DA
:1017F000052E97FB1EF400940E940F0C57FD07D096
:101800000E94610C07FC03D04EF40C940F0C509511
:101810004095309521953F4F4F4F5F4F08959095DC
:101820008095709561957F4F8F4F9F4F08950E94CF
:10183000830CA59F900DB49F900DA49F800D911DCA
:1018400011240895B7FF0C94170C0E94170C821BEB
:10185000930B08952F923F924F925F926F927F92D7
:101860008F929F92AF92BF92CF92DF92EF92FF92B0
:101870000F931F93CF93DF93CDB7DEB7CA1BDB0B5C
:101880000FB6F894DEBF0FBECDBF09942A88398801
:1018900048885F846E847D848C849B84AA84B98408
:1018A000C884DF80EE80FD800C811B81AA81B98114
:1018B000CE0FD11D0FB6F894DEBF0FBECDBFED0128
:1018C0000895A1E21A2EAA1BBB1BFD010DC0AA1F81
:1018D000BB1FEE1FFF1FA217B307E407F50720F099
:1018E000A21BB30BE40BF50B661F771F881F991F14
:1018F0001A9469F760957095809590959B01AC015D
:10190000BD01CF010895A29FB001B39FC001A39F65
:10191000700D811D1124911DB29F700D811D112428
:10192000911D08955058BB27AA270E94AA0C0C9419
:10193000BE0B0E94B00B38F00E94B70B20F039F4B8
:101940009F3F19F426F40C94AD0B0EF4E095E7FBE1
:101950000C94A70BE92F0E94CF0B58F3BA1762071C
:1019600073078407950720F079F4A6F50C94F10B22
:101970000EF4E0950B2EBA2FA02D0B01B9019001AA
:101980000C01CA01A0011124FF27591B99F0593FEE
:1019900050F4503E68F11A16F040A22F232F342F36
:1019A0004427585FF3CF469537952795A795F04084
:1019B0005395C9F77EF41F16BA0B620B730B840B99
:1019C000BAF09150A1F0FF0FBB1F661F771F881F51
:1019D000C2F70EC0BA0F621F731F841F48F48795A9
:1019E00077956795B795F7959E3F08F0B0CF93959B
:1019F000880F08F09927EE0F9795879508950E9414
:101A0000D70B88F09F5798F0B92F9927B751B0F0AE
:101A1000E1F0660F771F881F991F1AF0BA95C9F772
:101A200014C0B13091F00E94F10BB1E008950C9414
:101A3000F10B672F782F8827B85F39F0B93FCCF3C7
:101A4000869577956795B395D9F73EF490958095EF
:101A5000709561957F4F8F4F9F4F0895EE0FFF1F39
:101A60000590F491E02D09940F931F93CF93DF938A
:101A70008230910510F482E090E0E091A902F091AB
:101A8000AA0230E020E0B0E0A0E0309799F4211500
:101A9000310509F44AC0281B390B24303105D8F52B
:101AA0008A819B816115710589F1FB019383828392
:101AB000FE0111C0408151810281138148175907ED
:101AC000E0F04817590799F4109761F012960C93BB
:101AD000129713961C933296CF01DF91CF911F91ED
:101AE0000F9108950093A9021093AA02F4CF211533
:101AF000310551F04217530738F0A901DB019A0173
:101B0000BD01DF01F801C1CFEF01F9CF9093AA0227
:101B10008093A902CDCFFE01E20FF31F8193919331
:101B20002250310939832883D7CF2091A7023091E1
:101B3000A802232B41F42091140130911501309318
:101B4000A8022093A70220911201309113012115C0
:101B5000310541F42DB73EB7409116015091170160
:101B6000241B350BE091A702F091A802E217F307BE
:101B7000A0F42E1B3F0B2817390778F0AC014E5FFD
:101B80005F4F2417350748F04E0F5F1F5093A80290
:101B90004093A702819391939FCFF0E0E0E09CCF28
:101BA000CF93DF930097E9F0FC0132971382128202
:101BB000A091A902B091AA02ED0130E020E01097B7
:101BC000A1F420813181820F931F2091A7023091CF
:101BD000A8022817390709F061C0F093A802E09322
:101BE000A702DF91CF910895EA01CE17DF07E8F54C
:101BF0004A815B819E0141155105B1F7E901FB83E3
:101C0000EA8349915991C40FD51FEC17FD0761F480
:101C1000808191810296840F951FE90199838883C1
:101C2000828193819B838A83F0E0E0E012968D911C
:101C30009C9113970097B9F52D913C911197CD0187
:101C40000296820F931F2091A7023091A8022817B5
:101C5000390739F6309751F51092AA021092A9026D
:101C6000B093A802A093A702BCCFD383C2834081C4
:101C70005181840F951FC817D90761F44E5F5F4FDC
:101C800088819981480F591F518340838A819B81A4
:101C9000938382832115310509F0B0CFF093AA0216
:101CA000E093A9029ECFFD01DC01C0CF1382128216
:101CB000D7CFB0E0A0E0EFE5FEE00C942C0C8C0157
:101CC000009751F4CB010E94340D8C01C801CDB7AF
:101CD000DEB7E0E10C94480CFC01E60FF71F9C0115
:101CE00022503109E217F30708F49DC0D901CD91C4
:101CF000DC911197C617D70798F0C530D10530F39E
:101D0000CE0104978617970708F3C61BD70B2297B7
:101D1000C193D1936D937C93CF010E94D00DD6CF08
:101D20005B01AC1ABD0A4C018C0E9D1EA091A9024C
:101D3000B091AA02512C412CF12CE12C109731F5D5
:101D40008091A7029091A8028815990509F05CC0BE
:101D50004616570608F058C0809112019091130161
:101D6000009741F48DB79EB740911601509117012D
:101D7000841B950BE817F90708F055C0F093A802EB
:101D8000E093A702F90171836083A0CF8D919C91AC
:101D9000119712966C90129713967C901397A81532
:101DA000B90559F56C0142E0C40ED11CCA14DB041C
:101DB00020F1AC014A195B09DA011296159780F0FF
:101DC0006282738251834083D9016D937C93E114C5
:101DD000F10471F0D7011396FC93EE93129776CF2E
:101DE00022968C0F9D1FF90191838083F301EFCF21
:101DF000F093AA02E093A90269CF4816590608F4A5
:101E00002C017D01D3019ACFCB010E94340D7C01BE
:101E1000009749F0AE01B8010E94160FC8010E9458
:101E2000D00D870153CF10E000E050CFFB01DC0163
:101E300002C001900D9241505040D8F70895FB0127
:101E4000DC018D91019080190110D9F3990B08954F
:101E5000FB01DC0101900D920020E1F70895AEE056
:101E6000B0E0E5E3FFE00C943A0C85E08C838B89CD
:101E70009C899A838983AE01495E5F4F6D897E8913
:101E8000CE0101960E94D3102E96E2E00C94560CDF
:101E900020FD09C0FC0123FD05C022FF02C07383A1
:101EA000628351834083089544FD17C046FD1DC0E1
:101EB000DB01FC01AA0FBB1FEE1FFF1F1094D1F71F
:101EC0006A0F7B1F8E1F9F1F660F771F881F991F2A
:101ED000620F711D811D911D089533E0660F771FFC
:101EE000881F991F3150D1F7F3CF34E0F7CF0F930C
:101EF0001F93CF93DF938C01C8010E94E311EC0183
:101F000097FD08C00E94E10A892BB1F7B801CE0104
:101F10000E941F12CE01DF91CF911F910F91089562
:101F20008F929F92AF92BF92EF92FF920F931F9367
:101F3000CF93DF938C01D62F7A01B22E0E94E3114A
:101F40009C0133272B32310529F02D323105A9F4BC
:101F50006894B7F8D15061F480E0DF91CF911F9180
:101F60000F91FF90EF90BF90AF909F908F9008954A
:101F7000C8010E94E31197FDEFCFCB2DCD7F2B2D14
:101F80002073F9F48033E9F4AA24AA94AD0E89F001
:101F9000C8010E94E31197FD0CC0282F2F7D283522
:101FA00061F4C264D25029F0C8010E94E31197FF86
:101FB00008C0812C912C54011BC0B6FE2BC0C260FE
:101FC000DA2D812C912C540120ED280F283028F196
:101FD000C4FD09C02A3008F1C6FF05C02F7D3FEEC1
:101FE000320F3630C8F0B8010E941F12C1FFB4CFC3
:101FF000C7FF08C0B094A09490948094811C911C59
:10200000A11CB11C2C2FB501A401C7010E94480FCF
:1020100081E0A3CFC261D4CF27504C2FC501B401BA
:102020000E94540F4B015C01C260D15009F3C801FA
:102030000E94E31197FFC8CFD9CFA0E2B0E0E3E25E
:10204000F0E10C942F0C5C01962E7A01CE010196E2
:102050006C0180E2F60111928A95E9F7F501B381EE
:10206000890130E020E0712C812CA0E041E050E0BB
:10207000F801B3FD8591B3FF8191982F8F018111F4
:1020800007C010E000E0C801A096EDE00C944B0CF6
:102090008E3519F42115310541F1A21713064CF4C0
:1020A0008D3549F18D3229F4811006C0882483943E
:1020B0001DC0882009F464C0E92FE695E695E695F1
:1020C000EC0DFD2DF11D892F8770BA0101C0660F3F
:1020D0008A95EAF78081682B6083791651F097150D
:1020E00010F49F5FE9CF9150E7CFA1E02F5F3F4F02
:1020F000BFCF812CFBCF882019F08E8180628E8328
:10210000AA2359F0F6019E012F5D3F4F80818095F3
:1021100080833196E217F307C9F788248394C501B9
:102120000E94E31197FD16C0E82FE695E695E69527
:10213000EC0DFD2DF11D208130E0AC0147705527DD
:1021400002C0359527954A95E2F720FD06C0B501F6
:102150000E941F12882069F094CFE114F10429F045
:10216000F7018083C70101967C019A94812C91101C
:10217000D6CFE114F10409F486CFF701108283CFA2
:10218000E82FE695E695E695EC0DFD2DF11D982FCF
:102190009770BA0101C0660F9A95EAF79081692B92
:1021A0006083782EA3CFB0E0A0E0E9EDF0E10C94DD
:1021B0002D0C6C01EB015A01FC0117821682512C87
:1021C000F601E380FE01E3FC8591E3FE8191182F87
:1021D000EF018823E9F090E00E94E10A892B21F0C9
:1021E000C6010E94770FECCF153241F4FE01E3FCEB
:1021F0001591E3FE1191EF01153269F4C6010E94B9
:10220000E31197FD8EC01817D9F2B6010E941F1274
:10221000852D90E08AC000E01A3231F4E3FC15917C
:10222000E3FE1191EF0101E0F12C20ED210F2A30A6
:1022300048F101FF37C0FF2059F31836B1F11C36C1
:1022400009F43DC0112321F3612F70E088E690E08E
:102250000E94D811892BE1F2912C812C00FD06C03F
:10226000F50180809180C50102965C011E3679F5EA
:10227000F6014681578170E060E0202FC4010E9482
:10228000480F9ECF02606F2D70E090E080E040E24A
:102290000E94540FF62EFE01E3FC1591E3FE11910E
:1022A000EF01C3CFFF24FA94C8CFFE01E3FC1591E0
:1022B000E3FE1191EF01183609F0C4CF0860046005
:1022C000FE01E3FC1591E3FE1191EF01BBCF133644
:1022D000C1F401FD02C0FF24F394C6010E94E31182
:1022E00097FD1FC08114910429F0F4018083C4017B
:1022F00001964C01FA94F110F0CF00FD61CF539498
:102300005FCF1B35B9F49E01A4016F2DC6010E9459
:102310001D10EC01892B89F7F6018381807309F484
:1023200077CF8FEF9FEF511073CFCDB7DEB7EFE0D0
:102330000C94490CC6010E94770F97FDF2CF1F360F
:10234000A9F130F4143641F0193639F0006405C0B3
:102350001337B9F01537D1F70062202FA4016F2D84
:10236000C6010E94900F8111C8CFD6CF811491046D
:1023700029F0F4016082C40101964C01FA94FF2017
:1023800071F0C6010E94E3113C0197FD08C00E9454
:10239000E10A892B59F3B601C3010E941F1281146F
:1023A000910409F4AACFF4011082A7CF0061D5CF20
:1023B000FC010590061621F00020D9F7C001089510
:1023C0003197CF010895CF93DF93EC012B8120FF4C
:1023D0001AC026FF0CC02F7B2B838E819F81019614
:1023E0009F838E838A8190E0DF91CF91089522FFB1
:1023F00018C0E881F9818081082E000C990B0097A4
:1024000029F420622B838FEF9FEFEECF3196F98373
:10241000E8832E813F812F5F3F4F3F832E83992793
:10242000E3CFEA85FB85099597FFF3CF2B810196D2
:1024300021F080E2822B8B83E6CF80E1FBCFFB0192
:10244000238120FF11C026FD0FC08F3F980771F038
:1024500082832F7D20642383268137812150310997
:1024600037832683992708958FEF9FEF0895F89477
:02247000FFCF9C
:102472008FC2F53DAE47613E0000C8425A000100DE
:1024820000000000AB028000000000004E01B80016
:10249200E5009B011601F400080100000000210381
:1024A20016033203EC020F03FC02ED022000474543
:0A24B200540D0A0025642025640083
:00000001FF
