:100000000C9463000C948B000C948B000C948B006C
:100010000C948B000C948B000C948B000C94530765
:100020000C948B000C948B000C948B000C948B0024
:100030000C948B000C948B000C948B000C948B0014
:100040000C94EA050C948B000C94B8050C94920562
:100050000C948B000C948B000C948B000C948B00F4
:100060000C9434060C948B006364696E6F70737526
:1000700078585B0000000000240027002A000000E0
:100080000000250028002B000404040404040404D8
:100090000202020202020303030303030102040833
:1000A00010204080010204081020010204081020E2
:1000B0000000000800020100000304070000000027
:1000C00000000000770711241FBECFEFD8E0DEBF8D
:1000D000CDBF22E0A8E4B1E001C01D92A03AB20772
:1000E000E1F711E0A0E0B1E0EEE8F4E202C0059033
:1000F0000D92A834B107D9F710E0C3E6D0E004C0F0
:100100002197FE010E94450DC236D107C9F70E9412
:10011000B0070C9445120C94000090E0FC01E055EF
:10012000FF4F2491FC01E456FF4F3491FC01E85746
:10013000FF4FE491EE23B1F0222339F02330E9F0B0
:1001400090F4213001F1223011F1F0E0EE0FFF1FA9
:10015000E258FF4FA591B4918FB7F894EC913E2BE4
:100160003C938FBF08952730A9F02830C9F0243080
:1001700061F7809180008F7D03C0809180008F7730
:1001800080938000E2CF84B58F7784BDDECF84B5C5
:100190008F7DFBCF8091B0008F778093B000D5CF5B
:1001A0008091B0008F7DF9CF0895CF93DF93AC019C
:1001B000E091E601F091E7013097F1F09091E501CF
:1001C0008091E4019817C0F090E0292F30E02617C5
:1001D000370754F4D901A55BBE4F240F351FE90141
:1001E00028812C939F5FF1CF1092E5016093E40189
:1001F000CB01DF91CF910994DF91CF910895AF9218
:10020000BF92CF92DF92EF92FF920F931F93CF9303
:10021000DF936C017B018B01040F151FEB015E0165
:10022000AE18BF08C017D10759F06991D601ED91FA
:10023000FC910190F081E02DC6010995892B79F799
:10024000C501DF91CF911F910F91FF90EF90DF904B
:10025000CF90BF90AF900895FC01538D448D252F12
:1002600030E0842F90E0821B930B541710F0CF9650
:10027000089501970895FC01918D828D981761F082
:10028000A28DAE0FBF2FB11D5D968C91928D9F5F99
:100290009F73928F90E008958FEF9FEF0895FC0178
:1002A000918D828D981731F0828DE80FF11D858D2B
:1002B00090E008958FEF9FEF0895FC01918D228DBE
:1002C000892F90E0805C9F4F821B91098F73992743
:1002D000089583EF91E00E945D0121E0892B09F4EC
:1002E00020E0822F0895FC01A48DA80FB92FB11D25
:1002F000A35ABF4F2C91848D90E001968F7399275C
:10030000848FA689B7892C93A089B1898C91837039
:1003100080648C93938D848D981306C00288F38932
:10032000E02D80818F7D80830895EF92FF920F935F
:100330001F93CF93DF93EC0181E0888F9B8D8C8D91
:1003400098131AC0E889F989808185FF15C09FB785
:10035000F894EE89FF896083E889F9898081837048
:10036000806480839FBF81E090E0DF91CF911F91F7
:100370000F91FF90EF900895F62E0B8D10E00F5F18
:100380001F4F0F731127E02E8C8D8E110CC00FB6EE
:1003900007FCFACFE889F989808185FFF5CFCE0186
:1003A0000E947301F1CFEB8DEC0FFD2FF11DE35A8D
:1003B000FF4FF0829FB7F8940B8FEA89FB89808109
:1003C0008062CFCFCF93DF93EC01888D8823B9F083
:1003D000AA89BB89E889F9898C9185FD03C0808150
:1003E00086FD0DC00FB607FCF7CF8C9185FFF2CFCD
:1003F000808185FFEDCFCE010E947301E9CFDF91AF
:10040000CF910895CF93DF9390E0FC01E456FF4F26
:10041000249188579F4FFC0184918823D1F090E06C
:10042000880F991FFC01EC58FF4FA591B491FC0176
:10043000E258FF4FC591D49161110EC09FB7F89457
:100440008C91E22FE0958E238C932881E223E88320
:100450009FBFDF91CF9108958FB7F894EC91E22B75
:10046000EC938FBFF6CF3FB7F8948091D70190916E
:10047000D801A091D901B091DA0126B5A89B05C099
:100480002F3F19F00196A11DB11D3FBFBA2FA92F13
:10049000982F8827BC01CD01620F711D811D911D10
:1004A00042E0660F771F881F991F4A95D1F708957C
:1004B0008F929F92AF92BF92CF92DF92EF92FF9274
:1004C0000E9433024B015C0184EFC82EDD24D394DB
:1004D000E12CF12C0E943302681979098A099B09E1
:1004E000683E734081059105A8F321E0C21AD10846
:1004F000E108F10888EE880E83E0981EA11CB11C6B
:10050000C114D104E104F10429F7FF90EF90DF90CA
:10051000CF90BF90AF909F908F90089585ED80937E
:10052000BC008091BC0084FDFCCF1092E1010895D5
:1005300020918B01260F3327331F21323105ECF434
:100540002091E101FC0190E080E0243069F082E03C
:100550000895A0918B012191AC0145595E4FA40FE4
:10056000B52FB11D2C930196861798F380918B01BE
:10057000680F60938B0180E0089581E008950895ED
:10058000E091E5018091E401E81730F4F0E0E55BEB
:10059000FE4F808190E008958FEF9FEF0895909136
:1005A000E5018091E4012FEF3FEF981748F4E92F20
:1005B000F0E0E55BFE4F208130E09F5F9093E50126
:1005C000C90108958091E4019091E501891B990B7F
:1005D0000895CF93DF93CB01EA01642F0E94980224
:1005E000CE01DF91CF910895CF93DF931F92CDB7C6
:1005F000DEB7698361E0CE0101960E94980281E036
:1006000090E00F90DF91CF91089590E080E0089501
:100610008F929F92AF92BF920F931F93CF93DF93CE
:10062000CDB7DEB7A1970FB6F894DEBF0FBECDBF32
:1006300019A2423008F44AE08E010F5D1F4F842E4C
:10064000912CB12CA12CA50194010E94230DE62F21
:10065000B901CA01EA3044F5E05DD801EE938D019D
:10066000232B242B252B79F790E080E0109769F05D
:10067000FD0101900020E9F73197AF014A1B5B0BA8
:10068000BD0183EF91E00E94FF00A1960FB6F894A0
:10069000DEBF0FBECDBFDF91CF911F910F91BF90F5
:1006A000AF909F908F900895E95CD7CF42E050E0E3
:1006B0006CE371E083EF91E00C94FF00EF92FF9206
:1006C0000F931F93CF93DF93CDB7DEB72A970FB663
:1006D000F894DEBF0FBECDBF8E010F5F1F4F7801B4
:1006E0009091E4018091E501981749F080E992E04A
:1006F0000E94CF02F80181938F011082F1CFC701D0
:100700000E944E0A9093F0018093EF012A960FB653
:10071000F894DEBF0FBECDBFDF91CF911F910F9137
:10072000FF90EF9008950F931F93CF93DF93EC0109
:1007300088819981009759F02A813B8126173707D4
:1007400030F081E0DF91CF911F910F9108958B01DF
:100750006F5F7F4F0E94700E009759F099838883D6
:100760001B830A832C813D81232B59F7FC011082C6
:10077000E8CF80E0E7CFCF93DF93EC0188819981C8
:10078000009711F00E94E70D198218821D821C82C9
:100790001B821A82DF91CF910895CF92DF92EF9260
:1007A000FF920F931F93CF93DF93CDB7DEB762977E
:1007B0000FB6F894DEBF0FBECDBF8C01CB01F801A0
:1007C0001182108213821282158214824AE09E01E5
:1007D0002F5F3F4F6901B9010E946C0AF601019039
:1007E0000020E9F731977F01EC18FD08B701C80137
:1007F0000E949303811112C0C8010E94BB0362963C
:100800000FB6F894DEBF0FBECDBFDF91CF911F9121
:100810000F91FF90EF90DF90CF900895F801F5824F
:10082000E482B601808191810E94360FE8CFFC01FD
:1008300080819181009711F00C94E70D08958F92BB
:100840009F92AF92BF92CF92DF92EF92FF920F935F
:100850001F93CF93DF93CDB7DEB7EE970FB6F89423
:10086000DEBF0FBECDBF8E010F5F1F4F780183EF3C
:1008700091E00E945D01892B49F083EF91E00E9495
:100880003B01F80181938F011082F1CFCE01CD960B
:100890009F938F9302979F938F938FE391E09F9302
:1008A0008F93FF92EF920E943D0F8DAD9EAD0FB6DC
:1008B000F894DEBF0FBECDBF8B30910509F499C00F
:1008C0002BAD3CAD2B30310509F493C03093F201D0
:1008D0002093F10190930101809300016091000148
:1008E00070910101CE01C5960E94CD036091F10186
:1008F0007091F201CE0189960E94CD0318AA1FA61D
:100900001AAA19AA1CAA1BAA09A51AA5011511053C
:1009100069F0EDA4FEA4B701CE018F960E94930367
:100920008111E8C0CE018F960E94BB030BA91CA9C0
:100930000F5F1F4FB801CE018F960E94930388234B
:1009400009F4E0C02FA538A98BA99CA965E471E042
:10095000820F931F0E94360F1CAB0BABEDA8FEA8B5
:10096000E114F10409F4D3C009AD1AAD0115110564
:10097000B9F08BA99CA9080F191FB801CE018F9659
:100980000E949303882309F4C2C02FA538A98BA91C
:100990009CA9B701820F931F0E94360F1CAB0BABB3
:1009A0004BA95CA96FA578A983EF91E00E94FF0095
:1009B0000E945603CE018F960E941704CE0189969D
:1009C0000E941704CE01C5960E941704EE960FB63A
:1009D000F894DEBF0FBECDBFDF91CF911F910F9175
:1009E000FF90EF90DF90CF90BF90AF909F908F904F
:1009F000089588EBA82E85E0B82EB0928900A092C9
:100A000088009FEAE92E95E0F92EF0928B00E092A3
:100A10008A000E94580202EC15E0109389000093AE
:100A20008800F0928B00E0928A000E945802109396
:100A300089000093880024E2C22E27E0D22ED092B3
:100A40008B00C0928A000E94580210938900009384
:100A50008800F0928B00E0928A000E945802109366
:100A60008900009388003AE3832E34E0932E90921D
:100A70008B0080928A000E94580210938900009394
:100A80008800F0928B00E0928A000E945802109336
:100A9000890000938800D0928B00C0928A000E9447
:100AA0005802109389000093880090928B008092E6
:100AB0008A000E9458021093890000938800D09207
:100AC0008B00C0928A000E94580210938900009304
:100AD0008800F0928B00E0928A000E945802B09247
:100AE0008900A0928800F0928B00E0928A000E9418
:100AF0005802F4CEFCAAEBAAB8018FA598A90E94CF
:100B0000360F14CFCE018F960E94BB0327CFCE01A4
:100B10008F960E94BB0344CF0E94690181110C94FF
:100B20001F0408951F920F920FB60F9211242F9356
:100B30003F934F935F936F937F938F939F93AF9365
:100B4000BF93EF93FF9383EF91E00E947301FF91B6
:100B5000EF91BF91AF919F918F917F916F915F9135
:100B60004F913F912F910F900FBE0F901F901895AE
:100B70001F920F920FB60F9211242F938F939F9372
:100B8000EF93FF93E0910302F09104028081E091E2
:100B90000902F0910A0282FD1BC0908180910C0233
:100BA0008F5F8F7320910D02821741F0E0910C024C
:100BB000F0E0ED50FE4F958F80930C02FF91EF9186
:100BC0009F918F912F910F900FBE0F901F901895AE
:100BD0008081F4CF1F920F920FB60F9211242F93A2
:100BE0003F938F939F93AF93BF938091D301909145
:100BF000D401A091D501B091D6013091D20123E06A
:100C0000230F2D3758F50196A11DB11D2093D20158
:100C10008093D3019093D401A093D501B093D601D2
:100C20008091D7019091D801A091D901B091DA01BA
:100C30000196A11DB11D8093D7019093D801A09377
:100C4000D901B093DA01BF91AF919F918F913F91FC
:100C50002F910F900FBE0F901F90189526E8230F2D
:100C60000296A11DB11DD2CF1F920F920FB60F9207
:100C700011242F933F934F935F936F937F938F93A1
:100C80009F93AF93BF93EF93FF938091B900887FB9
:100C9000803609F44AC0F0F5883209F4A7C018F587
:100CA000803109F49BC0B8F4882309F4F9C0883076
:100CB00009F494C0FF91EF91BF91AF919F918F91F3
:100CC0007F916F915F914F913F912F910F900FBE48
:100CD0000F901F901895883109F488C0803251F721
:100CE0008093AE0114C0803409F49DC040F4803379
:100CF000B9F38833F9F68093AE0185ECB0C0803546
:100D000009F485C0883509F496C0883499F60E94A4
:100D10008E02D0CF883909F48CC038F5883729F095
:100D200050F4883611F0803729F683E08093E10192
:100D30001092AD0157C0883809F47BC0803919F092
:100D4000803809F0B7CF8091AD01803208F071C0D2
:100D5000E091AD0181E08E0F8093AD018091BB00E9
:100D6000F0E0E357FE4F80833DC0803B39F0E0F474
:100D7000803A09F479C0883A09F09CCF84E08093E6
:100D8000E10110928C0110928B01E091DD01F09154
:100D9000DE01099580918B0181110FC081E0809364
:100DA0008B0110926B0109C0803C09F4A6CF883CEE
:100DB00009F4A3CF883B09F07DCFE0918C0181E05D
:100DC0008E0F80938C01F0E0E559FE4F8081809377
:100DD000BB0090918C0180918B0129C08091D10141
:100DE0008093BB0085EC8093BC0064CF9091D001D0
:100DF0008091CF01981758F5E091D00181E08E0FD6
:100E00008093D001F0E0E155FE4F8081E9CFE09181
:100E1000D00181E08E0F8093D0018091BB00F0E083
:100E2000E155FE4F80839091D0018091CF019817BA
:100E3000C8F285E8D8CFE091D00181E08E0F809391
:100E4000D0018091BB00F0E0E155FE4F808380919E
:100E5000E00181115CCF81E08093DF0184EA80931F
:100E6000BC001092E10126CF85EC8093BC0010926B
:100E7000E1018091AD01803230F4E091AD01F0E00C
:100E8000E357FE4F10826091AD0170E0E091DB010D
:100E9000F091DC018DE891E009951092AD010ACF47
:100EA0001092AE0134CF1F920F920FB60F92112401
:100EB0008F939F938091490190914A01019690935D
:100EC0004A01809349018091490190914A01C2975A
:100ED00039F481E08093480110924A01109249014F
:100EE0009F918F910F900FBE0F901F901895E3EF79
:100EF000F1E01382128288EE93E0A0E0B0E08483F8
:100F00009583A683B7832CE131E03183208325ECE0
:100F100030E03587248724EC30E03787268720ECC3
:100F200030E0318B208B21EC30E0338B228B22ECB4
:100F300030E0358B248B26EC30E0378B268B118EFE
:100F4000128E138E148EE0E9F2E0138212828483F3
:100F50009583A683B7838EE291E091838083089581
:100F6000CF93DF93CDB7DEB72C970FB6F894DEBFE3
:100F70000FBECDBF789484B5826084BD84B5816096
:100F800084BD85B5826085BD85B5816085BD809154
:100F90006E00816080936E001092810080918100CC
:100FA00082608093810080918100816080938100C4
:100FB000809180008160809380008091B100846086
:100FC0008093B1008091B00081608093B0008091E7
:100FD0007A00846080937A0080917A0082608093A6
:100FE0007A0080917A00816080937A0080917A0003
:100FF000806880937A001092C10060E084E10E94D2
:10100000020261E089E00E94020261E08AE00E943F
:101010000202E0910302F091040282E08083E091F9
:10102000FF01F09100021082E0910102F0910202B2
:10103000108210920B02E0910702F091080286E004
:101040008083E0910502F0910602808180618083B7
:10105000E0910502F0910602808188608083E09132
:101060000502F0910602808180688083E09105028C
:10107000F091060280818F7D808386E480937C00DE
:1010800080917A00806480937A0080917A0086FD56
:10109000FCCF9091780080917900382F292F61E062
:1010A00070E080E090E0253631051CF460E070E0EF
:1010B000CB014AE00E9408030E9456031092E5010A
:1010C0001092E4011092E3011092E2011092E1010A
:1010D00081E08093E0011092DF0182E10E948D00A7
:1010E00083E10E948D008091B9008E7F8093B900CA
:1010F0008091B9008D7F8093B90088E48093B80017
:1011000085E48093BC0084ED90E09093DE018093B1
:10111000DD0185ED90E09093DC018093DB0182E0BE
:101120008093BA002EE533E03093E7012093E60187
:101130008093B00095E09093B1009CE79093B3004A
:101140008093700082EA8093800082E18093810026
:1011500080E29EE49093870080938600189BA6C04F
:101160001092890010928800F9CF19821A821B828E
:101170001C82E5C0209106013091070140910801D1
:10118000509109013EC1609102017091030180916B
:101190000401909105014090E8015090E9016090B0
:1011A000EA017090EB018090060190900701A090F9
:1011B0000801B09009012DEC3CEC4CE45DE30E9489
:1011C000180BA70196010E94180BA30192010E941F
:1011D000110CA50194010E94B20A87FF1FC0609103
:1011E00002017091030180910401909105018090AA
:1011F000E8019090E901A090EA01B090EB012DEC9C
:101200003CEC4CE45DE30E94180BA70196010E94A0
:10121000180BA50194010E94110C05C160910601F3
:10122000709107018091080190910901FCC062EC66
:1012300075E080910001909101018B016D3A77403A
:1012400010F00CEA17E0083B55E0150710F408EB26
:1012500015E0BC01990F880B990B0E94B90A21EE89
:101260003AE344E253E40E94100C2DE33CE244E5EF
:101270005DEB0E947D0C0E94EF0C653287E07807E1
:1012800010F064E277E06A3324E0720710F46AE356
:1012900074E0109389000093880070938B00609332
:1012A0008A000E94690181110E941F04A090F1012F
:1012B000B090F2018091EF019091F001A81AB90A63
:1012C000B5010B2C000C880B990B0E94B90A6B011D
:1012D0007C0120910E0130910F014091100150913D
:1012E00011010E94180B6D837E838F8398878091F4
:1012F000EE01882309F439CF8091EC019091ED0142
:1013000040900A0150900B0160900C0170900D010B
:10131000B501681B790B072E000C880B990B0E94F6
:10132000B90A2DEC3CEC4CE45DE30E947D0CA3017A
:1013300092010E94180B69837A838B839C83B092FD
:10134000ED01A092EC0121E02093EE0180910601D5
:1013500090910701A0910801B09109019C01AD0194
:10136000505829873A874B875C87609102017091BA
:10137000030180910401909105018090E801909013
:10138000E901A090EA01B090EB0140900601509075
:10139000070160900801709009012DEC3CEC4CE4D1
:1013A0005DE30E94180BA70196010E94180BA5018E
:1013B00094010E94110CA30192010E94B20A87FFBE
:1013C000D9CE609102017091030180910401909146
:1013D00005018090E8019090E901A090EA01B090A9
:1013E000EB012DEC3CEC4CE45DE30E94180BA701F3
:1013F00096010E94180BA50194010E94110C9B01FB
:10140000AC0169857A858B859C850E941E0D181616
:101410000CF0B9CE6091060170910701809108012E
:101420009091090190586093E8017093E9018093CD
:10143000EA019093EB012091E8013091E90140919C
:10144000EA015091EB016D817E818F8198850E9428
:10145000110C29813A814B815C810E94110C20E0A2
:1014600030E448EB54E40E94110C0E94EF0C809190
:10147000F1019091F201181619062CF4623C35E046
:10148000730708F4D4CE8091F1019091F2011816FF
:1014900019060CF4CECE68EB75E0CBCEFC018827A4
:1014A0009927E89421912032E9F3293010F02E3069
:1014B000C8F32B3241F02D3239F4689404C00E94F5
:1014C000770A820F911D219120532A30C0F31EF418
:1014D000909581959F4F0895BB274A3031F4992309
:1014E00022F4BDE2909581959F4F0C94800A7AE09A
:1014F000979F902D879F802D910D11240895BB27D4
:10150000FB015527AA27880F991FAA1FA41710F0BF
:10151000A41B83955051B9F7A05DAA3308F0A95DCB
:10152000A193009779F7B111B1931192CB010C946B
:10153000A20A91110C94850B803219F089508550C4
:10154000C8F70895DC01FC01672F71917723E1F75B
:10155000329704C07C916D9370836291AE17BF0780
:10156000C8F308950E94F40A08F481E00895E8940D
:1015700009C097FB3EF490958095709561957F4FDB
:101580008F4F9F4F9923A9F0F92F96E9BB27939589
:10159000F695879577956795B795F111F8CFFAF499
:1015A000BB0F11F460FF1BC06F5F7F4F8F4F9F4FCA
:1015B00016C0882311F096E911C0772321F09EE828
:1015C000872F762F05C0662371F096E8862F70E08E
:1015D00060E02AF09A95660F771F881FDAF7880F68
:1015E0009695879597F90895990F0008550FAA0BBE
:1015F000E0E8FEEF16161706E807F907C0F0121626
:101600001306E407F50798F0621B730B840B950B28
:1016100039F40A2661F0232B242B252B21F408957D
:101620000A2609F4A140A6958FEF811D811D08951A
:101630000E942B0B0C949F0B0E94910B38F00E9480
:10164000980B20F0952311F00C94880B0C948E0BC2
:1016500011240C94D30B0E94B00B70F3959FC1F32F
:10166000950F50E0551F629FF001729FBB27F00D50
:10167000B11D639FAA27F00DB11DAA1F649F6627A5
:10168000B00DA11D661F829F2227B00DA11D621FF4
:10169000739FB00DA11D621F839FA00D611D221FAE
:1016A000749F3327A00D611D231F849F600D211D92
:1016B000822F762F6A2F11249F5750409AF0F1F015
:1016C00088234AF0EE0FFF1FBB1F661F771F881F7E
:1016D00091505040A9F79E3F510580F00C94880B23
:1016E0000C94D30B5F3FE4F3983ED4F38695779543
:1016F0006795B795F795E7959F5FC1F7FE2B880F24
:10170000911D9695879597F90895992788270895AB
:1017100097F99F6780E870E060E008959FEF80ECA4
:10172000089500240A941616170618060906089547
:1017300000240A9412161306140605060895092EAD
:101740000394000C11F4882352F0BB0F40F4BF2B1C
:1017500011F460FF04C06F5F7F4F8F4F9F4F08955C
:1017600057FD9058440F551F59F05F3F71F0479552
:10177000880F97FB991F61F09F3F79F08795089537
:10178000121613061406551FF2CF4695F1DF08C056
:10179000161617061806991FF1CF86957105610573
:1017A00008940895E894BB2766277727CB0197F91B
:1017B00008952F923F924F925F926F927F928F92F5
:1017C0009F92AF92BF92CF92DF92EF92FF920F93D0
:1017D0001F93CF93DF93CDB7DEB7CA1BDB0B0FB6DA
:1017E000F894DEBF0FBECDBF09942A883988488897
:1017F0005F846E847D848C849B84AA84B984C8842D
:10180000DF80EE80FD800C811B81AA81B981CE0F23
:10181000D11D0FB6F894DEBF0FBECDBFED01089508
:101820005058BB27AA270E94280C0C949F0B0E949B
:10183000910B38F00E94980B20F039F49F3F19F477
:1018400026F40C948E0B0EF4E095E7FB0C94880BB9
:10185000E92F0E94B00B58F3BA1762077307840789
:10186000950720F079F4A6F50C94D20B0EF4E095D0
:101870000B2EBA2FA02D0B01B90190010C01CA014A
:10188000A0011124FF27591B99F0593F50F4503EF5
:1018900068F11A16F040A22F232F342F4427585FE7
:1018A000F3CF469537952795A795F0405395C9F7FF
:1018B0007EF41F16BA0B620B730B840BBAF09150B7
:1018C000A1F0FF0FBB1F661F771F881FC2F70EC056
:1018D000BA0F621F731F841F48F487957795679529
:1018E000B795F7959E3F08F0B0CF9395880F08F015
:1018F0009927EE0F9795879508950E94910C0C9467
:101900009F0B0E94980B58F00E94910B40F029F415
:101910005F3F29F00C94880B51110C94D30B0C945D
:101920008E0B0E94B00B68F39923B1F3552391F30A
:10193000951B550BBB27AA2762177307840738F03E
:101940009F5F5F4F220F331F441FAA1FA9F335D09B
:101950000E2E3AF0E0E832D091505040E695001C4F
:10196000CAF72BD0FE2F29D0660F771F881FBB1F09
:10197000261737074807AB07B0E809F0BB0B802DE7
:10198000BF01FF2793585F4F3AF09E3F510578F013
:101990000C94880B0C94D30B5F3FE4F3983ED4F384
:1019A000869577956795B795F7959F5FC9F7880FE7
:1019B000911D9695879597F90895E1E0660F771F39
:1019C000881FBB1F621773078407BA0720F0621BCA
:1019D000730B840BBA0BEE1F88F7E09508950E94F5
:1019E000B80B88F09F5798F0B92F9927B751B0F0EE
:1019F000E1F0660F771F881F991F1AF0BA95C9F793
:101A000014C0B13091F00E94D20BB1E008950C9453
:101A1000D20B672F782F8827B85F39F0B93FCCF306
:101A2000869577956795B395D9F73EF4909580950F
:101A3000709561957F4F8F4F9F4F08950E94F40AD4
:101A400008F48FEF0895A1E21A2EAA1BBB1BFD011B
:101A50000DC0AA1FBB1FEE1FFF1FA217B307E4078D
:101A6000F50720F0A21BB30BE40BF50B661F771FE5
:101A7000881F991F1A9469F76095709580959095C5
:101A80009B01AC01BD01CF010895EE0FFF1F059032
:101A9000F491E02D09940F931F93CF93DF9382303D
:101AA000910510F482E090E0E0919E02F0919F0297
:101AB00030E020E0B0E0A0E0309799F42115310546
:101AC00009F44AC0281B390B24303105D8F58A8126
:101AD0009B816115710589F1FB0193838283FE016E
:101AE00011C0408151810281138148175907E0F0EC
:101AF0004817590799F4109761F012960C931297B2
:101B000013961C933296CF01DF91CF911F910F91C5
:101B1000089500939E0210939F02F4CF2115310582
:101B200051F04217530738F0A901DB019A01BD01BA
:101B3000DF01F801C1CFEF01F9CF90939F028093AD
:101B40009E02CDCFFE01E20FF31F819391932250AD
:101B5000310939832883D7CF20919C0230919D028F
:101B6000232B41F4209114013091150130939D02F3
:101B700020939C022091120130911301211531050F
:101B800041F42DB73EB74091160150911701241B27
:101B9000350BE0919C02F0919D02E217F307A0F44F
:101BA0002E1B3F0B2817390778F0AC014E5F5F4FB3
:101BB0002417350748F04E0F5F1F50939D02409346
:101BC0009C02819391939FCFF0E0E0E09CCFCF9374
:101BD000DF930097E9F0FC01329713821282A09103
:101BE0009E02B0919F02ED0130E020E01097A1F439
:101BF00020813181820F931F20919C0230919D02A0
:101C00002817390709F061C0F0939D02E0939C0208
:101C1000DF91CF910895EA01CE17DF07E8F54A81F9
:101C20005B819E0141155105B1F7E901FB83EA8310
:101C300049915991C40FD51FEC17FD0761F48081BC
:101C400091810296840F951FE9019983888382818F
:101C500093819B838A83F0E0E0E012968D919C91C2
:101C600013970097B9F52D913C911197CD010296EC
:101C7000820F931F20919C0230919D0228173907F3
:101C800039F6309751F510929F0210929E02B09350
:101C90009D02A0939C02BCCFD383C283408151811B
:101CA000840F951FC817D90761F44E5F5F4F888175
:101CB0009981480F591F518340838A819B81938367
:101CC00082832115310509F0B0CFF0939F02E09394
:101CD0009E029ECFFD01DC01C0CF13821282D7CFBE
:101CE000B0E0A0E0E6E7FEE00C94DB0B8C0100978F
:101CF00051F4CB010E944B0D8C01C801CDB7DEB76A
:101D0000E0E10C94F70BFC01E60FF71F9C01225059
:101D10003109E217F30708F49DC0D901CD91DC9198
:101D20001197C617D70798F0C530D10530F3CE010B
:101D300004978617970708F3C61BD70B2297C19302
:101D4000D1936D937C93CF010E94E70DD6CF5B01B9
:101D5000AC1ABD0A4C018C0E9D1EA0919E02B09142
:101D60009F02512C412CF12CE12C109731F58091E0
:101D70009C0290919D028815990509F05CC0461659
:101D8000570608F058C080911201909113010097F6
:101D900041F48DB79EB74091160150911701841BF5
:101DA000950BE817F90708F055C0F0939D02E093F2
:101DB0009C02F90171836083A0CF8D919C91119752
:101DC00012966C90129713967C901397A815B905EC
:101DD00059F56C0142E0C40ED11CCA14DB0420F199
:101DE000AC014A195B09DA011296159780F06282FC
:101DF000738251834083D9016D937C93E114F10484
:101E000071F0D7011396FC93EE93129776CF22963A
:101E10008C0F9D1FF90191838083F301EFCFF09325
:101E20009F02E0939E0269CF4816590608F42C01E0
:101E30007D01D3019ACFCB010E944B0D7C0100970D
:101E400049F0AE01B8010E942D0FC8010E94E70DB4
:101E5000870153CF10E000E050CFFB01DC0102C04E
:101E600001900D9241505040D8F70895FB01DC01DC
:101E700001900D920020E1F70895AEE0B0E0E3E4B8
:101E8000FFE00C94E90B85E08C838B899C899A8315
:101E90008983AE01495E5F4F6D897E89CE010196CF
:101EA0000E94E1102E96E2E00C94050C20FD09C082
:101EB000FC0123FD05C022FF02C0738362835183AE
:101EC0004083089544FD17C046FD1DC0DB01FC01A1
:101ED000AA0FBB1FEE1FFF1F1094D1F76A0F7B1FC5
:101EE0008E1F9F1F660F771F881F991F620F711D1E
:101EF000811D911D089533E0660F771F881F991F7C
:101F00003150D1F7F3CF34E0F7CF0F931F93CF9336
:101F1000DF938C01C8010E94F111EC0197FD08C00C
:101F20000E94990A892BB1F7B801CE010E942D12A7
:101F3000CE01DF91CF911F910F9108958F929F92C3
:101F4000AF92BF92EF92FF920F931F93CF93DF93C5
:101F50008C01D62F7A01B22E0E94F1119C013327F9
:101F60002B32310529F02D323105A9F46894B7F8E8
:101F7000D15061F480E0DF91CF911F910F91FF90DC
:101F8000EF90BF90AF909F908F900895C8010E94EE
:101F9000F11197FDEFCFCB2DCD7F2B2D2073F9F4D1
:101FA0008033E9F4AA24AA94AD0E89F0C8010E94F6
:101FB000F11197FD0CC0282F2F7D283561F4C264E4
:101FC000D25029F0C8010E94F11197FF08C0812C5E
:101FD000912C54011BC0B6FE2BC0C260DA2D812C9F
:101FE000912C540120ED280F283028F1C4FD09C0A0
:101FF0002A3008F1C6FF05C02F7D3FEE320F363084
:10200000C8F0B8010E942D12C1FFB4CFC7FF08C0AD
:10201000B094A09490948094811C911CA11CB11C3C
:102020002C2FB501A401C7010E94560F81E0A3CF58
:10203000C261D4CF27504C2FC501B4010E94620F5A
:102040004B015C01C260D15009F3C8010E94F1113B
:1020500097FFC8CFD9CFA0E2B0E0E1E3F0E10C9464
:10206000DE0B5C01962E7A01CE0101966C0180E2B6
:10207000F60111928A95E9F7F501B381890130E003
:1020800020E0712C812CA0E041E050E0F801B3FD8C
:102090008591B3FF8191982F8F01811107C010E0C6
:1020A00000E0C801A096EDE00C94FA0B8E3519F40F
:1020B0002115310541F1A21713064CF48D3549F174
:1020C0008D3229F4811006C0882483941DC0882095
:1020D00009F464C0E92FE695E695E695EC0DFD2D33
:1020E000F11D892F8770BA0101C0660F8A95EAF742
:1020F0008081682B6083791651F0971510F49F5FEB
:10210000E9CF9150E7CFA1E02F5F3F4FBFCF812CA8
:10211000FBCF882019F08E8180628E83AA2359F02C
:10212000F6019E012F5D3F4F80818095808331961F
:10213000E217F307C9F788248394C5010E94F111BF
:1021400097FD16C0E82FE695E695E695EC0DFD2D7A
:10215000F11D208130E0AC014770552702C0359554
:1021600027954A95E2F720FD06C0B5010E942D1281
:10217000882069F094CFE114F10429F0F7018083FD
:10218000C70101967C019A94812C9110D6CFE1145D
:10219000F10409F486CFF701108283CFE82FE6958A
:1021A000E695E695EC0DFD2DF11D982F9770BA017F
:1021B00001C0660F9A95EAF79081692B6083782EAB
:1021C000A3CFB0E0A0E0E7EEF0E10C94DC0B6C01F3
:1021D000EB015A01FC0117821682512CF601E380B3
:1021E000FE01E3FC8591E3FE8191182FEF01882326
:1021F000E9F090E00E94990A892B21F0C6010E9423
:10220000850FECCF153241F4FE01E3FC1591E3FE9E
:102210001191EF01153269F4C6010E94F11197FD89
:102220008EC01817D9F2B6010E942D12852D90E0AC
:102230008AC000E01A3231F4E3FC1591E3FE1191FB
:10224000EF0101E0F12C20ED210F2A3048F101FFD0
:1022500037C0FF2059F31836B1F11C3609F43DC0E0
:10226000112321F3612F70E088E690E00E94E611CF
:10227000892BE1F2912C812C00FD06C0F5018080B4
:102280009180C50102965C011E3679F5F601468102
:10229000578170E060E0202FC4010E94560F9ECF4E
:1022A00002606F2D70E090E080E040E20E94620FDB
:1022B000F62EFE01E3FC1591E3FE1191EF01C3CF71
:1022C000FF24FA94C8CFFE01E3FC1591E3FE1191BF
:1022D000EF01183609F0C4CF08600460FE01E3FC8A
:1022E0001591E3FE1191EF01BBCF1336C1F401FD4F
:1022F00002C0FF24F394C6010E94F11197FD1FC094
:102300008114910429F0F4018083C40101964C01E9
:10231000FA94F110F0CF00FD61CF53945FCF1B35DD
:10232000B9F49E01A4016F2DC6010E942B10EC018F
:10233000892B89F7F6018381807309F477CF8FEFBA
:102340009FEF511073CFCDB7DEB7EFE00C94F80BD1
:10235000C6010E94850F97FDF2CF1F36A9F130F418
:10236000143641F0193639F0006405C01337B9F05E
:102370001537D1F70062202FA4016F2DC6010E94EE
:102380009E0F8111C8CFD6CF8114910429F0F4019A
:102390006082C40101964C01FA94FF2071F0C601DD
:1023A0000E94F1113C0197FD08C00E94990A892BF7
:1023B00059F3B601C3010E942D128114910409F44E
:1023C000AACFF4011082A7CF0061D5CFFC01059000
:1023D000061621F00020D9F7C00108953197CF01EA
:1023E0000895CF93DF93EC012B8120FF1AC026FFC5
:1023F0000CC02F7B2B838E819F8101969F838E83C0
:102400008A8190E0DF91CF91089522FF18C0E88182
:10241000F9818081082E000C990B009729F4206225
:102420002B838FEF9FEFEECF3196F983E8832E81D8
:102430003F812F5F3F4F3F832E839927E3CFEA856C
:10244000FB85099597FFF3CF2B81019621F080E260
:10245000822B8B83E6CF80E1FBCFFB01238120FF22
:1024600011C026FD0FC08F3F980771F082832F7D2A
:1024700020642383268137812150310937832683C5
:0E248000992708958FEF9FEF0895F894FFCFEE
:10248E005A00A69B443B0000C842A69BC43BCDCC41
:10249E00CC3E0000A0028000000000009501FF006D
:1024AE002C01E2015D013B014F0100000000F4022E
:1024BE00E9020503BF02E202CF02C0020D0A0025A7
:0824CE006420256400200000D9
:107800000C94343C0C94513C0C94513C0C94513CE1
:107810000C94513C0C94513C0C94513C0C94513CB4
:107820000C94513C0C94513C0C94513C0C94513CA4
:107830000C94513C0C94513C0C94513C0C94513C94
:107840000C94513C0C94513C0C94513C0C94513C84
:107850000C94513C0C94513C0C94513C0C94513C74
:107860000C94513C0C94513C11241FBECFEFD8E036
:10787000DEBFCDBF11E0A0E0B1E0ECE9FFE702C060
:1078800005900D92A230B107D9F712E0A2E0B1E065
:1078900001C01D92AD30B107E1F70E942D3D0C945F
:1078A000CC3F0C94003C982F959595959595959582
:1078B000905D8F708A307CF0282F295A8091C0000B
:1078C00085FFFCCF9093C6008091C00085FFFCCF60
:1078D0002093C6000895282F205DF0CF982F809127
:1078E000C00085FFFCCF9093C6000895EF92FF92F1
:1078F0000F931F93EE24FF2487018091C00087FD22
:1079000017C00894E11CF11C011D111D81E4E8164B
:1079100082E4F8068FE0080780E0180770F3E09132
:107920000401F091050109958091C00087FFE9CF1E
:107930008091C6001F910F91FF90EF9008950E94D3
:10794000763C982F8091C00085FFFCCF9093C600B5
:1079500091362CF490330CF09053892F089597555D
:10796000892F08951F930E949F3C182F0E949F3CCF
:107970001295107F810F1F9108951F93182F882350
:1079800021F00E94763C1150E1F71F9108951F935A
:10799000182F0E94763C803249F0809103018F5F5E
:1079A000809303018530C1F01F9108958091C0003C
:1079B00085FFFCCF84E18093C6008091C00085FFE5
:1079C000FCCF1093C6008091C00085FFFCCF80E102
:1079D0008093C6001F910895E0910401F091050184
:1079E00009951F9108950E94763C803241F0809164
:1079F00003018F5F80930301853081F008958091AA
:107A0000C00085FFFCCF84E18093C6008091C00058
:107A100085FFFCCF80E18093C6000895E0910401CA
:107A2000F09105010995089540E951E08823A1F0FE
:107A30002D9A28EE33E0FA013197F1F721503040CA
:107A4000D1F72D9828EE33E0FA013197F1F7215064
:107A50003040D1F7815061F708953F924F925F9285
:107A60006F927F928F929F92AF92BF92CF92DF924E
:107A7000EF92FF920F931F93CF93DF93000080E16B
:107A80008093C4001092C50088E18093C10086E015
:107A90008093C2005098589A259A81E00E94143D24
:107AA00024E1F22E9EE1E92E85E9D82E0FE0C02ECA
:107AB00010E1B12EAA24A394B1E49B2EA6E58A2E50
:107AC000F2E57F2EE0E26E2E79E4572E63E5462E36
:107AD00050E5352E0E94763C8033B1F18133B9F107
:107AE000803409F46FC0813409F476C0823409F41B
:107AF00085C0853409F488C0803531F1823521F1A3
:107B0000813511F1853509F485C0863509F48DC0BC
:107B1000843609F496C0843709F403C1853709F423
:107B200072C1863709F466C0809103018F5F80932C
:107B30000301853079F6E0910401F0910501099582
:107B40000E94763C803351F60E94F33CC3CF0E94E2
:107B5000763C803249F78091C00085FFFCCFF092DF
:107B6000C6008091C00085FFFCCF9092C600809136
:107B7000C00085FFFCCF8092C6008091C00085FFC9
:107B8000FCCF7092C6008091C00085FFFCCF609250
:107B9000C6008091C00085FFFCCF5092C600809146
:107BA000C00085FFFCCF4092C6008091C00085FFD9
:107BB000FCCF3092C6008091C00085FFFCCFB09210
:107BC000C60088CF0E94763C863808F4BDCF0E945C
:107BD000763C0E94F33C7ECF0E94763C803809F4CC
:107BE0009CC0813809F40BC1823809F43CC1883942
:107BF00009F48FC080E00E94C73C6CCF84E10E94F2
:107C0000BD3C0E94F33C66CF85E00E94BD3C0E94D3
:107C1000F33C60CF0E94763C809306010E94763C44
:107C2000809307010E94F33C55CF0E94763C80333D
:107C300009F41DC183E00E94BD3C80E00E94C73C66
:107C400049CF0E94763C809309020E94763C809343
:107C5000080280910C028E7F80930C020E94763C79
:107C6000853409F415C18091080290910902892B8D
:107C700089F000E010E00E94763CF801E85FFE4FDA
:107C800080830F5F1F4F80910802909109020817AF
:107C9000190788F30E94763C803209F045CF809125
:107CA0000C0280FF01C16091060170910701660F0F
:107CB000771F7093070160930601A0910802B091AD
:107CC00009021097C9F0E8E0F1E09B01AD014E0F09
:107CD0005F1FF999FECF32BD21BD819180BDFA9A17
:107CE000F99A2F5F3F4FE417F50799F76A0F7B1F4B
:107CF00070930701609306018091C00085FFFCCF5F
:107D0000F092C6008091C00085FFFCCFB092C60003
:107D1000E1CE83E00E94C73CDDCE82E00E94C73CFA
:107D2000D9CE0E94763C809309020E94763C8093D3
:107D300008028091060190910701880F991F909386
:107D40000701809306010E94763C853409F4A6C0A1
:107D500080910C028E7F80930C020E94763C8032D0
:107D600009F0B8CE8091C00085FFFCCFF092C6002C
:107D7000609108027091090261157105B9F140E046
:107D800050E080910C02A82FA170B82FB27011C0E2
:107D9000BB2309F45CC0E0910601F0910701319624
:107DA000F0930701E09306014F5F5F4F46175707B7
:107DB000E8F4AA2369F3F999FECF209106013091E6
:107DC000070132BD21BDF89A90B58091C00085FFB2
:107DD000FCCF9093C6002F5F3F4F30930701209355
:107DE00006014F5F5F4F4617570718F38091C00099
:107DF00085FDE5CE8091C00085FFF8CFE0CE81E023
:107E00000E94C73C67CE0E94763C803209F08CCE3F
:107E10008091C00085FFFCCFF092C6008091C00029
:107E200085FFFCCFE092C6008091C00085FFFCCFAB
:107E3000D092C6008091C00085FFFCCFC092C600E2
:107E40008091C00085FFFCCFB092C60043CEE09188
:107E50000601F091070194918091C00085FFFCCF4D
:107E60009093C6009CCF80E10E94C73C33CE0E9415
:107E7000763C0E94763C182F0E94763C112309F430
:107E800083C0113009F484C08FE00E94C73C22CE29
:107E900080910C02816080930C02E5CE80910C02EF
:107EA000816080930C0259CF809107018823880F4D
:107EB000880B8A2180930B02809106019091070123
:107EC000880F991F90930701809306018091080203
:107ED00080FF09C080910802909109020196909359
:107EE000090280930802F894F999FECF1127E091D6
:107EF0000601F0910701C8E0D1E08091080290915D
:107F00000902103091F40091570001700130D9F34B
:107F100003E000935700E89500915700017001308D
:107F2000D9F301E100935700E89509901990009169
:107F3000570001700130D9F301E000935700E89534
:107F40001395103498F011270091570001700130FB
:107F5000D9F305E000935700E895009157000170B0
:107F60000130D9F301E100935700E895329602976A
:107F700009F0C7CF103011F00296E5CF112480919F
:107F8000C00085FFB9CEBCCE8EE10E94C73CA2CD19
:0C7F900085E90E94C73C9ECDF894FFCF0D
:027F9C00800063
:040000030000780081
:00000001FF
