:100000000C94DA000C9402010C9402010C9402018D
:100010000C9402010C9402010C9402010C94020154
:100020000C9402010C9402010C9402010C94020144
:100030000C9402010C9402010C9402010C94020134
:100040000C94F8070C9402010C94C6070C94A007BA
:100050000C9402010C9402010C9402010C94020114
:100060000C9442080C94020100407A10F35A00A04C
:10007000724E18090010A5D4E80000E87648170071
:1000800000E40B54020000CA9A3B000000E1F505B1
:10009000000080969800000040420F000000A086FB
:1000A00001000000102700000000E803000000002D
:1000B0006400000000000A000000000001000000D1
:1000C00000002C76D888DC674F0823DFC1DFAE59EB
:1000D000E1B1B796E5E3E453C63AE651997696E87E
:1000E000E6C28426EB898C9B62ED407C6FFCEFBC02
:1000F0009C9F40F2BAA56FA5F490055A2AF75C932D
:100100006B6CF9676DC11BFCE0E40D47FEF520E662
:10011000B500D0ED902E0300943577050080841E45
:10012000080000204E0A000000C80C333333330FA0
:10013000986E12831141EF8D2114893BE65516CF3D
:10014000FEE6DB18D1844B381BF77C1D901DA4BB49
:10015000E424203284725E228100C9F124ECA1E5FE
:100160003D2700000000240027002A0000000000B6
:10017000250028002B0004040404040404040202E3
:100180000202020203030303030301020408102016
:100190004080010204081020010204081020000021
:1001A0000008000201000003040700000000000036
:1001B0000000610911241FBECFEFD8E0DEBFCDBF24
:1001C00022E0A2E4B1E001C01D92A33AB207E1F738
:1001D00011E0A0E0B1E0EAE7F7E202C005900D927D
:1001E000A234B107D9F710E0CAEDD0E004C02197DE
:1001F000FE010E94C311C93DD107C9F70E949A09A7
:100200000C94BB130C9400000895CF93DF93AC01C2
:10021000E091E301F091E4013097F1F09091E20177
:100220008091E1019817C0F090E0292F30E0261767
:10023000370754F4D901AE5BBE4F240F351FE901D7
:1002400028812C939F5FF1CF1092E2016093E1012E
:10025000CB01DF91CF910994DF91CF910895AF92B7
:10026000BF92CF92DF92EF92FF920F931F93CF93A3
:10027000DF936C017B018B01040F151FEB015E0105
:10028000AE18BF08C017D10759F06991D601ED919A
:10029000FC910190F081E02DC6010995892B79F739
:1002A000C501DF91CF911F910F91FF90EF90DF90EB
:1002B000CF90BF90AF900895FC01538D448D252FB2
:1002C00030E0842F90E0821B930B541710F0CF96F0
:1002D000089501970895FC01918D828D981761F022
:1002E000A28DAE0FBF2FB11D5D968C91928D9F5F39
:1002F0009F73928F90E008958FEF9FEF0895FC0118
:10030000918D828D981731F0828DE80FF11D858DCA
:1003100090E008958FEF9FEF0895FC01918D228D5D
:10032000892F90E0805C9F4F821B91098F739927E2
:10033000089586EF91E00E948D0121E0892B09F458
:1003400020E0822F0895FC01A48DA80FB92FB11DC4
:10035000A35ABF4F2C91848D90E001968F739927FB
:10036000848FA689B7892C93A089B1898C918370D9
:1003700080648C93938D848D981306C00288F389D2
:10038000E02D80818F7D80830895EF92FF920F93FF
:100390001F93CF93DF93EC0181E0888F9B8D8C8D31
:1003A00098131AC0E889F989808185FF15C09FB725
:1003B000F894EE89FF896083E889F98980818370E8
:1003C000806480839FBF81E090E0DF91CF911F9197
:1003D0000F91FF90EF900895F62E0B8D10E00F5FB8
:1003E0001F4F0F731127E02E8C8D8E110CC00FB68E
:1003F00007FCFACFE889F989808185FFF5CFCE0126
:100400000E94A301F1CFEB8DEC0FFD2FF11DE35AFC
:10041000FF4FF0829FB7F8940B8FEA89FB898081A8
:100420008062CFCFCF93DF93EC01888D8823B9F022
:10043000AA89BB89E889F9898C9185FD03C08081EF
:1004400086FD0DC00FB607FCF7CF8C9185FFF2CF6C
:10045000808185FFEDCFCE010E94A301E9CFDF911E
:10046000CF91089590E0FC01E256FE4F2491FC01EB
:10047000E657FE4F3491FC01EA58FE4FE491EE231B
:10048000C9F0222339F0233001F1A8F4213019F109
:10049000223029F1F0E0EE0FFF1FE459FE4FA59145
:1004A000B4918FB7F894EC91611126C030953E233A
:1004B0003C938FBF08952730A9F02830C9F024302D
:1004C00049F7809180008F7D03C0809180008F77F5
:1004D00080938000DFCF84B58F7784BDDBCF84B578
:1004E0008F7DFBCF8091B0008F778093B000D2CF0B
:1004F0008091B0008F7DF9CF3E2BDACFCF93DF9381
:1005000090E0FC01E657FE4F24918A589E4FFC0173
:1005100084918823D1F090E0880F991FFC01EE5957
:10052000FE4FA591B491FC01E459FE4FC591D491C1
:1005300061110EC09FB7F8948C91E22FE0958E2345
:100540008C932881E223E8839FBFDF91CF910895A8
:100550008FB7F894EC91E22BEC938FBFF6CF2FB7C7
:10056000F8946091D7017091D8018091D901909150
:10057000DA012FBF08950F931F930E94AF0260937B
:10058000FE017093FF01809300029093010286EFB9
:1005900091E00E947F0197FF1DC00E94AF02009171
:1005A000FE011091FF012091000230910102601BB9
:1005B000710B820B930B0091FA011091FB012091BA
:1005C000FC013091FD016017710782079307F8F273
:1005D0008FEF9FEF1F910F9108958F929F92AF928F
:1005E000BF92CF92DF92EF92FF92CF93DF930E9460
:1005F000BB02FC0197FD88C08D32910509F04CC00B
:10060000812C912C80E8A82E8FE3B82EC12CD12C00
:100610007601C0E0D0E0E130F10559F1ED32F105AD
:1006200009F447C0EE32F10509F445C0CF01C09787
:100630000A97F8F4AAE0B0E0A70196010E943D10E5
:100640006F01FF0FEE08FF08C60ED71EE81EF91E49
:1006500080E3C81AD108E108F108CC2351F02DEC51
:100660003CEC4CEC5DE3C501B4010E947F0F4B01F3
:100670005C0186EF91E00E946B010E94BB02FC01CD
:10068000C0970A9740F2EE32F105B9F4CC2319F283
:10069000CD2FD11118C025C0C0970A9708F4B0CF4C
:1006A000EE32F10509F4ACCF86EF91E00E946B01C8
:1006B0009ECFD1E0DECFC1E0DCCFE130F10509F41F
:1006C000AACFDD2341F0F094E094D094C094C11CF3
:1006D000D11CE11CF11CC701B6010E94200FCC23E4
:1006E00041F0C701B6010E94200FA50194010E94AC
:1006F0007F0FDF91CF91FF90EF90DF90CF90BF9071
:10070000AF909F908F90089560E070E0CB01F1CFA3
:1007100020918801260F3327331F21323105ECF455
:100720002091AC01FC0190E080E0243069F082E08F
:100730000895A09188012191AC0148595E4FA40F02
:10074000B52FB11D2C930196861798F380918801DF
:10075000680F6093880180E0089581E00895109209
:10076000AC0181E08093AE011092AD0161E082E1C5
:100770000E94320261E083E10E943202E9EBF0E084
:1007800080818E7F808380818D7F808388E48093C9
:10079000B80085E48093BC0008950895E091E201DB
:1007A0008091E101E81730F4F0E0EE5BFE4F8081CC
:1007B00090E008958FEF9FEF08959091E20180916E
:1007C000E1012FEF3FEF981748F4E92FF0E0EE5BDF
:1007D000FE4F208130E09F5F9093E201C9010895B0
:1007E0008091E1019091E201891B990B0895CF93CB
:1007F000DF93CB01EA01642F0E948803CE01DF91D1
:10080000CF910895CF93DF931F92CDB7DEB7698361
:1008100061E0CE0101960E94880381E090E00F9094
:10082000DF91CF91089590E080E008958F929F929C
:10083000AF92BF920F931F93CF93DF93CDB7DEB7E5
:10084000A1970FB6F894DEBF0FBECDBF19A24230FC
:1008500008F44AE08E010F5D1F4F842E912CB12CBD
:10086000A12CA50194010E94A111E62FB901CA0192
:10087000EA3044F5E05DD801EE938D01232B242B63
:10088000252B79F790E080E0109769F0FD01019049
:100890000020E9F73197AF014A1B5B0BBD0186EFE2
:1008A00091E00E942F01A1960FB6F894DEBF0FBE13
:1008B000CDBFDF91CF911F910F91BF90AF909F90CF
:1008C0008F900895E95CD7CF42E050E06CE371E08F
:1008D00086EF91E00C942F01EF92FF920F931F93FC
:1008E000CF93DF93CDB7DEB72A970FB6F894DEBF6C
:1008F0000FBECDBF8E010F5F1F4F78019091E101B8
:100900008091E201981749F083E992E00E94DD03AB
:10091000F80181938F011082F1CFC7010E94870CEB
:100920009093F2018093F1010E94AF022091E501C2
:100930003091E601621B730B7093EC016093EB0145
:100940000E94AF027093E6016093E50181E080931D
:10095000F5012A960FB6F894DEBF0FBECDBFDF912A
:10096000CF911F910F91FF90EF9008950F931F93D8
:10097000CF93DF93EC0188819981009759F02A8108
:100980003B812617370730F081E0DF91CF911F912F
:100990000F9108958B016F5F7F4F0E94EE120097B9
:1009A00059F0998388831B830A832C813D81232BF3
:1009B00059F7FC011082E8CF80E0E7CFCF93DF93B7
:1009C000EC0188819981009711F00E9465121982CB
:1009D00018821D821C821B821A82DF91CF9108959A
:1009E0000F931F93CF93DF93EC010C811D810F5F59
:1009F0001F4FB8010E94B604882391F028813981E5
:100A00008C819D816FE371E0820F931F0E94B4136C
:100A10001D830C83CE01DF91CF911F910F9108951B
:100A2000CE010E94DE04F6CFEF92FF920F931F9348
:100A3000CF93DF938C017B01EB0109900020E9F754
:100A40002197C61BD70BBE010E94B604811109C0B5
:100A5000C801DF91CF911F910F91FF90EF900C94FF
:100A6000DE04F801D583C483B70180819181DF91D1
:100A7000CF911F910F91FF90EF900C94B4130F93AF
:100A80001F93CF93DF93CDB7DEB762970FB6F8947D
:100A9000DEBF0FBECDBF8C01CB01F80111821082E9
:100AA00013821282158214824AE0BE016F5F7F4F6B
:100AB0000E94A50CBE016F5F7F4FC8010E94140504
:100AC00062960FB6F894DEBF0FBECDBFDF91CF9117
:100AD0001F910F910895EF92FF920F931F93CF9361
:100AE000DF93CDB7DEB7A1970FB6F894DEBF0FBE88
:100AF000CDBF7C01CB01BA01F701118210821382B4
:100B00001282158214828E010F5F1F4F22E044E093
:100B10000E94690C009789F0BC01C7010E9414056E
:100B2000A1960FB6F894DEBF0FBECDBFDF91CF9177
:100B30001F910F91FF90EF900895C7010E94DE046E
:100B4000EFCFEF92FF920F931F93CF93DF93EC01C0
:100B5000FB01E080F180E114F10411F104811581C1
:100B600001151105A9F08C819D81080F191FB8018D
:100B7000CE010E94B604882399F0288139818C81A6
:100B80009D81B701820F931F0E94B4131D830C83B4
:100B9000CE01DF91CF911F910F91FF90EF900895BB
:100BA000CE010E94DE04F4CFFC0180819181009788
:100BB00011F00C9465120895CF93DF9385ED809327
:100BC000BC008091640190916501A0916601B09193
:100BD00067010796A11DB11D23E0B695A7959795CE
:100BE00087952A95D1F72091BC0024FD03C010926F
:100BF000AC0136C04091640150916501609166017D
:100C000070916701452B462B472B69F30097A1058F
:100C1000B10541F025E32A95F1F700000197A109FC
:100C2000B109E1CF8091630191E090936201882343
:100C3000B9F0C091B800D091BA008091BC008A7B15
:100C40008093BC0060E082E10E94320260E083E1B8
:100C50000E9432020E94AF03D093BA00C093B80042
:100C6000DF91CF910895CF92DF92EF92FF921F9381
:100C7000CF93DF93CDB7DEB7EB970FB6F894DEBF17
:100C80000FBECDBF0E94BB02FC0197FD47C18D3254
:100C9000910521F0C0970A9708F039C1C12CD12CD9
:100CA000760110E0E130F105D9F0ED32F10509F4FB
:100CB00033C1CF01C0970A9798F4AAE0B0E0A7012A
:100CC00096010E943D106F01FF0FEE08FF08C60E4F
:100CD000D71EE81EF91E80E3C81AD108E108F10802
:100CE00086EF91E00E946B010E94BB02FC01C0975D
:100CF0000A97C0F2E130F105A9F2112341F0F09416
:100D0000E094D094C094C11CD11CE11CF11CD09281
:100D1000F401C092F3010E94ED0260930C01709304
:100D20000D0180930E0190930F010E94ED026093DC
:100D300008017093090180930A0190930B010E94AE
:100D4000ED02609300017093010180930201909382
:100D500003010E94ED0260930401709305018093EA
:100D600006019093070140910401509105016091A3
:100D7000060170910701CE01C6960E946B05409155
:100D80000001509101016091020170910301CE01B7
:100D9000C0960E946B054091080150910901609135
:100DA0000A0170910B01CE018A960E946B05409159
:100DB0000C0150910D0160910E0170910F01CE0157
:100DC00084960E946B056091F3017091F401CE014D
:100DD0004E960E943F056091F1017091F201CE01A3
:100DE00048960E943F058091EB019091EC011B8A8F
:100DF0001A8A1D8A1C8A1F8A1E8A4AE0BE016F5FFA
:100E00007F4F0E94B80CBE016F5F7F4FCE014296AC
:100E10000E9414051A8219821C821B821E821D8266
:100E2000EA88FB88E114F10469F0CE88DF88B60116
:100E3000CE0101960E94B604811174C0CE010196C4
:100E40000E94DE04CE0101960E94F004BE01685E9D
:100E50007F4F0E94A1050E94F004BE01625E7F4F99
:100E60000E94A1050E94F004BE016C5D7F4F0E94AC
:100E7000A1050E94F004BE01665D7F4F0E94A1059E
:100E80000E94F004BE01605D7F4F0E94A1050E9498
:100E9000F004BE016A5C7F4F0E94A105FC01448101
:100EA00055816081718186EF91E00E942F010E943F
:100EB0006404CE0101960E94D405CE0142960E94A0
:100EC000D405CE0148960E94D405CE014E960E94CC
:100ED000D405CE0184960E94D405CE018A960E9444
:100EE000D405CE01C0960E94D405CE01C6960E94BC
:100EF000D405EB960FB6F894DEBF0FBECDBFDF91E1
:100F0000CF911F91FF90EF90DF90CF90089586EFE3
:100F100091E00E946B01B6CE11E0E2CEC12CD12C43
:100F20007601F5CEDE82CD82B70189819A810E9459
:100F3000B41388CF0E94990181110C94330608954F
:100F40001F920F920FB60F9211242F933F934F933E
:100F50005F936F937F938F939F93AF93BF93EF9321
:100F6000FF9386EF91E00E94A301FF91EF91BF9163
:100F7000AF919F918F917F916F915F914F913F9131
:100F80002F910F900FBE0F901F9018951F920F92E8
:100F90000FB60F9211242F938F939F93EF93FF938C
:100FA000E0910602F09107028081E0910C02F0913D
:100FB0000D0282FD1BC0908180910F028F5F8F73A5
:100FC00020911002821741F0E0910F02F0E0EA5008
:100FD000FE4F958F80930F02FF91EF919F918F911C
:100FE0002F910F900FBE0F901F9018958081F4CF16
:100FF0001F920F920FB60F9211242F933F938F934E
:101000009F93AF93BF938091D7019091D801A09106
:10101000D901B091DA013091D60123E0230F2D37A9
:1010200058F50196A11DB11D2093D6018093D701DB
:101030009093D801A093D901B093DA018091D201A5
:101040009091D301A091D401B091D5010196A11D39
:10105000B11D8093D2019093D301A093D401B0939A
:10106000D501BF91AF919F918F913F912F910F909B
:101070000FBE0F901F90189526E8230F0296A11D12
:10108000B11DD2CF1F920F920FB60F9211242F9342
:101090003F934F935F936F937F938F939F93AF9300
:1010A000BF93EF93FF938091B900887F803609F456
:1010B0004AC0F0F5883209F4A7C018F5803109F468
:1010C0009BC0B8F4882309F4F9C0883009F494C0AF
:1010D000FF91EF91BF91AF919F918F917F916F9110
:1010E0005F914F913F912F910F900FBE0F901F90E6
:1010F0001895883109F488C0803251F78093AB018C
:1011000014C0803409F49DC040F48033B9F38833AF
:10111000F9F68093AB0185ECB0C0803509F485C049
:10112000883509F496C0883499F60E94DC05D0CF42
:10113000883909F48CC038F5883729F050F488369E
:1011400011F0803729F683E08093AC011092AA0158
:1011500057C0883809F47BC0803919F0803809F00D
:10116000B7CF8091AA01803208F071C0E091AA0146
:1011700081E08E0F8093AA018091BB00F0E0E657DA
:10118000FE4F80833DC0803B39F0E0F4803A09F4A3
:1011900079C0883A09F09CCF84E08093AC0110922A
:1011A000890110928801E091DD01F091DE0109953D
:1011B0008091880181110FC081E080938801109295
:1011C000680109C0803C09F4A6CF883C09F4A3CF8C
:1011D000883B09F07DCFE091890181E08E0F8093FB
:1011E0008901F0E0E859FE4F80818093BB00909127
:1011F00089018091880129C08091D1018093BB0031
:1012000085EC8093BC0064CF9091D0018091CF0198
:10121000981758F5E091D00181E08E0F8093D001AE
:10122000F0E0E155FE4F8081E9CFE091D00181E00F
:101230008E0F8093D0018091BB00F0E0E155FE4F0E
:1012400080839091D0018091CF019817C8F285E8F2
:10125000D8CFE091D00181E08E0F8093D0018091B2
:10126000BB00F0E0E155FE4F80838091AE0181111B
:101270005CCF81E08093AD0184EA8093BC00109242
:10128000AC0126CF85EC8093BC001092AC0180911C
:10129000AA01803230F4E091AA01F0E0E657FE4F57
:1012A00010826091AA0170E0E091DB01F091DC0115
:1012B0008AE891E009951092AA010ACF1092AB0139
:1012C00034CFE6EFF1E01382128288EE93E0A0E0E3
:1012D000B0E084839583A683B7832CE131E031832A
:1012E000208325EC30E03587248724EC30E03787F5
:1012F000268720EC30E0318B208B21EC30E0338BE3
:10130000228B22EC30E0358B248B26EC30E0378BBF
:10131000268B118E128E138E148EE3E9F2E0138267
:10132000128284839583A683B7838EE291E09183B2
:1013300080830895CF93DF93CDB7DEB762970FB662
:10134000F894DEBF0FBECDBF789484B5826084BDB3
:1013500084B5816084BD85B5826085BD85B58160B9
:1013600085BD80916E00816080936E001092810037
:1013700080918100826080938100809181008160F2
:1013800080938100809180008160809380008091B3
:10139000B10084608093B1008091B000816080933F
:1013A000B00080917A00846080937A0080917A0006
:1013B000826080937A0080917A00816080937A00C5
:1013C00080917A00806880937A001092C10060E07A
:1013D00084E10E947E0261E089E00E947E0261E079
:1013E0008AE00E947E02E0910602F091070282E00C
:1013F0008083E0910202F09103021082E0910402E6
:10140000F0910502108210920E02E0910A02F09112
:101410000B0286E08083E0910802F091090280814E
:1014200080618083E0910802F091090280818860E8
:101430008083E0910802F0910902808180688083B6
:10144000E0910802F091090280818F7D808386E41B
:1014500080937C0080917A00806480937A008091F0
:101460007A0086FDFCCF9091780080917900382F2A
:10147000292F61E070E080E090E0253631051CF412
:1014800060E070E0CB014AE00E9416040E94640410
:101490000E94AF027093E6016093E5011092E201B1
:1014A0001092E1011092E0011092DF010E94AF035F
:1014B00084E091E09093DE018093DD0185E091E08E
:1014C0009093DC018093DB0182E08093BA008CE68C
:1014D00094E09093E4018093E30182EA809380009A
:1014E00082E18093810080E29EE490938700809364
:1014F0008600189B05C01092890010928800F9CFD1
:101500008091F501882309F456C11092F50160918C
:10151000100170911101072E000C880B990B0E948D
:10152000200F21EE3AE344E253E40E948E102DE3B3
:101530003CE244E55DEB0E94FB100E946D117A8B4A
:10154000698B6091F3017091F4018091F1019091A8
:10155000F201681B790B072E000C880B990B0E9477
:10156000200F2B013C0120910C0130910D01409185
:101570000E0150910F010E947F0F6D837E838F8338
:1015800098872091ED013091EE014091EF0150914B
:10159000F0010091EB011091EC01C0900801D09096
:1015A0000901E0900A01F0900B01C301B2010E9411
:1015B0008E104B015C01B80190E080E00E941E0F8C
:1015C00020E030E04AE754E40E94FB109B01AC01AC
:1015D000C501B4010E94FB10A70196010E947F0F74
:1015E00069877A878B879C874092ED015092EE0144
:1015F0006092EF017092F0018091040190910501D9
:10160000A0910601B09107019C01AD0150582983BA
:101610003A834B835C836091EB017091EC01C09045
:101620000001D0900101E0900201F0900301809050
:10163000E7019090E801A090E901B090EA01809163
:10164000040190910501A0910601B09107018D87D9
:101650009E87AF87B88B90E080E00E941E0F20E04D
:1016600030E04AE754E40E94FB10A70196010E9473
:101670007F0FA30192010E947F0FA50194010E9498
:101680008F102D853E854F8558890E94190F87FF41
:101690009AC06091EB017091EC01809000019090F4
:1016A0000101A0900201B0900301C090E701D09029
:1016B000E801E090E901F090EA0190E080E00E940A
:1016C0001E0F20E030E04AE754E40E94FB10A50121
:1016D00094010E947F0FA30192010E947F0FA70136
:1016E00096010E948F109B01AC0169817A818B81E8
:1016F0009C810E949C1118160CF06EC06091040130
:1017000070910501809106019091070190586093B6
:10171000E7017093E8018093E9019093EA01209139
:10172000E7013091E8014091E9015091EA016D81B2
:101730007E818F8198850E948F1029853A854B85FF
:101740005C850E948F1020E030E84AEB54E40E9450
:101750008F100E946D11683B35E0730708F4AEC02E
:101760008091F3019091F401181619060CF0A6C0AF
:10177000653D45E0740708F4A4C06B3A57E075076F
:1017800010F06BEA77E089899A898434A4E09A079B
:1017900008F49AC08D3E964020F02DEE36E03A8B4C
:1017A000298B709389006093880089899A89909326
:1017B0008B0080938A000E949901882309F4A0CEAF
:1017C0000E9433069DCE2091040130910501409185
:1017D00006015091070189CF6091EB017091EC01F6
:1017E00020910001309101014091020150910301CB
:1017F00029833A834B835C838090E7019090E801D2
:10180000A090E901B090EA01C0900401D0900501D8
:10181000E0900601F090070190E080E00E941E0F2A
:1018200020E030E04AE754E40E94FB1029813A812D
:101830004B815C810E947F0FA30192010E947F0F68
:10184000A50194010E948F10A70196010E94190F13
:1018500087FF2BC06091EB017091EC01809000013B
:1018600090900101A0900201B0900301C090E701A7
:10187000D090E801E090E901F090EA0190E080E08A
:101880000E941E0F20E030E04AE754E40E94FB1063
:10189000A50194010E947F0FA30192010E947F0F76
:1018A000A70196010E948F1032CF609104017091C0
:1018B0000501809106019091070129CF67EB75E042
:1018C00062CF64ED75E05FCF43E454E05A8B498BFF
:1018D00068CFEF920F931F93CF93DF93E80134E02B
:1018E00047FD34E1042E000C550B57FF03C0519502
:1018F00041955109E32E022F242FAE010E94D20CF4
:10190000CE01DF91CF911F910F91EF900895FC01CF
:1019100088279927E89421912032E9F3293010F0A3
:101920002E30C8F32B3241F02D3239F4689404C0C4
:101930000E94B00C820F911D219120532A30C0F3D8
:101940001EF4909581959F4F0895BB274A3031F43E
:10195000992322F4BDE2909581959F4F0C94B90C88
:101960007AE0979F902D879F802D910D11240895E7
:10197000BB27FB015527AA27880F991FAA1FA41769
:1019800010F0A41B83955051B9F7A05DAA3308F05D
:10199000A95DA193009779F7B111B1931192CB0191
:1019A0000C94090FA9E0B0E0E8EDFCE00C944E10B7
:1019B0006A01F22EB02E102FFBE3AF2EA01608F412
:1019C0001BE31F5F012F27E0AE014F5F5F4F0E94B7
:1019D000310EBC018981982F9970913009F43FC074
:1019E0009BE2E1FC04C09E2D9170E0FC3AC05E2DAC
:1019F0005071E82FE87083FF46C084E0911101C068
:101A000083E0EF2DE81B8F1508F0E0E0D6018E2F64
:101A100020E2552351F1992329F0D6019C93C60168
:101A200001966C0196012D5F3F4FE2FE24C08EE4CB
:101A3000D6018C9391E411969C93119712968C93F6
:101A4000D9018E2F90E281111BC0E20FF32FF11DFF
:101A500010828EEF9FEF2996ECE00C946A109DE2C5
:101A6000C6CF90E2C4CF2D9381508111FCCFCE0E12
:101A7000D11CE0E0D0CF8EE6D6018C9391E6DBCF8F
:101A80009D938150E0CF482F447082FF3DC084E099
:101A9000911101C083E08F1510F4EF2DE81BD601E2
:101AA0008E2F20E2552309F1992329F0D6019C932A
:101AB000C60101966C0196012D5F3F4FE2FE1BC0EF
:101AC00089E4D6018C938EE411968C93119786E469
:101AD00012968C93D9018E2F90E2882309F4B5CF0A
:101AE0009D938150FACF2D9381508111FCCFCE0E62
:101AF000D11CE0E0D9CF89E6D6018C938EE6119611
:101B00008C93119786E6E4CF9B0177FF02C030E00B
:101B100020E0A1E0B0E0911102C0B0E0A0E0F90146
:101B20003196AE0FBF1F8B2C912CBB2009F461C0E6
:101B30005401EFEFAE1ABE0AAA0DBB1DFA161B0622
:101B400019F014F04F2D4A1B511188C0E3FC59C005
:101B50007601A42FB0E2A1114FC0C40ED11C99236D
:101B600009F45BC040E0D6011196F60190836D0147
:101B7000552309F448C0012F060F9A81582F507140
:101B800084FF03C0913309F4015010160CF047C0D4
:101B9000093008F008E0EEE2FE2E5B01A01AB10861
:101BA00085019194819491082F3F320729F4D60141
:101BB000FC92F60131966F016217730794F10217D8
:101BC00013077CF5DB01A21BB30BAA24A394B12C51
:101BD000AC0EBD1EAA0DBB1D11968C912150310972
:101BE000D601119628153905F4F0F60180836D01B0
:101BF000DBCFB12CA12CA0CFF701B1937F01A15075
:101C0000AACF9111B0CFD601942F50E302C05D93BB
:101C100091509111FCCFC40ED11C40E0ACCF01E03B
:101C2000BACF80E3DBCF6217730731F4963388F4C1
:101C3000953311F4552369F0F6018083FD01842F5B
:101C400090E2811108C0A40FB11D1C9290E080E0C9
:101C500002CF81E3F1CF91938150F3CF911183CFE4
:101C60008ACF283008F027E03327DA01990F311D99
:101C700087FD916000966105710539F432602E5F31
:101C80003D9330E32A95E1F708959F3F30F0803887
:101C90007105610509F03C5F3C5F3D93913008F0B0
:101CA0008068911DDF93CF931F930F93FF92EF9264
:101CB000192F987F9695E92F96959695E90FFF270E
:101CC000EE53FF4F99273327EE24FF24A701E701A6
:101CD00005900894079428F4360FE71EF81E491F54
:101CE000511D660F771F881F991F0694A1F7059055
:101CF000079428F4E70EF81E491F561FC11D770FE1
:101D0000881F991F661F0694A1F70590079428F471
:101D1000F80E491F561FC71FD11D880F991F661F38
:101D2000771F0694A1F70590079420F4490F561FDA
:101D3000C71FD81F990F661F771F881F0694A9F722
:101D400084911095177041F0D695C7955795479592
:101D5000F794E7941A95C1F7E8E6F0E068941590D7
:101D6000159135916591959105907FE27395E118F4
:101D7000F10A430B560BC90BD009C0F7E10CF11E59
:101D8000431F561FC91FD01D7EF4703311F48A956E
:101D9000E6CFE894015030F0080F0AF4002702174C
:101DA00008F4202F2395022F7A3328F079E37D93CE
:101DB0002A95E9F710C07D932A9589F606949795A0
:101DC0006795379517951794E118F10A430B560B51
:101DD000C90BD00998F023957E9173957A3308F05A
:101DE00070E37C932013B8F77E9170617D9330F09F
:101DF000839571E37D9370E32A95E1F71124EF90C9
:101E0000FF900F911F91CF91DF91992787FD9095BA
:101E10000895DC01FC01672F71917723E1F7329778
:101E200004C07C916D9370836291AE17BF07C8F3B5
:101E300008950E945B0F08F481E00895E89409C0BA
:101E400097FB3EF490958095709561957F4F8F4FED
:101E50009F4F9923A9F0F92F96E9BB279395F69503
:101E6000879577956795B795F111F8CFFAF4BB0F81
:101E700011F460FF1BC06F5F7F4F8F4F9F4F16C0E5
:101E8000882311F096E911C0772321F09EE8872F6F
:101E9000762F05C0662371F096E8862F70E060E02B
:101EA0002AF09A95660F771F881FDAF7880F9695A4
:101EB000879597F90895990F0008550FAA0BE0E848
:101EC000FEEF16161706E807F907C0F012161306FC
:101ED000E407F50798F0621B730B840B950B39F43C
:101EE0000A2661F0232B242B252B21F408950A26A2
:101EF00009F4A140A6958FEF811D811D08950E94D0
:101F0000920F0C9403100E94F50F38F00E94FC0F02
:101F100020F0952311F00C94EC0F0C94F20F112487
:101F20000C9437100E94141070F3959FC1F3950F15
:101F300050E0551F629FF001729FBB27F00DB11D4D
:101F4000639FAA27F00DB11DAA1F649F6627B00DDD
:101F5000A11D661F829F2227B00DA11D621F739FC6
:101F6000B00DA11D621F839FA00D611D221F749FD4
:101F70003327A00D611D231F849F600D211D822F1B
:101F8000762F6A2F11249F5750409AF0F1F0882342
:101F90004AF0EE0FFF1FBB1F661F771F881F91506F
:101FA0005040A9F79E3F510580F00C94EC0F0C9423
:101FB00037105F3FE4F3983ED4F3869577956795A5
:101FC000B795F795E7959F5FC1F7FE2B880F911D99
:101FD0009695879597F9089597F99F6780E870E03F
:101FE00060E008959FEF80EC089500240A9416168F
:101FF000170618060906089500240A9412161306F7
:10200000140605060895092E0394000C11F4882384
:1020100052F0BB0F40F4BF2B11F460FF04C06F5FA0
:102020007F4F8F4F9F4F089557FD9058440F551F76
:1020300059F05F3F71F04795880F97FB991F61F04A
:102040009F3F79F087950895121613061406551FC1
:10205000F2CF4695F1DF08C0161617061806991F2D
:10206000F1CF86957105610508940895E894BB2722
:1020700066277727CB0197F908950E947F10A59FC7
:10208000900DB49F900DA49F800D911D1124089573
:102090002F923F924F925F926F927F928F929F9278
:1020A000AF92BF92CF92DF92EF92FF920F931F9366
:1020B000CF93DF93CDB7DEB7CA1BDB0B0FB6F89417
:1020C000DEBF0FBECDBF09942A88398848885F8457
:1020D0006E847D848C849B84AA84B984C884DF80C8
:1020E000EE80FD800C811B81AA81B981CE0FD11DAC
:1020F0000FB6F894DEBF0FBECDBFED010895A29FCD
:10210000B001B39FC001A39F700D811D1124911DCB
:10211000B29F700D811D1124911D08955058BB2749
:10212000AA270E94A6100C9403100E94F50F38F005
:102130000E94FC0F20F039F49F3F19F426F40C9410
:10214000F20F0EF4E095E7FB0C94EC0FE92F0E94E0
:10215000141058F3BA17620773078407950720F025
:1021600079F4A6F50C9436100EF4E0950B2EBA2FE8
:10217000A02D0B01B90190010C01CA01A00111248D
:10218000FF27591B99F0593F50F4503E68F11A1639
:10219000F040A22F232F342F4427585FF3CF4695CA
:1021A00037952795A795F0405395C9F77EF41F16EC
:1021B000BA0B620B730B840BBAF09150A1F0FF0FB6
:1021C000BB1F661F771F881FC2F70EC0BA0F621FA2
:1021D000731F841F48F4879577956795B795F79592
:1021E0009E3F08F0B0CF9395880F08F09927EE0F27
:1021F0009795879508950E940F110C9403100E94E3
:10220000FC0F58F00E94F50F40F029F45F3F29F0D1
:102210000C94EC0F51110C9437100C94F20F0E9497
:10222000141068F39923B1F3552391F3951B550BC3
:10223000BB27AA2762177307840738F09F5F5F4F99
:10224000220F331F441FAA1FA9F335D00E2E3AF0D8
:10225000E0E832D091505040E695001CCAF72BD0F0
:10226000FE2F29D0660F771F881FBB1F2617370741
:102270004807AB07B0E809F0BB0B802DBF01FF2773
:1022800093585F4F3AF09E3F510578F00C94EC0F55
:102290000C9437105F3FE4F3983ED4F3869577951E
:1022A0006795B795F7959F5FC9F7880F911D96952C
:1022B000879597F90895E1E0660F771F881FBB1F88
:1022C000621773078407BA0720F0621B730B840B35
:1022D000BA0BEE1F88F7E09508950E941C1088F055
:1022E0009F5798F0B92F9927B751B0F0E1F0660FDA
:1022F000771F881F991F1AF0BA95C9F714C0B1301B
:1023000091F00E943610B1E008950C943610672FBA
:10231000782F8827B85F39F0B93FCCF38695779549
:102320006795B395D9F73EF4909580957095619532
:102330007F4F8F4F9F4F08950E945B0F08F48FEFE0
:102340000895A1E21A2EAA1BBB1BFD010DC0AA1FF6
:10235000BB1FEE1FFF1FA217B307E407F50720F00E
:10236000A21BB30BE40BF50B661F771F881F991F89
:102370001A9469F760957095809590959B01AC01D2
:10238000BD01CF010895EE0FFF1F0590F491E02DE0
:1023900009940F931F93CF93DF938230910510F42C
:1023A00082E090E0E091A102F091A20230E020E012
:1023B000B0E0A0E0309799F42115310509F44AC046
:1023C000281B390B24303105D8F58A819B81611592
:1023D000710589F1FB0193838283FE0111C0408165
:1023E00051810281138148175907E0F048175907B6
:1023F00099F4109761F012960C93129713961C9310
:102400003296CF01DF91CF911F910F9108950093E4
:10241000A1021093A202F4CF2115310551F0421709
:10242000530738F0A901DB019A01BD01DF01F80172
:10243000C1CFEF01F9CF9093A2028093A102CDCF3B
:10244000FE01E20FF31F81939193225031093983EA
:102450002883D7CF20919F023091A002232B41F4F3
:1024600020911401309115013093A00220939F0216
:1024700020911201309113012115310541F42DB73E
:102480003EB74091160150911701241B350BE09186
:102490009F02F091A002E217F307A0F42E1B3F0B5E
:1024A0002817390778F0AC014E5F5F4F24173507C6
:1024B00048F04E0F5F1F5093A00240939F028193FC
:1024C00091939FCFF0E0E0E09CCFCF93DF93009714
:1024D000E9F0FC01329713821282A091A102B0911F
:1024E000A202ED0130E020E01097A1F420813181BB
:1024F000820F931F20919F023091A0022817390765
:1025000009F061C0F093A002E0939F02DF91CF91A8
:102510000895EA01CE17DF07E8F54A815B819E0145
:1025200041155105B1F7E901FB83EA8349915991BE
:10253000C40FD51FEC17FD0761F4808191810296CD
:10254000840F951FE90199838883828193819B83FE
:102550008A83F0E0E0E012968D919C9113970097AA
:10256000B9F52D913C911197CD010296820F931FE1
:1025700020919F023091A0022817390739F6309731
:1025800051F51092A2021092A102B093A002A09362
:102590009F02BCCFD383C28340815181840F951F9A
:1025A000C817D90761F44E5F5F4F88819981480F42
:1025B000591F518340838A819B8193838283211594
:1025C000310509F0B0CFF093A202E093A1029ECFB3
:1025D000FD01DC01C0CF13821282D7CFB0E0A0E0B2
:1025E000E4EFF2E10C944A108C01009751F4CB0116
:1025F0000E94C9118C01C801CDB7DEB7E0E10C948F
:102600006610FC01E60FF71F9C0122503109E2170A
:10261000F30708F49DC0D901CD91DC911197C6173D
:10262000D70798F0C530D10530F3CE01049786174F
:10263000970708F3C61BD70B2297C193D1936D93CD
:102640007C93CF010E946512D6CF5B01AC1ABD0A04
:102650004C018C0E9D1EA091A102B091A202512CA2
:10266000412CF12CE12C109731F580919F02909133
:10267000A0028815990509F05CC04616570608F0B7
:1026800058C08091120190911301009741F48DB7C9
:102690009EB74091160150911701841B950BE817C6
:1026A000F90708F055C0F093A002E0939F02F901EA
:1026B00071836083A0CF8D919C91119712966C903D
:1026C000129713967C901397A815B90559F56C01CC
:1026D00042E0C40ED11CCA14DB0420F1AC014A193B
:1026E0005B09DA011296159780F06282738251833A
:1026F0004083D9016D937C93E114F10471F0D7010B
:102700001396FC93EE93129776CF22968C0F9D1F13
:10271000F90191838083F301EFCFF093A202E0935C
:10272000A10269CF4816590608F42C017D01D30196
:102730009ACFCB010E94C9117C01009749F0AE01EC
:10274000B8010E94AB13C8010E946512870153CFE4
:1027500010E000E050CFFB01DC0102C001900D92BF
:1027600041505040D8F70895FB01DC0101900D92D3
:0A2770000020E1F70895F894FFCF70
:10277A00A69B443B0000C842A69BC43BCDCCCC3EA2
:10278A005A000000A302800000000000C5012F01CA
:10279A005C0112028D016B017F010000000002043E
:1027AA00F7031304CD03F003DD03CE030D0A002063
:0227BA0000001D
:00000001FF
