:100000000C945D000C9441040C941A040C94D005DB
:100010000C9419060C9487050C9485000C944006EA
:100020000C9485000C9485000C9485000C9485003C
:100030000C9485000C9485000C9485000C9485002C
:100040000C94D0030C9485000C949E030C947803BC
:100050000C9485000C9485000C9485000C9485000C
:100060000C9468040C948500000000002400270014
:100070002A0000000000250028002B0004040404CE
:100080000404040402020202020203030303030342
:10009000010204081020408001020408102001021F
:1000A00004081020000000080002010000030407FB
:1000B0000000000000000000A20611241FBECFEFC8
:1000C000D8E0DEBFCDBF11E0A0E0B1E0ECE3FBE1A2
:1000D00002C005900D92AA33B107D9F722E0AAE336
:1000E000B1E001C01D92A63BB207E1F710E0CDE5FB
:1000F000D0E004C02197FE010E94BE0ACC35D10792
:10010000C9F70E94DB060C949C0D0C94000090E053
:10011000FC01EC55FF4F2491FC01E057FF4F349157
:10012000FC01E458FF4FE491EE23B1F0222339F0B3
:100130002330E9F090F4213001F1223011F1F0E0A8
:10014000EE0FFF1FEE58FF4FA591B4918FB7F894B3
:10015000EC913E2B3C938FBF08952730A9F02830B7
:10016000C9F0243061F7809180008F7D03C08091B9
:1001700080008F7780938000E2CF84B58F7784BD35
:10018000DECF84B58F7DFBCF8091B0008F778093D9
:10019000B000D5CF8091B0008F7DF9CFCF93DF93A2
:1001A00090E0FC01E057FF4F249184589F4FFC01E1
:1001B00084918823C1F090E0880F991FFC01E859D1
:1001C000FF4FC591D491FC01EE58FF4FA591B4911A
:1001D0009FB7F8948881E22FE0958E2388838C91D5
:1001E000E823EC939FBFDF91CF91089589B182FB03
:1001F000882780F980934C01089508950895AF925F
:10020000BF92CF92DF92EF92FF920F931F93CF9303
:10021000DF936C017B018B01040F151FEB015E0165
:10022000AE18BF08C017D10759F06991D601ED91FA
:10023000FC910190F081E02DC6010995892B79F799
:10024000C501DF91CF911F910F91FF90EF90DF904B
:10025000CF90BF90AF900895FC01538D448D252F12
:1002600030E0842F90E0821B930B541710F0CF9650
:10027000089501970895FC01918D828D981761F082
:10028000A28DAE0FBF2FB11D5D968C91928D9F5F99
:100290009F73928F90E008958FEF9FEF0895FC0178
:1002A000918D828D981731F0828DE80FF11D858D2B
:1002B00090E008958FEF9FEF0895FC01918D228DBE
:1002C000892F90E0805C9F4F821B91098F73992743
:1002D00008958DE092E00E945D0121E0892B09F4F0
:1002E00020E0822F0895FC01A48DA80FB92FB11D25
:1002F000A35ABF4F2C91848D90E001968F7399275C
:10030000848FA689B7892C93A089B1898C91837039
:1003100080648C93938D848D981306C00288F38932
:10032000E02D80818F7D80830895EF92FF920F935F
:100330001F93CF93DF93EC0181E0888F9B8D8C8D91
:1003400098131AC0E889F989808185FF15C09FB785
:10035000F894EE89FF896083E889F9898081837048
:10036000806480839FBF81E090E0DF91CF911F91F7
:100370000F91FF90EF900895F62E0B8D10E00F5F18
:100380001F4F0F731127E02E8C8D8E110CC00FB6EE
:1003900007FCFACFE889F989808185FFF5CFCE0186
:1003A0000E947301F1CFEB8DEC0FFD2FF11DE35A8D
:1003B000FF4FF0829FB7F8940B8FEA89FB89808109
:1003C0008062CFCFCF93DF93EC01888D8823B9F083
:1003D000AA89BB89E889F9898C9185FD03C0808150
:1003E00086FD0DC00FB607FCF7CF8C9185FFF2CFCD
:1003F000808185FFEDCFCE010E947301E9CFDF91AF
:10040000CF9108953FB7F8948091B5019091B601CE
:10041000A091B701B091B80126B5A89B05C02F3FA8
:1004200019F00196A11DB11D3FBFBA2FA92F982F1A
:100430008827BC01CD01620F711D811D911D42E015
:10044000660F771F881F991F4A95D1F70895089561
:1004500085ED8093BC008091BC0084FDFCCF1092A0
:10046000E501089520918D01260F3327331F213296
:100470003105ECF42091E501FC0190E080E02430AE
:1004800069F082E00895A0918D012191AC0143595A
:100490005E4FA40FB52FB11D2C930196861798F3CC
:1004A00080918D01680F60938D0180E0089581E057
:1004B00008950895E091BE018091BD01E81730F4E0
:1004C000F0E0E35BFE4F808190E008958FEF9FEFB7
:1004D00008959091BE018091BD012FEF3FEF9817D5
:1004E00048F4E92FF0E0E35BFE4F208130E09F5FAE
:1004F0009093BE01C90108958091BD019091BE0104
:10050000891B990B0895CF92DF92EF92FF920F9380
:100510001F93CF93DF937C01CB018A0120910902C5
:10052000222389F0EB016B01C40ED51ECC15DD052D
:1005300069F06991D701ED91FC910190F081E02D76
:10054000C7010995F3CF642F0E943202C801DF91E1
:10055000CF911F910F91FF90EF90DF90CF90089572
:10056000CF93DF931F92CDB7DEB769832091090245
:100570002223F9F020910602203258F021E030E0E9
:10058000FC013383228390E080E00F90DF91CF91D4
:10059000089580910702E82FF0E0EA51FE4F99811B
:1005A00090838F5F809307028093060281E090E042
:1005B000ECCF61E0CE0101960E943202F7CF90E0CD
:1005C00080E00895FB0101900020E9F73197AF0129
:1005D000461B570BDC01ED91FC910280F381E02D6D
:1005E00009940F931F93CF93DF93CDB7DEB7C45613
:1005F000D1090FB6F894DEBF0FBECDBF8DE092E0FB
:100600000E945D01BC01892B29F08DE092E00E94DF
:100610003B01F4CF80914A0190914B01892BB1F0BD
:1006200060914A0170914B0190E080E00E94C30903
:100630002DE33CE244E55DEB0E94510A21EE3AE3F2
:1006400044E253E40E94AF080E948D09E0914A0100
:10065000F0914B01409148015091490120910A02CB
:1006600030910B0280914C0181113AC08DE4FF93CF
:10067000EF935F934F937F936F933F932F931F92CB
:100680008F9388E291E09F938F938E010F5F1F4FAE
:100690001F930F930E94C40AB8018DE092E00E945C
:1006A000E20267E371E08DE092E00E94E2021092C4
:1006B0004B0110924A0110924901109248010FB665
:1006C000F894DEBF0FBECDBFCC59DF4F0FB6F89404
:1006D000DEBF0FBECDBFDF91CF911F910F91089567
:1006E00081E4C5CF0E94690181110C94F102089543
:1006F0001F920F920FB60F9211242F933F934F9397
:100700005F936F937F938F939F93AF93BF93EF9379
:10071000FF938DE092E00E947301FF91EF91BF91F2
:10072000AF919F918F917F916F915F914F913F9189
:100730002F910F900FBE0F901F9018951F920F9240
:100740000FB60F9211242F938F939F93EF93FF93E4
:10075000E0911D02F0911E028081E0912302F09150
:10076000240282FD1BC09081809126028F5F8F73CF
:1007700020912702821741F0E0912602F0E0E35F2A
:10078000FD4F958F80932602FF91EF919F918F915E
:100790002F910F900FBE0F901F9018958081F4CF6E
:1007A0001F920F920FB60F9211242F933F938F93A6
:1007B0009F93AF93BF938091B1019091B201A091AB
:1007C000B301B091B4013091B00123E0230F2D3774
:1007D00058F50196A11DB11D2093B0018093B10180
:1007E0009093B201A093B301B093B4018091B5018D
:1007F0009091B601A091B701B091B8010196A11DE9
:10080000B11D8093B5019093B601A093B701B09349
:10081000B801BF91AF919F918F913F912F910F9010
:100820000FBE0F901F90189526E8230F0296A11D6A
:10083000B11DD2CF1F920F920FB60F9211242F939A
:100840003F934F935F936F937F938F939F93AF9358
:10085000BF93EF93FF93E0910201F091030109959B
:10086000FF91EF91BF91AF919F918F917F916F9188
:100870005F914F913F912F910F900FBE0F901F905E
:1008800018951F920F920FB60F9211242F933F933A
:100890004F935F936F937F938F939F93AF93BF9388
:1008A000EF93FF93E0910001F09101010995FF9111
:1008B000EF91BF91AF919F918F917F916F915F91D8
:1008C0004F913F912F910F900FBE0F901F90189551
:1008D0001F920F920FB60F9211242F933F934F93B5
:1008E0005F936F937F938F939F93AF93BF93EF9398
:1008F000FF938091B900887F803609F44AC0F0F5F3
:10090000883209F4A7C018F5803109F49BC0B8F407
:10091000882309F4F9C0883009F494C0FF91EF915D
:10092000BF91AF919F918F917F916F915F914F9107
:100930003F912F910F900FBE0F901F901895883107
:1009400009F488C0803251F78093E30114C08034E9
:1009500009F49DC040F48033B9F38833F9F68093ED
:10096000E30185ECB0C0803509F485C0883509F411
:1009700096C0883499F60E942802D0CF883909F4AD
:100980008CC038F5883729F050F4883611F080375C
:1009900029F683E08093E5011092AF0157C08838B3
:1009A00009F47BC0803919F0803809F0B7CF809105
:1009B000AF01803208F071C0E091AF0181E08E0F8D
:1009C0008093AF018091BB00F0E0E157FE4F808340
:1009D0003DC0803B39F0E0F4803A09F479C0883AB0
:1009E00009F09CCF84E08093E50110928E01109273
:1009F0008D01E091BB01F091BC01099580918D01C1
:100A000081110FC081E080938D0110926D0109C0AA
:100A1000803C09F4A6CF883C09F4A3CF883B09F0B9
:100A20007DCFE0918E0181E08E0F80938E01F0E00A
:100A3000E359FE4F80818093BB0090918E0180919D
:100A40008D0129C08091C0018093BB0085EC80930B
:100A5000BC0064CF9091E2018091E101981758F5B4
:100A6000E091E20181E08E0F8093E201F0E0EF532C
:100A7000FE4F8081E9CFE091E20181E08E0F80930B
:100A8000E2018091BB00F0E0EF53FE4F8083909134
:100A9000E2018091E1019817C8F285E8D8CFE09192
:100AA000E20181E08E0F8093E2018091BB00F0E0D3
:100AB000EF53FE4F80838091E40181115CCF81E090
:100AC0008093BF0184EA8093BC001092E50126CF99
:100AD00085EC8093BC001092E5018091AF018032DB
:100AE00030F4E091AF01F0E0E157FE4F10826091E9
:100AF000AF0170E0E091B901F091BA018FE891E0A7
:100B000009951092AF010ACF1092E30134CF1F92E2
:100B10000F920FB60F9211242F933F934F935F9331
:100B20006F937F938F939F93AF93BF93EF93FF93B5
:100B30000E94020270934701609346014F9B19C0C7
:100B40008091460190914701909345018093440123
:100B5000FF91EF91BF91AF919F918F917F916F9195
:100B60005F914F913F912F910F900FBE0F901F906B
:100B70001895809146019091470120914401309150
:100B80004501821B930B9093490180934801109279
:100B90004701109246011092450110924401D8CFAE
:100BA0001F920F920FB60F9211242F933F934F93E2
:100BB0005F936F937F938F939F93AF93BF93EF93C5
:100BC000FF930E9402027093430160934201189BBD
:100BD00019C080914201909143019093410180930B
:100BE0004001FF91EF91BF91AF919F918F917F91C4
:100BF0006F915F914F913F912F910F900FBE0F908A
:100C00001F901895809142019091430120914001DD
:100C100030914101821B930B90934B0180934A01C9
:100C20001092430110924201109241011092400132
:100C3000D8CF1F920F920FB60F9211248F939F93CC
:100C4000AF93BF93309B13C080913C0190913D01C5
:100C5000A0913E01B0913F010196A11DB11D80936D
:100C60003C0190933D01A0933E01B0933F01BF91A1
:100C7000AF919F918F910F900FBE0F901F9018957D
:100C80001F920F920FB60F9211242F933F934F9301
:100C90005F936F937F938F939F93AF93BF93EF93E4
:100CA000FF9380913A0190913B01019690933B0113
:100CB00080933A0180913A0190913B01C29789F566
:100CC00060913C0170913D0180913E0190913F0106
:100CD0000E94C30920E030E046EE52E40E941B0966
:100CE00028E632EF43E852E40E94510A2DEC3CEC36
:100CF0004CE45DE30E941B090E94940970930B026F
:100D000060930A0210923C0110923D0110923E0144
:100D100010923F0181E080930C0210923B011092EF
:100D20003A01FF91EF91BF91AF919F918F917F9188
:100D30006F915F914F913F912F910F900FBE0F9048
:100D40001F901895EDE0F2E01382128288EE93E096
:100D5000A0E0B0E084839583A683B78328E031E0E8
:100D60003183208325EC30E03587248724EC30E084
:100D70003787268720EC30E0318B208B21EC30E068
:100D8000338B228B22EC30E0358B248B26EC30E049
:100D9000378B268B118E128E138E148EEAEAF2E0B8
:100DA0001382128284839583A683B7838AE191E0BC
:100DB000918380830895CF93DF93CDB7DEB7A1975A
:100DC0000FB6F894DEBF0FBECDBF789484B58260B5
:100DD00084BD84B5816084BD85B5826085BD85B5DF
:100DE000816085BD80916E00816080936E0010925D
:100DF00081008091810082608093810080918100D8
:100E00008160809381008091800081608093800068
:100E10008091B10084608093B1008091B0008160C6
:100E20008093B00080917A00846080937A008091F2
:100E30007A00826080937A0080917A00816080934A
:100E40007A0080917A00806880937A001092C100C5
:100E500084E10E94CE008EE00E94CE0087E00E94D6
:100E6000CE0088E00E94CE0082E00E94CE00E09199
:100E70001D02F0911E0282E08083E0911902F09140
:100E80001A021082E0911B02F0911C021082109253
:100E90002502E0912102F091220286E08083E09118
:100EA0001F02F0912002808180618083E0911F0207
:100EB000F0912002808188608083E0911F02F09190
:100EC0002002808180688083E0911F02F0912002DF
:100ED00080818F7D808386E480937C0080917A007E
:100EE000806480937A0080917A0086FDFCCF8091A7
:100EF00078002091790019A2322F282F81E0253621
:100F000031050CF480E0805D88A3BE01605E7F4FF8
:100F10008DE092E00E94E20267E371E08DE092E0F2
:100F20000E94E2021092BE011092BD0110920702CF
:100F3000109206021092E50181E08093E401109284
:100F4000BF0182E10E94870083E10E9487008091B7
:100F5000B9008E7F8093B9008091B9008D7F809316
:100F6000B90088E48093B80085E48093BC008DEFDD
:100F700090E09093BC018093BB018EEF90E0909342
:100F8000BA018093B90182E08093B00095E090931C
:100F9000B1009CE79093B30080937000809168004B
:100FA000816080936800809168008260809368000F
:100FB0008091680084608093680080916B008160FC
:100FC00080936B0080916C00816080936C008091B5
:100FD0006D00806880936D000E94F60086EF90E0BF
:100FE0009093010180930001809169008C7F816062
:100FF00080936900E89A05EE85ECF82E11E092E006
:10100000E92EDD24DA9480910C02882309F462C071
:1010100080910A0290910B024AE0BE016F5F7F4F00
:101020000E94790810930902109308021092070297
:1010300010920602BE016F5F7F4F8AEA92E00E9423
:10104000E202209106022132E8F58091E50181114A
:10105000FCCF80910802E092E5011093E401D09268
:10106000E3011092E2012093E101A6EEB1E0E1EC90
:10107000F1E090E0291336C01092C0019091C001B8
:10108000880F892B8093C0018091BF01813071F559
:101090001092BF018091C0018093BB008091BC0081
:1010A00083FDF8CFF092BC008091E5018230E1F33E
:1010B0008091E3018F3F31F08091E301803211F0A4
:1010C0008091E30110920702109206021092090229
:1010D00010920C020E946901882309F494CF0E94A7
:1010E000F10291CF3D9131939F5FC4CF0093BC003B
:1010F000DBCFBB274A3031F4992322F4BDE290952F
:1011000081959F4F0C948508BB27FB015527AA2783
:10111000880F991FAA1FA41710F0A41B8395505184
:10112000B9F7A05DAA3308F0A95DA193009779F7FC
:10113000B111B1931192CB010C949E08DC01FC011A
:10114000672F71917723E1F7329704C07C916D93FB
:1011500070836291AE17BF07C8F308955058BB273C
:10116000AA270E94C6080C94170A0E94090A38F0A0
:101170000E94100A20F039F49F3F19F426F40C94D1
:10118000060A0EF4E095E7FB0C94000AE92F0E9492
:10119000280A58F3BA17620773078407950720F0E7
:1011A00079F4A6F50C944A0A0EF4E0950B2EBA2FAA
:1011B000A02D0B01B90190010C01CA01A00111245D
:1011C000FF27591B99F0593F50F4503E68F11A1609
:1011D000F040A22F232F342F4427585FF3CF46959A
:1011E00037952795A795F0405395C9F77EF41F16BC
:1011F000BA0B620B730B840BBAF09150A1F0FF0F86
:10120000BB1F661F771F881FC2F70EC0BA0F621F71
:10121000731F841F48F4879577956795B795F79561
:101220009E3F08F0B0CF9395880F08F09927EE0FF6
:101230009795879508950E942F090C94170A0E948C
:10124000100A58F00E94090A40F029F45F3F29F083
:101250000C94000A51110C944B0A0C94060A0E943B
:10126000280A68F39923B1F3552391F3951B550B85
:10127000BB27AA2762177307840738F09F5F5F4F69
:10128000220F331F441FAA1FA9F335D00E2E3AF0A8
:10129000E0E832D091505040E695001CCAF72BD0C0
:1012A000FE2F29D0660F771F881FBB1F2617370711
:1012B0004807AB07B0E809F0BB0B802DBF01FF2743
:1012C00093585F4F3AF09E3F510578F00C94000A16
:1012D0000C944B0A5F3FE4F3983ED4F386957795E0
:1012E0006795B795F7959F5FC9F7880F911D9695FC
:1012F000879597F90895E1E0660F771F881FBB1F58
:10130000621773078407BA0720F0621B730B840B04
:10131000BA0BEE1F88F7E09508950E94940968942F
:10132000B1110C944B0A08950E94300A88F09F571F
:1013300098F0B92F9927B751B0F0E1F0660F771FF9
:10134000881F991F1AF0BA95C9F714C0B13091F0EF
:101350000E944A0AB1E008950C944A0A672F782F38
:101360008827B85F39F0B93FCCF3869577956795B4
:10137000B395D9F73EF490958095709561957F4F20
:101380008F4F9F4F0895E89409C097FB3EF49095C6
:101390008095709561957F4F8F4F9F4F9923A9F04E
:1013A000F92F96E9BB279395F695879577956795DD
:1013B000B795F111F8CFFAF4BB0F11F460FF1BC021
:1013C0006F5F7F4F8F4F9F4F16C0882311F096E9B4
:1013D00011C0772321F09EE8872F762F05C0662362
:1013E00071F096E8862F70E060E02AF09A95660F1B
:1013F000771F881FDAF7880F9695879597F90895D4
:1014000097F99F6780E870E060E008959FEF80ECB7
:10141000089500240A94161617061806090608955A
:1014200000240A9412161306140605060895092EC0
:101430000394000C11F4882352F0BB0F40F4BF2B2F
:1014400011F460FF04C06F5F7F4F8F4F9F4F08956F
:1014500057FD9058440F551F59F05F3F71F0479565
:10146000880F97FB991F61F09F3F79F0879508954A
:10147000121613061406551FF2CF4695F1DF08C069
:10148000161617061806991FF1CF86957105610586
:1014900008940895E894BB2766277727CB0197F92E
:1014A00008950E94640A0C94170A0E94090A38F0F1
:1014B0000E94100A20F0952311F00C94000A0C945D
:1014C000060A11240C944B0A0E94280A70F3959F77
:1014D000C1F3950F50E0551F629FF001729FBB272B
:1014E000F00DB11D639FAA27F00DB11DAA1F649FC7
:1014F0006627B00DA11D661F829F2227B00DA11D7A
:10150000621F739FB00DA11D621F839FA00D611DFF
:10151000221F749F3327A00D611D231F849F600D20
:10152000211D822F762F6A2F11249F5750409AF049
:10153000F1F088234AF0EE0FFF1FBB1F661F771FD5
:10154000881F91505040A9F79E3F510580F00C94A0
:10155000000A0C944B0A5F3FE4F3983ED4F386955F
:1015600077956795B795F795E7959F5FC1F7FE2B40
:10157000880F911D9695879597F90895EE0FFF1F97
:101580000590F491E02D0994AEE0B0E0EAECFAE0C9
:101590000C94730D0D891E8986E08C831A83098350
:1015A0008FEF9FE79E838D83AE01475E5F4F6F890C
:1015B000788DCE0101960E94E70A2F813885020FAF
:1015C000131FF80110822E96E4E00C948F0DABE00F
:1015D000B0E0EDEEFAE00C94650D7C013B018A0170
:1015E000FC0117821682838181FFC8C1CE0101965A
:1015F0005C01F7019381F30193FD859193FF819144
:101600003F01882309F453C1853239F493FD859154
:1016100093FF81913F01853229F4B70190E00E9448
:10162000D70CE7CF912C212C312CFFE1F31538F0AA
:101630008B3211F190F4803209F1833229F137FCB9
:101640003CC020ED280F2A3050F536FE20C08AE03D
:10165000989E200D1124922E06C08D3291F0803379
:1016600071F7689430F8F30193FD859193FF8191B0
:101670003F018111DACF21C0689431F8689432F8C3
:10168000F2CF689433F8EFCF689434F8ECCFEAE007
:101690002E9E200D1124222E689435F8E4CF8E3230
:1016A00029F436FC04C1689436F8DDCF8C3619F481
:1016B000689437F8D8CF8836B1F2982F9F7D95542B
:1016C0009330E0F08336A1F18337C1F1833509F01F
:1016D00063C02801F2E04F0E511CF801C080D18098
:1016E000692D70E036FC02C06FEF7FEFC6010E94EB
:1016F000C10C4C01689437F882010AC00C5F1F4F7F
:10170000FFE3F98388248394912C6501E89437F8EA
:1017100033FE2DC0522C8114910471F5552009F42B
:1017200068CFB70180E290E00E94D70C5A94F6CFC0
:10173000F801808189830E5F1F4FE4CF2801F2E01A
:101740004F0E511CF801C080D180692D70E036FC2D
:1017500002C06FEF7FEFC6010E94CC0C4C018201EA
:10176000D5CFB70180E290E00E94D70C2A942814CC
:10177000190409F0B0F7CECFF60137FC859137FE9A
:1017800081916F01B70190E00E94D70C51105A94DB
:10179000F1E08F1A9108BFCF843619F0893609F02D
:1017A00077C0F80137FE6BC06081718182819381BF
:1017B0000C5F1F4FF32DFF763F2E97FF09C09095CA
:1017C0008095709561957F4F8F4F9F4F689437F844
:1017D0002AE030E0A5010E94070DC82ECA188C2C03
:1017E000432C36FE0CC0E89440F8C91440F434FE93
:1017F00005C032FC03C0F32DFE7E4F2E892C44FE23
:1018000095C0FE01EC0DF11D8081803309F087C089
:10181000242D297E422E842D8870582E43FC95C09D
:1018200040FE8FC09C2C821418F42C0C922C98181B
:1018300044FE91C0B70180E390E00E94D70C42FEC5
:1018400009C088E790E041FE02C088E590E0B7015A
:101850000E94D70CC91408F48AC0CA94D12C9FEFF7
:10186000C91AD90ACA0CDB1CF60182916F01B701B3
:1018700090E00E94D70CAC14BD04B1F74FCF60814B
:101880007181072E000C880B990B0E5F1F4F92CFB2
:10189000D32CE894D4F82AE030E0853739F1232DB1
:1018A000297FD22E8F3601F148F48835A9F0F7014F
:1018B000868197812B96E2E10C94810D803749F067
:1018C0008837A9F7D4FE02C06894D2F820E130E04E
:1018D0000DC06894D4F8F6CF34FE03C0822F866022
:1018E000D82E20E132E002C028E030E0F801D7FE37
:1018F0000FC060817181828193810C5F1F4FA501B0
:101900000E94070DC82ECA183D2CE89437F867CFFF
:101910006081718190E080E00E5F1F4FF0CF42FC4C
:1019200002C0839478CF8394839475CF842D867876
:1019300009F471CFF6CFB70180E290E00E94D70C96
:1019400083948214C0F3512C73CF522C58188214F4
:1019500008F46ECFF8CF842D867809F47BCF8BE224
:1019600041FE80E247FC8DE2B70190E071CFB70104
:1019700080E390E00E94D70C9A946CCF8FEF9FEF9A
:1019800099CFFC010590615070400110D8F7809507
:1019900090958E0F9F1F0895FC016150704001903B
:1019A0000110D8F7809590958E0F9F1F08950F9383
:1019B0001F93CF93DF93182F092FEB018B8181FDAC
:1019C00009C01FEF0FEF812F902FDF91CF911F9153
:1019D0000F91089582FF14C02E813F818C819D81DB
:1019E000281739073CF4E881F981CF0101969983E2
:1019F000888310838E819F8101969F838E83E3CF9E
:101A0000E885F985812F0995892BA1F3DACFFA01B1
:101A1000AA27283051F1203181F1E8946F936E7F2D
:101A20006E5F7F4F8F4F9F4FAF4FB1E03ED0B4E01E
:101A30003CD0670F781F891F9A1FA11D680F791F5F
:101A40008A1F911DA11D6A0F711D811D911DA11D70
:101A500020D009F468943F912AE0269F1124301980
:101A6000305D3193DEF6CF010895462F4770405D1B
:101A70004193B3E00FD0C9F7F6CF462F4F70405DCA
:101A80004A3318F0495D31FD4052419302D0A9F725
:101A9000EACFB4E0A6959795879577956795BA951F
:101AA000C9F700976105710508959B01AC010A2EE5
:101AB00006945795479537952795BA95C9F7620FBC
:101AC000731F841F951FA01D08952F923F924F9260
:101AD0005F926F927F928F929F92AF92BF92CF92BE
:101AE000DF92EF92FF920F931F93CF93DF93CDB7C7
:101AF000DEB7CA1BDB0B0FB6F894DEBF0FBECDBF3F
:101B000009942A88398848885F846E847D848C840F
:101B10009B84AA84B984C884DF80EE80FD800C8118
:101B20001B81AA81B981CE0FD11D0FB6F894DEBFFB
:0C1B30000FBECDBFED010895F894FFCF6B
:101B3C0027022702000000009501FF002C01E201A2
:101B4C005D013B014F0100000000B0028302DF0287
:101B5C0059027C0269025A022563202564202564FF
:0A1B6C00202564202564000D0A0006
:107800000C94343C0C94513C0C94513C0C94513CE1
:107810000C94513C0C94513C0C94513C0C94513CB4
:107820000C94513C0C94513C0C94513C0C94513CA4
:107830000C94513C0C94513C0C94513C0C94513C94
:107840000C94513C0C94513C0C94513C0C94513C84
:107850000C94513C0C94513C0C94513C0C94513C74
:107860000C94513C0C94513C11241FBECFEFD8E036
:10787000DEBFCDBF11E0A0E0B1E0ECE9FFE702C060
:1078800005900D92A230B107D9F712E0A2E0B1E065
:1078900001C01D92AD30B107E1F70E942D3D0C945F
:1078A000CC3F0C94003C982F959595959595959582
:1078B000905D8F708A307CF0282F295A8091C0000B
:1078C00085FFFCCF9093C6008091C00085FFFCCF60
:1078D0002093C6000895282F205DF0CF982F809127
:1078E000C00085FFFCCF9093C6000895EF92FF92F1
:1078F0000F931F93EE24FF2487018091C00087FD22
:1079000017C00894E11CF11C011D111D81E4E8164B
:1079100082E4F8068FE0080780E0180770F3E09132
:107920000401F091050109958091C00087FFE9CF1E
:107930008091C6001F910F91FF90EF9008950E94D3
:10794000763C982F8091C00085FFFCCF9093C600B5
:1079500091362CF490330CF09053892F089597555D
:10796000892F08951F930E949F3C182F0E949F3CCF
:107970001295107F810F1F9108951F93182F882350
:1079800021F00E94763C1150E1F71F9108951F935A
:10799000182F0E94763C803249F0809103018F5F5E
:1079A000809303018530C1F01F9108958091C0003C
:1079B00085FFFCCF84E18093C6008091C00085FFE5
:1079C000FCCF1093C6008091C00085FFFCCF80E102
:1079D0008093C6001F910895E0910401F091050184
:1079E00009951F9108950E94763C803241F0809164
:1079F00003018F5F80930301853081F008958091AA
:107A0000C00085FFFCCF84E18093C6008091C00058
:107A100085FFFCCF80E18093C6000895E0910401CA
:107A2000F09105010995089540E951E08823A1F0FE
:107A30002D9A28EE33E0FA013197F1F721503040CA
:107A4000D1F72D9828EE33E0FA013197F1F7215064
:107A50003040D1F7815061F708953F924F925F9285
:107A60006F927F928F929F92AF92BF92CF92DF924E
:107A7000EF92FF920F931F93CF93DF93000080E16B
:107A80008093C4001092C50088E18093C10086E015
:107A90008093C2005098589A259A81E00E94143D24
:107AA00024E1F22E9EE1E92E85E9D82E0FE0C02ECA
:107AB00010E1B12EAA24A394B1E49B2EA6E58A2E50
:107AC000F2E57F2EE0E26E2E79E4572E63E5462E36
:107AD00050E5352E0E94763C8033B1F18133B9F107
:107AE000803409F46FC0813409F476C0823409F41B
:107AF00085C0853409F488C0803531F1823521F1A3
:107B0000813511F1853509F485C0863509F48DC0BC
:107B1000843609F496C0843709F403C1853709F423
:107B200072C1863709F466C0809103018F5F80932C
:107B30000301853079F6E0910401F0910501099582
:107B40000E94763C803351F60E94F33CC3CF0E94E2
:107B5000763C803249F78091C00085FFFCCFF092DF
:107B6000C6008091C00085FFFCCF9092C600809136
:107B7000C00085FFFCCF8092C6008091C00085FFC9
:107B8000FCCF7092C6008091C00085FFFCCF609250
:107B9000C6008091C00085FFFCCF5092C600809146
:107BA000C00085FFFCCF4092C6008091C00085FFD9
:107BB000FCCF3092C6008091C00085FFFCCFB09210
:107BC000C60088CF0E94763C863808F4BDCF0E945C
:107BD000763C0E94F33C7ECF0E94763C803809F4CC
:107BE0009CC0813809F40BC1823809F43CC1883942
:107BF00009F48FC080E00E94C73C6CCF84E10E94F2
:107C0000BD3C0E94F33C66CF85E00E94BD3C0E94D3
:107C1000F33C60CF0E94763C809306010E94763C44
:107C2000809307010E94F33C55CF0E94763C80333D
:107C300009F41DC183E00E94BD3C80E00E94C73C66
:107C400049CF0E94763C809309020E94763C809343
:107C5000080280910C028E7F80930C020E94763C79
:107C6000853409F415C18091080290910902892B8D
:107C700089F000E010E00E94763CF801E85FFE4FDA
:107C800080830F5F1F4F80910802909109020817AF
:107C9000190788F30E94763C803209F045CF809125
:107CA0000C0280FF01C16091060170910701660F0F
:107CB000771F7093070160930601A0910802B091AD
:107CC00009021097C9F0E8E0F1E09B01AD014E0F09
:107CD0005F1FF999FECF32BD21BD819180BDFA9A17
:107CE000F99A2F5F3F4FE417F50799F76A0F7B1F4B
:107CF00070930701609306018091C00085FFFCCF5F
:107D0000F092C6008091C00085FFFCCFB092C60003
:107D1000E1CE83E00E94C73CDDCE82E00E94C73CFA
:107D2000D9CE0E94763C809309020E94763C8093D3
:107D300008028091060190910701880F991F909386
:107D40000701809306010E94763C853409F4A6C0A1
:107D500080910C028E7F80930C020E94763C8032D0
:107D600009F0B8CE8091C00085FFFCCFF092C6002C
:107D7000609108027091090261157105B9F140E046
:107D800050E080910C02A82FA170B82FB27011C0E2
:107D9000BB2309F45CC0E0910601F0910701319624
:107DA000F0930701E09306014F5F5F4F46175707B7
:107DB000E8F4AA2369F3F999FECF209106013091E6
:107DC000070132BD21BDF89A90B58091C00085FFB2
:107DD000FCCF9093C6002F5F3F4F30930701209355
:107DE00006014F5F5F4F4617570718F38091C00099
:107DF00085FDE5CE8091C00085FFF8CFE0CE81E023
:107E00000E94C73C67CE0E94763C803209F08CCE3F
:107E10008091C00085FFFCCFF092C6008091C00029
:107E200085FFFCCFE092C6008091C00085FFFCCFAB
:107E3000D092C6008091C00085FFFCCFC092C600E2
:107E40008091C00085FFFCCFB092C60043CEE09188
:107E50000601F091070194918091C00085FFFCCF4D
:107E60009093C6009CCF80E10E94C73C33CE0E9415
:107E7000763C0E94763C182F0E94763C112309F430
:107E800083C0113009F484C08FE00E94C73C22CE29
:107E900080910C02816080930C02E5CE80910C02EF
:107EA000816080930C0259CF809107018823880F4D
:107EB000880B8A2180930B02809106019091070123
:107EC000880F991F90930701809306018091080203
:107ED00080FF09C080910802909109020196909359
:107EE000090280930802F894F999FECF1127E091D6
:107EF0000601F0910701C8E0D1E08091080290915D
:107F00000902103091F40091570001700130D9F34B
:107F100003E000935700E89500915700017001308D
:107F2000D9F301E100935700E89509901990009169
:107F3000570001700130D9F301E000935700E89534
:107F40001395103498F011270091570001700130FB
:107F5000D9F305E000935700E895009157000170B0
:107F60000130D9F301E100935700E895329602976A
:107F700009F0C7CF103011F00296E5CF112480919F
:107F8000C00085FFB9CEBCCE8EE10E94C73CA2CD19
:0C7F900085E90E94C73C9ECDF894FFCF0D
:027F9C00800063
:040000030000780081
:00000001FF
