:100000000C945D000C94F7040C94D0040C943D0601
:100010000C9485000C94AD060C9485000C942C0770
:100020000C9485000C9485000C9485000C9485003C
:100030000C9485000C9485000C9485000C9485002C
:100040000C9486040C9485000C9454040C942E0497
:100050000C9485000C9485000C9485000C9485000C
:100060000C941E050C94850000000008000201009D
:100070000003040700000000000000000000000072
:10008000250028002B0000000000240027002A0083
:10009000040404040404040402020202020203032E
:1000A0000303030301020408102040800102040836
:1000B0001020010204081020F90811241FBECFEF00
:1000C000D8E0DEBFCDBF11E0A0E0B1E0E8ECF0E2A7
:1000D00002C005900D92AA34B107D9F722E0AAE434
:1000E000B1E001C01D92A83FB207E1F710E0CDE5F5
:1000F000D0E004C02197FE010E94840DCC35D107C9
:10010000C9F70E9432090C9462100C940000CF933E
:10011000DF9390E0FC01EC55FF4F249180579F4FF7
:10012000FC0184918823C1F090E0880F991FFC01A5
:10013000EA57FF4FC591D491FC01E458FF4FA591B8
:10014000B4919FB7F8948881E22FE0958E2388833D
:100150008C91E823EC939FBFDF91CF91089589B1F3
:1001600082FB882780F98093880108950895089577
:10017000AF92BF92CF92DF92EF92FF920F931F93B5
:10018000CF93DF936C017B018B01040F151FEB01F3
:100190005E01AE18BF08C017D10759F06991D601AA
:1001A000ED91FC910190F081E02DC6010995892B1C
:1001B00079F7C501DF91CF911F910F91FF90EF90DB
:1001C000DF90CF90BF90AF900895FC01538D448D88
:1001D000252F30E0842F90E0821B930B541710F0F2
:1001E000CF96089501970895FC01918D828D9817FF
:1001F00061F0A28DAE0FBF2FB11D5D968C91928DD7
:100200009F5F9F73928F90E008958FEF9FEF089507
:10021000FC01918D828D981731F0828DE80FF11DD0
:10022000858D90E008958FEF9FEF0895FC01918DEB
:10023000228D892F90E0805C9F4F821B91098F73E4
:10024000992708958FE492E00E94160121E0892BFE
:1002500009F420E0822F0895FC01A48DA80FB92F86
:10026000B11DA35ABF4F2C91848D90E001968F73DE
:100270009927848FA689B7892C93A089B1898C91FD
:10028000837080648C93938D848D981306C002884C
:10029000F389E02D80818F7D80830895EF92FF9216
:1002A0000F931F93CF93DF93EC0181E0888F9B8D99
:1002B0008C8D98131AC0E889F989808185FF15C053
:1002C0009FB7F894EE89FF896083E889F989808176
:1002D0008370806480839FBF81E090E0DF91CF9145
:1002E0001F910F91FF90EF900895F62E0B8D10E067
:1002F0000F5F1F4F0F731127E02E8C8D8E110CC0D6
:100300000FB607FCFACFE889F989808185FFF5CF20
:10031000CE010E942C01F1CFEB8DEC0FFD2FF11DD2
:10032000E35AFF4FF0829FB7F8940B8FEA89FB895D
:1003300080818062CFCFCF93DF93EC01888D8823BB
:10034000B9F0AA89BB89E889F9898C9185FD03C038
:10035000808186FD0DC00FB607FCF7CF8C9185FF1D
:10036000F2CF808185FFEDCFCE010E942C01E9CF35
:10037000DF91CF91089590E0FC01E859FF4F24915F
:10038000FC01EC55FF4F3491FC01E057FF4FE49125
:10039000EE23C9F0222339F0233001F1A8F42130F3
:1003A00019F1223029F1F0E0EE0FFF1FE458FF4F62
:1003B000A591B4918FB7F894EC91611126C0309556
:1003C0003E233C938FBF08952730A9F02830C9F011
:1003D000243049F7809180008F7D03C08091800098
:1003E0008F7780938000DFCF84B58F7784BDDBCF9C
:1003F00084B58F7DFBCF8091B0008F778093B00064
:10040000D2CF8091B0008F7DF9CF3E2BDACF3FB7AE
:10041000F8948091F2019091F301A091F401B091D0
:10042000F50126B5A89B05C02F3F19F00196A11D27
:10043000B11D3FBFBA2FA92F982F8827BC01CD012E
:10044000620F711D811D911D42E0660F771F881F8D
:10045000991F4A95D1F7089508952091CA01260F52
:100460003327331F21323105ECF420912202FC01A5
:1004700090E080E0243069F082E00895A091CA0104
:100480002191AC0146555E4FA40FB52FB11D2C93A1
:100490000196861798F38091CA01680F6093CA018C
:1004A00080E0089581E008951092220281E0809317
:1004B00021021092FC0161E082E10E94BB0161E037
:1004C00083E10E94BB01E9EBF0E080818E7F8083B5
:1004D00080818D7F808388E48093B80085E4809359
:1004E000BC000895CF93DF9391E09093A9018823F6
:1004F000B9F0C091B800D091BA008091BC008A7B5D
:100500008093BC0060E082E10E94BB0160E083E177
:100510000E94BB010E945402D093BA00C093B8005D
:10052000DF91CF9108950895E091FB018091FA0148
:10053000E81730F4F0E0E757FE4F808190E008952F
:100540008FEF9FEF08959091FB018091FA012FEFBB
:100550003FEF981748F4E92FF0E0E757FE4F20816E
:1005600030E09F5F9093FB01C90108958091FA01EB
:100570009091FB01891B990B0895CF92DF92EF9226
:10058000FF920F931F93CF93DF937C01CB018A01DE
:1005900020914B02222389F0EB016B01C40ED51E82
:1005A000CC15DD0569F06991D701ED91FC910190C1
:1005B000F081E02DC7010995F3CF642F0E942D0231
:1005C000C801DF91CF911F910F91FF90EF90DF90C5
:1005D000CF900895CF93DF931F92CDB7DEB7698395
:1005E00020914B022223F9F020914802203258F04A
:1005F00021E030E0FC013383228390E080E00F9023
:10060000DF91CF91089580914902E82FF0E0E85DF5
:10061000FD4F998190838F5F8093490280934802B8
:1006200081E090E0ECCF61E0CE0101960E942D02C6
:10063000F7CF90E080E00895FB0101900020E9F7FA
:100640003197AF01461B570BDC01ED91FC91028005
:10065000F381E02D0994CF92DF92EF92FF920F93F6
:100660001F93CF93DF93CDB7DEB7C659D1090FB62D
:10067000F894DEBF0FBECDBF8FE492E00E9416015A
:10068000BC01892B29F08FE492E00E94F400F4CFA2
:1006900080917E0190917F01813D974008F493C045
:1006A00080914E0190914F0190934F0180934E01A4
:1006B0008091830190918401813D974008F488C026
:1006C00080914C0190914D0190934D0180934C018C
:1006D00080914C0190914D01892BB1F060914C01BA
:1006E00070914D0190E080E00E94890C2DE33CE286
:1006F00044E55DEB0E94170D21EE3AE344E253E43A
:100700000E94750B0E94530CC0906001D090610153
:10071000E0906201F0906301009164011091650125
:10072000A0916601B0916701E0914C01F0914D01FB
:1007300040914E0150914F0120914C0230914D0259
:1007400080918801811149C08AE291E0DF92CF92C5
:10075000FF92EF921F930F93BF93AF93FF93EF938B
:100760005F934F937F936F933F932F939F938F93B9
:100770008CE291E09F938F938E010F5F1F4F1F9329
:100780000F930E948A0DB8018FE492E00E941C032F
:1007900067E471E08FE492E00E941C030FB6F894C6
:1007A000DEBF0FBECDBFCA56DF4F0FB6F894DEBF17
:1007B0000FBECDBFDF91CF911F910F91FF90EF90B2
:1007C000DF90CF90089580917E0190917F016CCF52
:1007D000809183019091840177CF88E291E0B6CF38
:1007E0000E94220181110C942B03089585ED8093C2
:1007F000BC008091240290912502A0912602B09124
:1008000027020796A11DB11D23E0B695A7959795E0
:1008100087952A95D1F72091BC0024FD03C0109242
:1008200022020895409124025091250260912602EF
:1008300070912702452B462B472B69F30097A105A2
:10084000B10541F025E32A95F1F700000197A109D0
:10085000B109E1CF809123020C9472021F920F9292
:100860000FB60F9211242F933F934F935F936F9383
:100870007F938F939F93AF93BF93EF93FF938FE4F7
:1008800092E00E942C01FF91EF91BF91AF919F9157
:100890008F917F916F915F914F913F912F910F9029
:1008A0000FBE0F901F9018951F920F920FB60F92C8
:1008B00011242F938F939F93EF93FF93E0915F0207
:1008C000F09160028081E0916502F091660282FD04
:1008D0001BC09081809168028F5F8F7320916902A5
:1008E000821741F0E0916802F0E0E15BFD4F958FE7
:1008F00080936802FF91EF919F918F912F910F90BC
:100900000FBE0F901F9018958081F4CF1F920F9209
:100910000FB60F9211242F933F938F939F93AF9312
:10092000BF938091EE019091EF01A091F001B09101
:10093000F1013091ED0123E0230F2D3758F5019699
:10094000A11DB11D2093ED018093EE019093EF0165
:10095000A093F001B093F1018091F2019091F30125
:10096000A091F401B091F5010196A11DB11D8093F4
:10097000F2019093F301A093F401B093F501BF91BC
:10098000AF919F918F913F912F910F900FBE0F903C
:100990001F90189526E8230F0296A11DB11DD2CFF6
:1009A0001F920F920FB60F9211242F933F934F93E4
:1009B0005F936F937F938F939F93AF93BF93EF93C7
:1009C000FF93E0910201F09103010995FF91EF91EE
:1009D000BF91AF919F918F917F916F915F914F9157
:1009E0003F912F910F900FBE0F901F9018951F925F
:1009F0000F920FB60F9211242F933F934F935F9353
:100A00006F937F938F939F93AF93BF93EF93FF93D6
:100A1000E0910001F09101010995FF91EF91BF91E3
:100A2000AF919F918F917F916F915F914F913F9186
:100A30002F910F900FBE0F901F9018951F920F923D
:100A40000FB60F9211242F933F934F935F936F93A1
:100A50007F938F939F93AF93BF93EF93FF93809177
:100A6000B900887F803609F44AC0F0F5883209F46D
:100A7000A7C018F5803109F49BC0B8F4882309F4A5
:100A8000F9C0883009F494C0FF91EF91BF91AF9104
:100A90009F918F917F916F915F914F913F912F9196
:100AA0000F900FBE0F901F901895883109F488C0E1
:100AB000803251F78093200214C0803409F49DC025
:100AC00040F48033B9F38833F9F68093200285EC43
:100AD000B0C0803509F485C0883509F496C08834E3
:100AE00099F60E94F603D0CF883909F48CC038F506
:100AF000883729F050F4883611F0803729F683E0E2
:100B0000809322021092EC0157C0883809F47BC010
:100B1000803919F0803809F0B7CF8091EC0180322C
:100B200008F071C0E091EC0181E08E0F8093EC0140
:100B30008091BB00F0E0E453FE4F80833DC0803BDA
:100B400039F0E0F4803A09F479C0883A09F09CCF92
:100B500084E0809322021092CB011092CA01E091AE
:100B6000F801F091F90109958091CA0181110FC036
:100B700081E08093CA011092AA0109C0803C09F467
:100B8000A6CF883C09F4A3CF883B09F07DCFE09144
:100B9000CB0181E08E0F8093CB01F0E0E655FE4F54
:100BA00080818093BB009091CB018091CA0129C0C4
:100BB0008091FD018093BB0085EC8093BC0064CFE5
:100BC00090911F0280911E02981758F5E0911F0224
:100BD00081E08E0F80931F02F0E0E250FE4F808193
:100BE000E9CFE0911F0281E08E0F80931F02809178
:100BF000BB00F0E0E250FE4F808390911F02809195
:100C00001E029817C8F285E8D8CFE0911F0281E054
:100C10008E0F80931F028091BB00F0E0E250FE4FE8
:100C200080838091210281115CCF81E08093FC015F
:100C300084EA8093BC001092220226CF85EC809338
:100C4000BC00109222028091EC01803230F4E091DD
:100C5000EC01F0E0E453FE4F10826091EC0170E093
:100C6000E091F601F091F7018CEC91E0099510927A
:100C7000EC010ACF1092200234CF1F920F920FB6D0
:100C80000F9211242F933F934F935F936F937F9312
:100C90008F939F93AF93BF93CF93DF93EF93FF9384
:100CA0000E94070223B1309187012170231761F060
:100CB000189B34C070938601609385012091870151
:100CC00031E023272093870133B1209182013695AB
:100CD0003170C32F50E0D52F2C171D0661F0199BE2
:100CE0002DC070938101609380018091820191E019
:100CF000892780938201FF91EF91DF91CF91BF917E
:100D0000AF919F918F917F916F915F914F913F91A3
:100D10002F910F900FBE0F901F9018952091850175
:100D200030918601AB01421B530B509384014093D9
:100D300083011092860110928501C0CF209180011D
:100D400030918101621B730B70937F0160937E0170
:100D50001092810110928001C8CF1F920F920FB69E
:100D60000F9211242F933F934F935F936F937F9331
:100D70008F939F9379B160917D0174FB882780F9EF
:100D800090E06817190679F080917B0190917C01C1
:100D9000019690937C0180937B0180917D0191E08D
:100DA000892780937D0199B180917A0195FB442731
:100DB00040F950E08417150679F080917801909100
:100DC00079010196909379018093780180917A015D
:100DD00091E0892780937A0199B18091770196FB00
:100DE000222720F930E08217130679F080917501EF
:100DF0009091760101969093760180937501809190
:100E0000770191E089278093770189B1209174015E
:100E100090E0880F892F881F990B2817190679F001
:100E20008091720190917301019690937301809368
:100E300072018091740191E08927809374019F91E0
:100E40008F917F916F915F914F913F912F910F9073
:100E50000FBE0F901F9018951F920F920FB60F9212
:100E600011248F929F92AF92BF92CF92DF92EF9216
:100E7000FF920F931F932F933F934F935F936F9323
:100E80007F938F939F93AF93BF93CF93DF93EF9312
:100E9000FF9380917001909171010196909371017F
:100EA0008093700180917001909171018436910559
:100EB00009F082C1A0907B01B0907C0180916E010D
:100EC00090916F01A81AB90AC0907801D090790169
:100ED00080916C0190916D01C81AD90AE09075015A
:100EE000F090760180916A0190916B01E81AF90AFD
:100EF00000917201109173018091680190916901D4
:100F0000081B190B81E090E0A114B10411F490E0EA
:100F100080E0909367018093660181E090E0C114C6
:100F2000D10411F490E080E0909365018093640116
:100F300081E090E0E114F10411F490E080E09093FE
:100F400063018093620181E090E00115110511F4C5
:100F500090E080E090936101809360018091660150
:100F600090916701892B99F08091640190916501BE
:100F7000892B69F08091620190916301892B39F08E
:100F8000809160019091610161E0892B09F460E03A
:100F90008DE00E94BB01C0916601D0916701209154
:100FA00064013091650180916201909163016091CB
:100FB000600170916101C20FD31FC80FD91FC60F06
:100FC000D71F60E070E0CB01A114B104B9F0B50106
:100FD00090E080E00E94890C28E632EF43E052E482
:100FE0000E94170D20E030E040EA51E40E94E10B3E
:100FF0002DEC3CEC4CEC5DE30E94E10B60935C015A
:1010000070935D0180935E0190935F0160E070E0FA
:10101000CB01C114D104B9F0B60190E080E00E9488
:10102000890C28E632EF43E052E40E94170D20E0DD
:1010300030E040EA51E40E94E10B2DEC3CEC4CEC3A
:101040005DE30E94E10B6093580170935901809316
:101050005A0190935B0160E070E0CB01E114F10470
:10106000B9F0B70190E080E00E94890C28E632EFE9
:1010700043E052E40E94170D20E030E040EA51E4E2
:101080000E94E10B2DEC3CEC4CEC5DE30E94E10B8B
:1010900060935401709355018093560190935701CA
:1010A00060E070E0CB0101151105B9F0B80190E0E6
:1010B00080E00E94890C28E632EF43E052E40E946F
:1010C000170D20E030E040EA51E40E94E10B2DECE6
:1010D0003CEC4CEC5DE30E94E10B6093500170939B
:1010E000510180935201909353012097D1F1609167
:1010F0005C0170915D0180915E0190915F01209192
:1011000058013091590140915A0150915B018090F2
:10111000540190905501A0905601B0905701C09095
:101120005001D0905101E0905201F09053010E9483
:10113000750BA50194010E94750BA70196010E94F1
:10114000750B6B017C01BE0190E080E00E94890C70
:101150009B01AC01C701B6010E94E10B0E945A0C31
:10116000EB01D0934D02C0934C0280917B01909192
:101170007C0190936F0180936E0180917801909132
:10118000790190936D0180936C018091750190912C
:10119000760190936B0180936A0180917201909126
:1011A0007301909369018093680181E080934E02FE
:1011B0001092710110927001FF91EF91DF91CF9128
:1011C000BF91AF919F918F917F916F915F914F915F
:1011D0003F912F911F910F91FF90EF90DF90CF9053
:1011E000BF90AF909F908F900F900FBE0F901F9069
:1011F0001895EFE4F2E01382128288EE93E0A0E00B
:10120000B0E084839583A683B78328E031E03183FF
:10121000208325EC30E03587248724EC30E03787C5
:10122000268720EC30E0318B208B21EC30E0338BB3
:10123000228B22EC30E0358B248B26EC30E0378B90
:10124000268B118E128E138E148EECEEF2E013822A
:10125000128284839583A683B7838AE191E0918388
:1012600080830895CF93DF93CDB7DEB7A1970FB6F4
:10127000F894DEBF0FBECDBF789484B5826084BD84
:1012800084B5816084BD85B5826085BD85B581608A
:1012900085BD80916E00816080936E001092810008
:1012A00080918100826080938100809181008160C3
:1012B0008093810080918000816080938000809184
:1012C000B10084608093B1008091B0008160809310
:1012D000B00080917A00846080937A0080917A00D7
:1012E000826080937A0080917A00816080937A0096
:1012F00080917A00806880937A001092C10084E126
:101300000E94870084E00E94870085E00E94870099
:1013100086E00E94870087E00E94870088E00E94A4
:10132000870089E00E94870082E00E948700E091A8
:101330005F02F091600282E08083E0915B02F091B5
:101340005C021082E0915D02F0915E0210821092C8
:101350006702E0916302F091640286E08083E0918D
:101360006102F0916202808180618083E09161027C
:10137000F0916202808188608083E0916102F09147
:101380006202808180688083E0916102F091620254
:1013900080818F7D808386E480937C0080917A00B9
:1013A000806480937A0080917A0086FDFCCF8091E2
:1013B00078002091790019A2322F282F81E025365C
:1013C00031050CF480E0805D88A3BE01605E7F4F34
:1013D0008FE492E00E941C0367E471E08FE492E0E6
:1013E0000E941C031092FB011092FA011092490214
:1013F000109248020E94540286EB90E09093F9010B
:101400008093F80187EB90E09093F7018093F601C9
:1014100082E08093B00095E09093B1009CE79093B8
:10142000B3008093700080916800816080936800B1
:1014300080916B00816080936B0080916B00826073
:1014400080936B0080916800846080936800809135
:101450006D00806180936D0080916D00806280934B
:101460006D0080916D00806480936D0080916D00AF
:10147000806880936D000E94AF008FEA90E09093A7
:10148000010180930001809169008C7F81608093CD
:101490006900E89A85EEF82E95ECE92E01E022E04D
:1014A000D22ECC24CA9480914E02882309F4B6C06F
:1014B00080914C0290914D024AE0BE016F5F7F4FD8
:1014C0000E943F0B00934B0200934A021092490284
:1014D00010924802BE016F5F7F4F8CEE92E00E9437
:1014E0001C03B090480280E28B1508F48FC0109165
:1014F0004A020E9407022B013C01809122028111C5
:1015000060C0D092220200932102C0922002109269
:101510001F02B0921E02A8E2B2E0EEEFF1E0B812B4
:1015200085C01092FD018091FD01110F182B1093C1
:10153000FD018091FC01813009F07CC01092FC011A
:101540000E9407024B015C018091FD018093BB006A
:101550008091240290912502A0912602B091270249
:10156000892B8A2B8B2B99F00E9407024090240232
:101570005090250260902602709027026819790920
:101580008A099B094616570668067906D8F18091A4
:10159000BC0083FDD9CFE092BC000E9407024B0142
:1015A0005C0180912202823009F447C080912002C0
:1015B0008F3F61F180912002803241F180912002C1
:1015C00025C08091240290912502A0912602B0911D
:1015D0002702892B8A2B8B2B09F48FCF0E940702BD
:1015E0002091240230912502409126025091270239
:1015F0006419750986099709261737074807590797
:1016000008F07BCF809123020E947202109249025F
:101610001092480210924B0210924E020E94220138
:10162000882309F440CF0E942B033DCF9D919193D5
:101630008F5F75CFF092BC00B0CF80912402909163
:101640002502A0912602B0912702892B8A2B8B2B91
:1016500009F4A7CF0E94070240902402509025026F
:101660006090260270902702681979098A099B09FF
:10167000461657066806790608F093CFC3CFBB27F6
:101680004A3031F4992322F4BDE2909581959F4F21
:101690000C944B0BBB27FB015527AA27880F991FDA
:1016A000AA1FA41710F0A41B83955051B9F7A05D91
:1016B000AA3308F0A95DA193009779F7B111B1930E
:1016C0001192CB010C94640BDC01FC01672F71912A
:1016D0007723E1F7329704C07C916D937083629118
:1016E000AE17BF07C8F308955058BB27AA270E941A
:1016F0008C0B0C94DD0C0E94CF0C38F00E94D60CA1
:1017000020F039F49F3F19F426F40C94CC0C0EF41D
:10171000E095E7FB0C94C60CE92F0E94EE0C58F301
:10172000BA17620773078407950720F079F4A6F5C6
:101730000C94100D0EF4E0950B2EBA2FA02D0B017A
:10174000B90190010C01CA01A0011124FF27591B06
:1017500099F0593F50F4503E68F11A16F040A22F0C
:10176000232F342F4427585FF3CF4695379527957D
:10177000A795F0405395C9F77EF41F16BA0B620B7C
:10178000730B840BBAF09150A1F0FF0FBB1F661FC3
:10179000771F881FC2F70EC0BA0F621F731F841F06
:1017A00048F4879577956795B795F7959E3F08F02C
:1017B000B0CF9395880F08F09927EE0F97958795EE
:1017C00008950E94F50B0C94DD0C0E94D60C58F085
:1017D0000E94CF0C40F029F45F3F29F00C94C60C16
:1017E00051110C94110D0C94CC0C0E94EE0C68F36A
:1017F0009923B1F3552391F3951B550BBB27AA27CA
:1018000062177307840738F09F5F5F4F220F331F03
:10181000441FAA1FA9F335D00E2E3AF0E0E832D0CB
:1018200091505040E695001CCAF72BD0FE2F29D0CE
:10183000660F771F881FBB1F261737074807AB07A0
:10184000B0E809F0BB0B802DBF01FF2793585F4F15
:101850003AF09E3F510578F00C94C60C0C94110D93
:101860005F3FE4F3983ED4F3869577956795B795F7
:10187000F7959F5FC9F7880F911D9695879597F902
:101880000895E1E0660F771F881FBB1F621773077B
:101890008407BA0720F0621B730B840BBA0BEE1F90
:1018A00088F7E09508950E945A0C6894B1110C9441
:1018B000110D08950E94F60C88F09F5798F0B92FEB
:1018C0009927B751B0F0E1F0660F771F881F991F75
:1018D0001AF0BA95C9F714C0B13091F00E94100DFA
:1018E000B1E008950C94100D672F782F8827B85F0A
:1018F00039F0B93FCCF3869577956795B395D9F7CD
:101900003EF490958095709561957F4F8F4F9F4FD6
:101910000895E89409C097FB3EF4909580957095E2
:1019200061957F4F8F4F9F4F9923A9F0F92F96E92B
:10193000BB279395F695879577956795B795F111A0
:10194000F8CFFAF4BB0F11F460FF1BC06F5F7F4F3D
:101950008F4F9F4F16C0882311F096E911C077234F
:1019600021F09EE8872F762F05C0662371F096E858
:10197000862F70E060E02AF09A95660F771F881F27
:10198000DAF7880F9695879597F9089597F99F67E5
:1019900080E870E060E008959FEF80EC08950024F7
:1019A0000A941616170618060906089500240A94C4
:1019B00012161306140605060895092E0394000C4A
:1019C00011F4882352F0BB0F40F4BF2B11F460FFD9
:1019D00004C06F5F7F4F8F4F9F4F089557FD905802
:1019E000440F551F59F05F3F71F04795880F97FBE3
:1019F000991F61F09F3F79F087950895121613069D
:101A00001406551FF2CF4695F1DF08C016161706CB
:101A10001806991FF1CF8695710561050894089500
:101A2000E894BB2766277727CB0197F908950E9492
:101A30002A0D0C94DD0C0E94CF0C38F00E94D60CBD
:101A400020F0952311F00C94C60C0C94CC0C1124AE
:101A50000C94110D0E94EE0C70F3959FC1F3950F3D
:101A600050E0551F629FF001729FBB27F00DB11D22
:101A7000639FAA27F00DB11DAA1F649F6627B00DB2
:101A8000A11D661F829F2227B00DA11D621F739F9B
:101A9000B00DA11D621F839FA00D611D221F749FA9
:101AA0003327A00D611D231F849F600D211D822FF0
:101AB000762F6A2F11249F5750409AF0F1F0882317
:101AC0004AF0EE0FFF1FBB1F661F771F881F915044
:101AD0005040A9F79E3F510580F00C94C60C0C9421
:101AE000110D5F3FE4F3983ED4F3869577956795A3
:101AF000B795F795E7959F5FC1F7FE2B880F911D6E
:101B00009695879597F90895EE0FFF1F0590F4912C
:101B1000E02D0994AEE0B0E0E0E9FDE00C9439106E
:101B20000D891E8986E08C831A8309838FEF9FE7D6
:101B30009E838D83AE01475E5F4F6F89788DCE01A6
:101B400001960E94AD0D2F813885020F131FF801F9
:101B500010822E96E4E00C945510ABE0B0E0E3EB7D
:101B6000FDE00C942B107C013B018A01FC011782E3
:101B70001682838181FFC8C1CE0101965C01F70105
:101B80009381F30193FD859193FF81913F01882318
:101B900009F453C1853239F493FD859193FF819106
:101BA0003F01853229F4B70190E00E949D0FE7CFF5
:101BB000912C212C312CFFE1F31538F08B3211F1EF
:101BC00090F4803209F1833229F137FC3CC020EDDA
:101BD000280F2A3050F536FE20C08AE0989E200D4E
:101BE0001124922E06C08D3291F0803371F76894E3
:101BF00030F8F30193FD859193FF81913F018111AD
:101C0000DACF21C0689431F8689432F8F2CF689442
:101C100033F8EFCF689434F8ECCFEAE02E9E200D35
:101C20001124222E689435F8E4CF8E3229F436FC44
:101C300004C1689436F8DDCF8C3619F4689437F80F
:101C4000D8CF8836B1F2982F9F7D95549330E0F02D
:101C50008336A1F18337C1F1833509F063C02801D0
:101C6000F2E04F0E511CF801C080D180692D70E068
:101C700036FC02C06FEF7FEFC6010E94870F4C0158
:101C8000689437F882010AC00C5F1F4FFFE3F983A5
:101C900088248394912C6501E89437F833FE2DC095
:101CA000522C8114910471F5552009F468CFB701C5
:101CB00080E290E00E949D0F5A94F6CFF801808157
:101CC00089830E5F1F4FE4CF2801F2E04F0E511CB5
:101CD000F801C080D180692D70E036FC02C06FEF42
:101CE0007FEFC6010E94920F4C018201D5CFB70150
:101CF00080E290E00E949D0F2A942814190409F0B4
:101D0000B0F7CECFF60137FC859137FE81916F0198
:101D1000B70190E00E949D0F51105A94F1E08F1A84
:101D20009108BFCF843619F0893609F077C0F801E1
:101D300037FE6BC060817181828193810C5F1F4F80
:101D4000F32DFF763F2E97FF09C0909580957095F3
:101D500061957F4F8F4F9F4F689437F82AE030E0AE
:101D6000A5010E94CD0FC82ECA188C2C432C36FE1C
:101D70000CC0E89440F8C91440F434FE05C032FCAD
:101D800003C0F32DFE7E4F2E892C44FE95C0FE012C
:101D9000EC0DF11D8081803309F087C0242D297E50
:101DA000422E842D8870582E43FC95C040FE8FC073
:101DB0009C2C821418F42C0C922C981844FE91C080
:101DC000B70180E390E00E949D0F42FE09C088E7C2
:101DD00090E041FE02C088E590E0B7010E949D0FAF
:101DE000C91408F48AC0CA94D12C9FEFC91AD90A21
:101DF000CA0CDB1CF60182916F01B70190E00E94D2
:101E00009D0FAC14BD04B1F74FCF60817181072ED7
:101E1000000C880B990B0E5F1F4F92CFD32CE894C8
:101E2000D4F82AE030E0853739F1232D297FD22EEE
:101E30008F3601F148F48835A9F0F7018681978142
:101E40002B96E2E10C944710803749F08837A9F7C8
:101E5000D4FE02C06894D2F820E130E00DC068944E
:101E6000D4F8F6CF34FE03C0822F8660D82E20E14E
:101E700032E002C028E030E0F801D7FE0FC06081F8
:101E80007181828193810C5F1F4FA5010E94CD0F4C
:101E9000C82ECA183D2CE89437F867CF608171814D
:101EA00090E080E00E5F1F4FF0CF42FC02C08394B1
:101EB00078CF8394839475CF842D867809F471CF7D
:101EC000F6CFB70180E290E00E949D0F83948214C8
:101ED000C0F3512C73CF522C5818821408F46ECFD3
:101EE000F8CF842D867809F47BCF8BE241FE80E227
:101EF00047FC8DE2B70190E071CFB70180E390E03D
:101F00000E949D0F9A946CCF8FEF9FEF99CFFC01A9
:101F10000590615070400110D8F7809590958E0F14
:101F20009F1F0895FC016150704001900110D8F787
:101F3000809590958E0F9F1F08950F931F93CF93B9
:101F4000DF93182F092FEB018B8181FD09C01FEF53
:101F50000FEF812F902FDF91CF911F910F91089557
:101F600082FF14C02E813F818C819D812817390703
:101F70003CF4E881F981CF0101969983888310832D
:101F80008E819F8101969F838E83E3CFE885F985BB
:101F9000812F0995892BA1F3DACFFA01AA272830DE
:101FA00051F1203181F1E8946F936E7F6E5F7F4F26
:101FB0008F4F9F4FAF4FB1E03ED0B4E03CD0670FA2
:101FC000781F891F9A1FA11D680F791F8A1F911DF5
:101FD000A11D6A0F711D811D911DA11D20D009F445
:101FE00068943F912AE0269F11243019305D319387
:101FF000DEF6CF010895462F4770405D4193B3E070
:102000000FD0C9F7F6CF462F4F70405D4A3318F016
:10201000495D31FD4052419302D0A9F7EACFB4E0C7
:10202000A6959795879577956795BA95C9F700977F
:102030006105710508959B01AC010A2E0694579520
:10204000479537952795BA95C9F7620F731F841F77
:10205000951FA01D08952F923F924F925F926F920D
:102060007F928F929F92AF92BF92CF92DF92EF9228
:10207000FF920F931F93CF93DF93CDB7DEB7CA1BA9
:10208000DB0B0FB6F894DEBF0FBECDBF09942A88D4
:10209000398848885F846E847D848C849B84AA847C
:1020A000B984C884DF80EE80FD800C811B81AA8109
:1020B000B981CE0FD11D0FB6F894DEBF0FBECDBFD4
:0820C000ED010895F894FFCF33
:1020C8002C022C02000000004E01B800E5009B0124
:1020D8001601F400080100000000EA02BD0219031D
:1020E8009302B602A302940241004D0025732025F5
:1020F8006420256420256420256420256420256427
:0A210800202564202564000D0A0064
:107800000C94343C0C94513C0C94513C0C94513CE1
:107810000C94513C0C94513C0C94513C0C94513CB4
:107820000C94513C0C94513C0C94513C0C94513CA4
:107830000C94513C0C94513C0C94513C0C94513C94
:107840000C94513C0C94513C0C94513C0C94513C84
:107850000C94513C0C94513C0C94513C0C94513C74
:107860000C94513C0C94513C11241FBECFEFD8E036
:10787000DEBFCDBF11E0A0E0B1E0ECE9FFE702C060
:1078800005900D92A230B107D9F712E0A2E0B1E065
:1078900001C01D92AD30B107E1F70E942D3D0C945F
:1078A000CC3F0C94003C982F959595959595959582
:1078B000905D8F708A307CF0282F295A8091C0000B
:1078C00085FFFCCF9093C6008091C00085FFFCCF60
:1078D0002093C6000895282F205DF0CF982F809127
:1078E000C00085FFFCCF9093C6000895EF92FF92F1
:1078F0000F931F93EE24FF2487018091C00087FD22
:1079000017C00894E11CF11C011D111D81E4E8164B
:1079100082E4F8068FE0080780E0180770F3E09132
:107920000401F091050109958091C00087FFE9CF1E
:107930008091C6001F910F91FF90EF9008950E94D3
:10794000763C982F8091C00085FFFCCF9093C600B5
:1079500091362CF490330CF09053892F089597555D
:10796000892F08951F930E949F3C182F0E949F3CCF
:107970001295107F810F1F9108951F93182F882350
:1079800021F00E94763C1150E1F71F9108951F935A
:10799000182F0E94763C803249F0809103018F5F5E
:1079A000809303018530C1F01F9108958091C0003C
:1079B00085FFFCCF84E18093C6008091C00085FFE5
:1079C000FCCF1093C6008091C00085FFFCCF80E102
:1079D0008093C6001F910895E0910401F091050184
:1079E00009951F9108950E94763C803241F0809164
:1079F00003018F5F80930301853081F008958091AA
:107A0000C00085FFFCCF84E18093C6008091C00058
:107A100085FFFCCF80E18093C6000895E0910401CA
:107A2000F09105010995089540E951E08823A1F0FE
:107A30002D9A28EE33E0FA013197F1F721503040CA
:107A4000D1F72D9828EE33E0FA013197F1F7215064
:107A50003040D1F7815061F708953F924F925F9285
:107A60006F927F928F929F92AF92BF92CF92DF924E
:107A7000EF92FF920F931F93CF93DF93000080E16B
:107A80008093C4001092C50088E18093C10086E015
:107A90008093C2005098589A259A81E00E94143D24
:107AA00024E1F22E9EE1E92E85E9D82E0FE0C02ECA
:107AB00010E1B12EAA24A394B1E49B2EA6E58A2E50
:107AC000F2E57F2EE0E26E2E79E4572E63E5462E36
:107AD00050E5352E0E94763C8033B1F18133B9F107
:107AE000803409F46FC0813409F476C0823409F41B
:107AF00085C0853409F488C0803531F1823521F1A3
:107B0000813511F1853509F485C0863509F48DC0BC
:107B1000843609F496C0843709F403C1853709F423
:107B200072C1863709F466C0809103018F5F80932C
:107B30000301853079F6E0910401F0910501099582
:107B40000E94763C803351F60E94F33CC3CF0E94E2
:107B5000763C803249F78091C00085FFFCCFF092DF
:107B6000C6008091C00085FFFCCF9092C600809136
:107B7000C00085FFFCCF8092C6008091C00085FFC9
:107B8000FCCF7092C6008091C00085FFFCCF609250
:107B9000C6008091C00085FFFCCF5092C600809146
:107BA000C00085FFFCCF4092C6008091C00085FFD9
:107BB000FCCF3092C6008091C00085FFFCCFB09210
:107BC000C60088CF0E94763C863808F4BDCF0E945C
:107BD000763C0E94F33C7ECF0E94763C803809F4CC
:107BE0009CC0813809F40BC1823809F43CC1883942
:107BF00009F48FC080E00E94C73C6CCF84E10E94F2
:107C0000BD3C0E94F33C66CF85E00E94BD3C0E94D3
:107C1000F33C60CF0E94763C809306010E94763C44
:107C2000809307010E94F33C55CF0E94763C80333D
:107C300009F41DC183E00E94BD3C80E00E94C73C66
:107C400049CF0E94763C809309020E94763C809343
:107C5000080280910C028E7F80930C020E94763C79
:107C6000853409F415C18091080290910902892B8D
:107C700089F000E010E00E94763CF801E85FFE4FDA
:107C800080830F5F1F4F80910802909109020817AF
:107C9000190788F30E94763C803209F045CF809125
:107CA0000C0280FF01C16091060170910701660F0F
:107CB000771F7093070160930601A0910802B091AD
:107CC00009021097C9F0E8E0F1E09B01AD014E0F09
:107CD0005F1FF999FECF32BD21BD819180BDFA9A17
:107CE000F99A2F5F3F4FE417F50799F76A0F7B1F4B
:107CF00070930701609306018091C00085FFFCCF5F
:107D0000F092C6008091C00085FFFCCFB092C60003
:107D1000E1CE83E00E94C73CDDCE82E00E94C73CFA
:107D2000D9CE0E94763C809309020E94763C8093D3
:107D300008028091060190910701880F991F909386
:107D40000701809306010E94763C853409F4A6C0A1
:107D500080910C028E7F80930C020E94763C8032D0
:107D600009F0B8CE8091C00085FFFCCFF092C6002C
:107D7000609108027091090261157105B9F140E046
:107D800050E080910C02A82FA170B82FB27011C0E2
:107D9000BB2309F45CC0E0910601F0910701319624
:107DA000F0930701E09306014F5F5F4F46175707B7
:107DB000E8F4AA2369F3F999FECF209106013091E6
:107DC000070132BD21BDF89A90B58091C00085FFB2
:107DD000FCCF9093C6002F5F3F4F30930701209355
:107DE00006014F5F5F4F4617570718F38091C00099
:107DF00085FDE5CE8091C00085FFF8CFE0CE81E023
:107E00000E94C73C67CE0E94763C803209F08CCE3F
:107E10008091C00085FFFCCFF092C6008091C00029
:107E200085FFFCCFE092C6008091C00085FFFCCFAB
:107E3000D092C6008091C00085FFFCCFC092C600E2
:107E40008091C00085FFFCCFB092C60043CEE09188
:107E50000601F091070194918091C00085FFFCCF4D
:107E60009093C6009CCF80E10E94C73C33CE0E9415
:107E7000763C0E94763C182F0E94763C112309F430
:107E800083C0113009F484C08FE00E94C73C22CE29
:107E900080910C02816080930C02E5CE80910C02EF
:107EA000816080930C0259CF809107018823880F4D
:107EB000880B8A2180930B02809106019091070123
:107EC000880F991F90930701809306018091080203
:107ED00080FF09C080910802909109020196909359
:107EE000090280930802F894F999FECF1127E091D6
:107EF0000601F0910701C8E0D1E08091080290915D
:107F00000902103091F40091570001700130D9F34B
:107F100003E000935700E89500915700017001308D
:107F2000D9F301E100935700E89509901990009169
:107F3000570001700130D9F301E000935700E89534
:107F40001395103498F011270091570001700130FB
:107F5000D9F305E000935700E895009157000170B0
:107F60000130D9F301E100935700E895329602976A
:107F700009F0C7CF103011F00296E5CF112480919F
:107F8000C00085FFB9CEBCCE8EE10E94C73CA2CD19
:0C7F900085E90E94C73C9ECDF894FFCF0D
:027F9C00800063
:040000030000780081
:00000001FF
