:100000000C94E0000C9408010C9408010C94080175
:100010000C9408010C9408010C9408010C9408013C
:100020000C9408010C9408010C9408010C9408012C
:100030000C9408010C9408010C9408010C9408011C
:100040000C9464070C9408010C9432070C940C0770
:100050000C9408010C9408010C9408010C940801FC
:100060000C94AE070C94080100407A10F35A00A0DB
:10007000724E18090010A5D4E80000E87648170071
:1000800000E40B54020000CA9A3B000000E1F505B1
:10009000000080969800000040420F000000A086FB
:1000A00001000000102700000000E803000000002D
:1000B0006400000000000A000000000001000000D1
:1000C00000002C76D888DC674F0823DFC1DFAE59EB
:1000D000E1B1B796E5E3E453C63AE651997696E87E
:1000E000E6C28426EB898C9B62ED407C6FFCEFBC02
:1000F0009C9F40F2BAA56FA5F490055A2AF75C932D
:100100006B6CF9676DC11BFCE0E40D47FEF520E662
:10011000B500D0ED902E0300943577050080841E45
:10012000080000204E0A000000C80C333333330FA0
:10013000986E12831141EF8D2114893BE65516CF3D
:10014000FEE6DB18D1844B381BF77C1D901DA4BB49
:10015000E424203284725E228100C9F124ECA1E5FE
:100160003D276364696E6F70737578585B0000009B
:100170000000240027002A000000000025002800BD
:100180002B00040404040404040402020202020218
:10019000030303030303010204081020408001024B
:1001A00004081020010204081020000000080002CA
:1001B0000100000304070000000000000000CD085B
:1001C00011241FBECFEFD8E0DEBFCDBF11E0A0E00D
:1001D000B1E0EAE8F7E202C005900D92A035B10760
:1001E000D9F722E0A0E5B1E001C01D92A73BB2071C
:1001F000E1F710E0C0EED0E004C02197FE010E94BC
:10020000BA0ECF3DD107C9F70E9406090C94C3135B
:100210000C9400000895CF93DF93AC01E091FC01B2
:10022000F091FD013097F1F09091FB018091FA017E
:100230009817C0F090E0292F30E02617370754F4C4
:10024000D901A55ABE4F240F351FE90128812C93EF
:100250009F5FF1CF1092FB016093FA01CB01DF9118
:10026000CF910994DF91CF910895AF92BF92CF9231
:10027000DF92EF92FF920F931F93CF93DF936C0166
:100280007B018B01040F151FEB015E01AE18BF0847
:10029000C017D10759F06991D601ED91FC910190F9
:1002A000F081E02DC6010995892B79F7C501DF9111
:1002B000CF911F910F91FF90EF90DF90CF90BF9063
:1002C000AF900895FC01538D448D252F30E0842F8D
:1002D00090E0821B930B541710F0CF96089501976E
:1002E0000895FC01918D828D981761F0A28DAE0F5B
:1002F000BF2FB11D5D968C91928D9F5F9F73928FE2
:1003000090E008958FEF9FEF0895FC01918D828D0D
:10031000981731F0828DE80FF11D858D90E00895DA
:100320008FEF9FEF0895FC01918D228D892F90E032
:10033000805C9F4F821B91098F73992708958AE0F3
:1003400092E00E94930121E0892B09F420E0822FA2
:100350000895FC01A48DA80FB92FB11DA35ABF4F5A
:100360002C91848D90E001968F739927848FA689B4
:10037000B7892C93A089B1898C91837080648C9308
:10038000938D848D981306C00288F389E02D8081B7
:100390008F7D80830895EF92FF920F931F93CF93E9
:1003A000DF93EC0181E0888F9B8D8C8D98131AC0B0
:1003B000E889F989808185FF15C09FB7F894EE8997
:1003C000FF896083E889F9898081837080648083F4
:1003D0009FBF81E090E0DF91CF911F910F91FF903F
:1003E000EF900895F62E0B8D10E00F5F1F4F0F73E7
:1003F0001127E02E8C8D8E110CC00FB607FCFACFA2
:10040000E889F989808185FFF5CFCE010E94A90195
:10041000F1CFEB8DEC0FFD2FF11DE35AFF4FF08272
:100420009FB7F8940B8FEA89FB8980818062CFCFD8
:10043000CF93DF93EC01888D8823B9F0AA89BB891B
:10044000E889F9898C9185FD03C0808186FD0DC006
:100450000FB607FCF7CF8C9185FFF2CF808185FF27
:10046000EDCFCE010E94A901E9CFDF91CF91089590
:1004700090E0FC01E655FE4F2491FC01EA56FE4F48
:100480003491FC01EE57FE4FE491EE23C9F0222394
:1004900039F0233001F1A8F4213019F1223029F18B
:1004A000F0E0EE0FFF1FE858FE4FA591B4918FB713
:1004B000F894EC91611126C030953E233C938FBF98
:1004C00008952730A9F02830C9F0243049F78091E9
:1004D00080008F7D03C0809180008F7780938000A3
:1004E000DFCF84B58F7784BDDBCF84B58F7DFBCF25
:1004F0008091B0008F778093B000D2CF8091B00010
:100500008F7DF9CF3E2BDACFCF93DF9390E0FC01C4
:10051000EA56FE4F24918E579E4FFC01849188230A
:10052000D1F090E0880F991FFC01E259FE4FA59190
:10053000B491FC01E858FE4FC591D49161110EC0F1
:100540009FB7F8948C91E22FE0958E238C932881AD
:10055000E223E8839FBFDF91CF9108958FB7F8948E
:10056000EC91E22BEC938FBFF6CF8E3008F08E50DB
:10057000806480937C0080917A00806480937A000C
:1005800080917A0086FDFCCF80917800909179006F
:1005900008952FB7F8946091F0017091F101809166
:1005A000F2019091F3012FBF08952091A101260F30
:1005B0003327331F21323105ECF42091C501FC01B2
:1005C00090E080E0243069F082E00895A091A101DC
:1005D0002191AC014F575E4FA40FB52FB11D2C9345
:1005E0000196861798F38091A101680F6093A1018D
:1005F00080E0089581E008951092C50181E0809324
:10060000C7011092C60161E082E10E94380261E0F8
:1006100083E10E943802E9EBF0E080818E7F8083E5
:1006200080818D7F808388E48093B80085E4809307
:10063000BC0008950895E091FB018091FA01E8174C
:1006400030F4F0E0E55AFE4F808190E008958FEF9E
:100650009FEF08959091FB018091FA012FEF3FEFFA
:10066000981748F4E92FF0E0E55AFE4F208130E07A
:100670009F5F9093FB01C90108958091FA019091C9
:10068000FB01891B990B0895CF93DF93CB01EA01FE
:10069000642F0E94D502CE01DF91CF910895CF93B0
:1006A000DF931F92CDB7DEB7698361E0CE0101967B
:1006B0000E94D50281E090E00F90DF91CF910895E4
:1006C00090E080E008958F929F92AF92BF920F9337
:1006D0001F93CF93DF93CDB7DEB7A1970FB6F894F2
:1006E000DEBF0FBECDBF19A2423008F44AE08E0132
:1006F0000F5D1F4F842E912CB12CA12CA5019401CC
:100700000E94890EE62FB901CA01EA3044F5E05D86
:10071000D801EE938D01232B242B252B79F790E024
:1007200080E0109769F0FD0101900020E9F7319712
:10073000AF014A1B5B0BBD018AE092E00E943501CC
:10074000A1960FB6F894DEBF0FBECDBFDF91CF915B
:100750001F910F91BF90AF909F908F900895E95C8B
:10076000D7CF42E050E061E471E08AE092E00C947F
:100770003501CF93DF93FC01448155816081718104
:100780008AE092E00E943501EC010E94B1038C0FD7
:100790009D1FDF91CF910895EF92FF920F931F93CA
:1007A000CF93DF93CDB7DEB72A970FB6F894DEBFAD
:1007B0000FBECDBF8E010F5F1F4F78019091FA01E0
:1007C0008091FB01981749F087EA92E00E942A0382
:1007D000F80181938F011082F1CFC7010E94820B33
:1007E00090935A01809359010E94C9022091FE0101
:1007F0003091FF01621B730B709358016093570196
:100800000E94C9027093FF016093FE0181E0809312
:1008100056012A960FB6F894DEBF0FBECDBFDF910A
:10082000CF911F910F91FF90EF9008950F931F9319
:10083000CF93DF93EC0188819981009759F02A8149
:100840003B812617370730F081E0DF91CF911F9170
:100850000F9108958B016F5F7F4F0E94E50F009706
:1008600059F0998388831B830A832C813D81232B34
:1008700059F7FC011082E8CF80E0E7CFCF93DF93F8
:10088000EC0188819981009711F00E945C0F198218
:1008900018821D821C821B821A82DF91CF910895DB
:1008A0000F931F93CF93DF93EC010C811D810F5F9A
:1008B0001F4FB8010E941604882391F028813981C6
:1008C0008C819D816CE371E0820F931F0E94B410B4
:1008D0001D830C83CE01DF91CF911F910F9108955D
:1008E000CE010E943E04F6CFEF92FF920F931F932A
:1008F000CF93DF93EC01198218821B821A821D822A
:100900001C828617970719F1FB01008111810115DF
:100910001105E9F0E480F580B7010E941604811109
:1009200009C0CE01DF91CF911F910F91FF90EF9001
:100930000C943E04FD82EC82B80188819981DF919C
:10094000CF911F910F91FF90EF900C94B410DF9115
:10095000CF911F910F91FF90EF900895EF92FF922A
:100960000F931F93CF93DF938C017B01EB010990D1
:100970000020E9F72197C61BD70BBE010E94160481
:10098000811109C0C801DF91CF911F910F91FF9094
:10099000EF900C943E04F801D583C483B7018081A5
:1009A0009181DF91CF911F910F91FF90EF900C9467
:1009B000B4100F931F93CF93DF93CDB7DEB761973A
:1009C0000FB6F894DEBF0FBECDBF8C01CB01F8018E
:1009D0001182108213821282158214824AE0BE01B3
:1009E0006F5F7F4F0E94B30BBE016F5F7F4FC801E7
:1009F0000E94AE0461960FB6F894DEBF0FBECDBF65
:100A0000DF91CF911F910F9108950F931F93CF9373
:100A1000DF93CDB7DEB762970FB6F894DEBF0FBE97
:100A2000CDBF8C01CB01F80111821082138212829A
:100A3000158214824AE0BE016F5F7F4F0E94A00BB7
:100A4000BE016F5F7F4FC8010E94AE0462960FB671
:100A5000F894DEBF0FBECDBFDF91CF911F910F91F4
:100A60000895EF92FF920F931F93CF93DF93CDB72B
:100A7000DEB7A1970FB6F894DEBF0FBECDBF7C01E5
:100A8000CB01BA01F7011182108213821282158202
:100A900014828E010F5F1F4F22E044E00E94C00AC3
:100AA000009789F0BC01C7010E94AE04A1960FB661
:100AB000F894DEBF0FBECDBFDF91CF911F910F9194
:100AC000FF90EF900895C7010E943E04EFCFEF9290
:100AD000FF920F931F93CF93DF93EC01FB01E08014
:100AE000F180E114F10411F1048115810115110562
:100AF000A9F08C819D81080F191FB801CE010E94B9
:100B00001604882399F0288139818C819D81B70151
:100B1000820F931F0E94B4101D830C83CE01DF91BE
:100B2000CF911F910F91FF90EF900895CE010E94F9
:100B30003E04F4CFFC0180819181009711F00C9468
:100B40005C0F0895EF92FF920F931F93CF93DF9363
:100B5000CDB7DEB7C255D1090FB6F894DEBF0FBED0
:100B6000CDBF8E010F5F1F4F78018AE092E00E9497
:100B70009301892B49F08AE092E00E947101F8010B
:100B800081938F011082F1CF6EE371E0C7010E9463
:100B9000AB10892BD1F570E060E0CE01C5960E94C4
:100BA000D9046091000270910102CE0189960E94E1
:100BB000D904BE01675D7F4FCE018F960E947404F9
:100BC000CE018F960E945004BE016B5C7F4F0E9445
:100BD00067050E94B903CE018F960E949A05CE0147
:100BE00089960E949A05CE01C5960E949A05CE5A12
:100BF000DF4F0FB6F894DEBF0FBECDBFDF91CF91B0
:100C00001F910F91FF90EF90089582E091E09F93E4
:100C10008F9386E091E09F938F938AE091E09F937A
:100C20008F9384E591E09F938F9384E491E09F9369
:100C30008F93FF92EF920E94BB104091020150915E
:100C400003016091040170910501CE01835B9F4F08
:100C50000E94310540910601509107016091080101
:100C600070910901CE01895B9F4F0E94310540912F
:100C70000A0150910B0160910C0170910D01CE01A0
:100C80008F5B9F4F0E943105609154017091550117
:100C9000CE01CB960E9405056091590170915A01D1
:100CA000CE01C5960E9405056091570170915801CB
:100CB000CE0189960E94D904BE01675D7F4FCE01A7
:100CC0008F960E947404CE018F960E945004BE013C
:100CD0006B5C7F4F0E9467050E945004BE01655CFB
:100CE0007F4F0E9467050E945004BE016F5B7F4FDB
:100CF0000E9467050E945004BE01695B7F4F0E94FD
:100D000067050E945004BE01635B7F4F0E94670528
:100D10000E94B903CE018F960E949A05CE01899652
:100D20000E949A05CE01C5960E949A05CE01CB96E7
:100D30000E949A05CE018F5B9F4F0E949A05CE01BB
:100D4000895B9F4F0E949A05CE01835B9F4F0E9453
:100D50009A050FB6F894DEBF0FBECDBF48CF0E94F4
:100D60009F0181110C94A2050895CF93DF9385ED27
:100D70008093BC0080917D0190917E01A0917F01C4
:100D8000B09180010796A11DB11D23E0B695A795EE
:100D9000979587952A95D1F72091BC0024FD03C033
:100DA0001092C50136C040917D0150917E01609145
:100DB0007F0170918001452B462B472B69F30097EB
:100DC000A105B10541F025E32A95F1F7000001974F
:100DD000A109B109E1CF80917C0191E090937B0161
:100DE0008823B9F0C091B800D091BA008091BC00BE
:100DF0008A7B8093BC0060E082E10E94380260E060
:100E000083E10E9438020E94FC02D093BA00C09392
:100E1000B800DF91CF9108951F920F920FB60F92F5
:100E200011242F933F934F935F936F937F938F93EF
:100E30009F93AF93BF93EF93FF938AE092E00E945A
:100E4000A901FF91EF91BF91AF919F918F917F91F8
:100E50006F915F914F913F912F910F900FBE0F9027
:100E60001F9018951F920F920FB60F9211242F9377
:100E70008F939F93EF93FF93E0911A02F0911B02DF
:100E80008081E0912002F091210282FD1BC09081BF
:100E9000809123028F5F8F7320912402821741F08B
:100EA000E0912302F0E0E65FFD4F958F80932302EF
:100EB000FF91EF919F918F912F910F900FBE0F9007
:100EC0001F9018958081F4CF1F920F920FB60F924A
:100ED00011242F933F938F939F93AF93BF93809150
:100EE000F0019091F101A091F201B091F3013091E4
:100EF000EF0123E0230F2D3758F50196A11DB11DF9
:100F00002093EF018093F0019093F101A093F201FF
:100F1000B093F3018091EB019091EC01A091ED0170
:100F2000B091EE010196A11DB11D8093EB0190934C
:100F3000EC01A093ED01B093EE01BF91AF919F91B1
:100F40008F913F912F910F900FBE0F901F9018958A
:100F500026E8230F0296A11DB11DD2CF1F920F923A
:100F60000FB60F9211242F933F934F935F936F937C
:100F70007F938F939F93AF93BF93EF93FF93809152
:100F8000B900887F803609F44AC0F0F5883209F448
:100F9000A7C018F5803109F49BC0B8F4882309F480
:100FA000F9C0883009F494C0FF91EF91BF91AF91DF
:100FB0009F918F917F916F915F914F913F912F9171
:100FC0000F900FBE0F901F901895883109F488C0BC
:100FD000803251F78093C40114C0803409F49DC05D
:100FE00040F48033B9F38833F9F68093C40185EC7B
:100FF000B0C0803509F485C0883509F496C08834BE
:1010000099F60E94B506D0CF883909F48CC038F51E
:10101000883729F050F4883611F0803729F683E0BC
:101020008093C5011092C30157C0883809F47BC072
:10103000803919F0803809F0B7CF8091C301803230
:1010400008F071C0E091C30181E08E0F8093C3016D
:101050008091BB00F0E0ED55FE4F80833DC0803BAA
:1010600039F0E0F4803A09F479C0883A09F09CCF6D
:1010700084E08093C5011092A2011092A101E09139
:10108000F601F091F70109958091A10181110FC03E
:1010900081E08093A1011092810109C0803C09F494
:1010A000A6CF883C09F4A3CF883B09F07DCFE0911F
:1010B000A20181E08E0F8093A201F0E0EF57FE4F76
:1010C00080818093BB009091A2018091A10129C0F1
:1010D0008091EA018093BB0085EC8093BC0064CFD3
:1010E0009091E9018091E801981758F5E091E901A4
:1010F00081E08E0F8093E901F0E0E853FE4F80819C
:10110000E9CFE091E90181E08E0F8093E9018091C0
:10111000BB00F0E0E853FE4F80839091E90180919D
:10112000E8019817C8F285E8D8CFE091E90181E09D
:101130008E0F8093E9018091BB00F0E0E853FE4FF1
:1011400080838091C70181115CCF81E08093C601CB
:1011500084EA8093BC001092C50126CF85EC809371
:10116000BC001092C5018091C301803230F4E0913F
:10117000C301F0E0ED55FE4F10826091C30170E0B5
:10118000E091F401F091F50183EA91E00995109264
:10119000C3010ACF1092C40134CFEAE0F2E0138217
:1011A000128288EE93E0A0E0B0E084839583A6836A
:1011B000B7832CE131E03183208325EC30E03587A3
:1011C000248724EC30E03787268720EC30E0318B11
:1011D000208B21EC30E0338B228B22EC30E0358BFE
:1011E000248B26EC30E0378B268B118E128E138EDB
:1011F000148EE7EAF2E01382128284839583A68339
:10120000B7838EE291E0918380830895789484B5CA
:10121000826084BD84B5816084BD85B5826085BDF2
:1012200085B5816085BD80916E00816080936E0080
:101230001092810080918100826080938100809172
:101240008100816080938100809180008160809323
:1012500080008091B10084608093B1008091B000E3
:1012600081608093B00080917A00846080937A00DE
:1012700080917A00826080937A0080917A00816008
:1012800080937A0080917A00806880937A0010922F
:10129000C10060E084E10E94840260E088E00E9476
:1012A000840261E089E00E94840261E08AE00E9499
:1012B0008402E0911A02F0911B0282E08083E091A7
:1012C0001602F09117021082E0911802F0911902B3
:1012D000108210922202E0911E02F0911F0286E01D
:1012E0008083E0911C02F0911D02808180618083E7
:1012F000E0911C02F0911D02808188608083E09162
:101300001C02F0911D02808180688083E0911C02A4
:10131000F0911D0280818F7D808384E10E94B5025F
:1013200001E010E020E030E0853691051CF400E09B
:1013300010E098014AE0C901B8010E9463030E94CD
:10134000B1030E94C9027093FF016093FE011092E5
:10135000FB011092FA011092F9011092F8010E941B
:10136000FC028AE091E09093F7018093F6018BE014
:1013700091E09093F5018093F40182E08093BA00AC
:101380008CEC93E09093FD018093FC0182EA8093C2
:10139000800082E18093810080E29EE49093870048
:1013A00080938600189B09C01092010210920002DF
:1013B0001092890010928800F5CF80E00E94B5025B
:1013C000BC01990F880B990B611571058105910579
:1013D00011F00E94790B83E1882E912CA12CB12C65
:1013E000C6ECD5E005E010E092E0E92EF12C24E017
:1013F000C22ED12C63B161708DE00E9438028091C1
:101400000802909109028230910509F453C0B0F4AA
:10141000892B09F483C08091060290910702909372
:1014200001028093000290938900809388000E94BB
:101430009F018823F9F20E94A205DCCF8430910538
:1014400009F481C0059739F70E94C9024090020251
:1014500050900302609004027090050264197509AF
:1014600086099709693873418105910518F10E9431
:101470002A0BA50194010E94200E675E794F8F4FC1
:101480009F4F80910602909107028617970779F384
:101490007093070260930602F0920902E09208023C
:1014A0000E94C902609302027093030280930402B7
:1014B00090930502189908C0109209021092080230
:1014C00010920702109206020E94C9024090020286
:1014D000509003026090040270900502641975092F
:1014E00086099709603777418105910508F493CF04
:1014F0000E942A0BA50194010E94200E675E794F7D
:101500008F4F9F4F80910602909107028617970791
:1015100079F370930702609306020AC0189B7BCF91
:101520001092070210920602D0920902C09208029D
:101530000E94C90260930202709303028093040226
:101540009093050268CF0E94C90240900202509019
:1015500003026090040270900502641975098609FF
:101560009709693B7B408105910508F454CFD093DE
:101570000702C09306021093090200930802D8CF15
:10158000EF920F931F93CF93DF93E80134E047FD71
:1015900034E1042E000C550B57FF03C051954195C3
:1015A0005109E32E022F242FAE010E94CD0BCE0154
:1015B000DF91CF911F910F91EF9008958F929F929D
:1015C000AF92BF92CF92DF92EF92FF92CF93DF93D1
:1015D000EC01688179818A819B81611571058105A2
:1015E000910521F464E279ED8BE597E02DE133EF8D
:1015F00041E050E00E94200E49015A019B01AC01DC
:10160000A7EAB1E40E943F0E6B017C01ACEEB4EF9F
:10161000A50194010E944D0EC60ED71EE81EF91EAC
:10162000F7FE06C081E0C81AD108E10880E8F80A90
:10163000C882D982EA82FB82C701B6019F77DF9117
:10164000CF91FF90EF90DF90CF90BF90AF909F90A1
:101650008F9008958F929F92AF92BF92CF92DF9218
:10166000EF92FF9260910E0170910F018091100135
:1016700090911101611571058105910521F464E2D4
:1016800079ED8BE597E02DE133EF41E050E00E94EA
:10169000200E49015A019B01AC01A7EAB1E40E9466
:1016A0003F0E6B017C01ACEEB4EFA50194010E94EA
:1016B0004D0EC60ED71EE81EF91EF7FE06C081E0CD
:1016C000C81AD108E10880E8F80AC0920E01D09249
:1016D0000F01E0921001F0921101C701B6019F774E
:1016E000FF90EF90DF90CF90BF90AF909F908F9042
:1016F000089560930E0170930F01809310019093F1
:1017000011010895FC0188279927E894219120323E
:10171000E9F3293010F02E30C8F32B3241F02D328E
:1017200039F4689404C00E94AB0B820F911D219183
:1017300020532A30C0F31EF4909581959F4F089551
:10174000BB274A3031F4992322F4BDE2909581956C
:101750009F4F0C94B40B7AE0979F902D879F802D1C
:10176000910D11240895BB27FB015527AA27880F47
:10177000991FAA1FA41710F0A41B83955051B9F705
:10178000A05DAA3308F0A95DA193009779F7B11184
:10179000B1931192CB010C940D0EA9E0B0E0E3EDF2
:1017A000FBE00C94580E6A01F22EB02E102FFBE3D2
:1017B000AF2EA01608F41BE31F5F012F27E0AE0138
:1017C0004F5F5F4F0E942C0DBC018981982F99704B
:1017D000913009F43FC09BE2E1FC04C09E2D917062
:1017E000E0FC3AC05E2D5071E82FE87083FF46C0E0
:1017F00084E0911101C083E0EF2DE81B8F1508F004
:10180000E0E0D6018E2F20E2552351F1992329F0F3
:10181000D6019C93C60101966C0196012D5F3F4F46
:10182000E2FE24C08EE4D6018C9391E411969C9341
:10183000119712968C93D9018E2F90E281111BC0C3
:10184000E20FF32FF11D10828EEF9FEF2996ECE04F
:101850000C94740E9DE2C6CF90E2C4CF2D938150BC
:101860008111FCCFCE0ED11CE0E0D0CF8EE6D601A8
:101870008C9391E6DBCF9D938150E0CF482F44704D
:1018800082FF3DC084E0911101C083E08F1510F408
:10189000EF2DE81BD6018E2F20E2552309F1992365
:1018A00029F0D6019C93C60101966C0196012D5F2B
:1018B0003F4FE2FE1BC089E4D6018C938EE4119663
:1018C0008C93119786E412968C93D9018E2F90E217
:1018D000882309F4B5CF9D938150FACF2D93815081
:1018E0008111FCCFCE0ED11CE0E0D9CF89E6D60124
:1018F0008C938EE611968C93119786E6E4CF9B012C
:1019000077FF02C030E020E0A1E0B0E0911102C01A
:10191000B0E0A0E0F9013196AE0FBF1F8B2C912CE7
:10192000BB2009F461C05401EFEFAE1ABE0AAA0D44
:10193000BB1DFA161B0619F014F04F2D4A1B51114E
:1019400088C0E3FC59C07601A42FB0E2A1114FC0BA
:10195000C40ED11C992309F45BC040E0D601119656
:10196000F60190836D01552309F448C0012F060F3D
:101970009A81582F507184FF03C0913309F40150AC
:1019800010160CF047C0093008F008E0EEE2FE2E19
:101990005B01A01AB10885019194819491082F3FB1
:1019A000320729F4D601FC92F60131966F016217D5
:1019B000730794F1021713077CF5DB01A21BB30B2D
:1019C000AA24A394B12CAC0EBD1EAA0DBB1D11966A
:1019D0008C9121503109D601119628153905F4F062
:1019E000F60180836D01DBCFB12CA12CA0CFF701D4
:1019F000B1937F01A150AACF9111B0CFD601942FFE
:101A000050E302C05D9391509111FCCFC40ED11CE4
:101A100040E0ACCF01E0BACF80E3DBCF62177307C1
:101A200031F4963388F4953311F4552369F0F601B7
:101A30008083FD01842F90E2811108C0A40FB11DA5
:101A40001C9290E080E002CF81E3F1CF919381502E
:101A5000F3CF911183CF8ACF283008F027E03327C6
:101A6000DA01990F311D87FD9160009661057105BE
:101A700039F432602E5F3D9330E32A95E1F7089503
:101A80009F3F30F080387105610509F03C5F3C5F95
:101A90003D93913008F08068911DDF93CF931F93A1
:101AA0000F93FF92EF92192F987F9695E92F9695B5
:101AB0009695E90FFF27EE53FF4F99273327EE2422
:101AC000FF24A701E70105900894079428F4360F36
:101AD000E71EF81E491F511D660F771F881F991FAB
:101AE0000694A1F70590079428F4E70EF81E491F05
:101AF000561FC11D770F881F991F661F0694A1F7F7
:101B00000590079428F4F80E491F561FC71FD11DD2
:101B1000880F991F661F771F0694A1F705900794F9
:101B200020F4490F561FC71FD81F990F661F771F34
:101B3000881F0694A9F784911095177041F0D695E7
:101B4000C79557954795F794E7941A95C1F7E8E636
:101B5000F0E06894159015913591659195910590F7
:101B60007FE27395E118F10A430B560BC90BD009BC
:101B7000C0F7E10CF11E431F561FC91FD01D7EF494
:101B8000703311F48A95E6CFE894015030F0080FD5
:101B90000AF40027021708F4202F2395022F7A3326
:101BA00028F079E37D932A95E9F710C07D932A9573
:101BB00089F6069497956795379517951794E118C8
:101BC000F10A430B560BC90BD00998F023957E916F
:101BD00073957A3308F070E37C932013B8F77E9105
:101BE00070617D9330F0839571E37D9370E32A9566
:101BF000E1F71124EF90FF900F911F91CF91DF91AA
:101C0000992787FD9095089591110C941D0E8032AF
:101C100019F089508550C8F70895DC01FC01672F41
:101C200071917723E1F7329704C07C916D937083B3
:101C30006291AE17BF07C8F30895992788270895C2
:101C4000052E97FB1EF400940E94370E57FD07D017
:101C50000E94890E07FC03D04EF40C94370E509569
:101C60004095309521953F4F4F4F5F4F0895909588
:101C70008095709561957F4F8F4F9F4F08950E947B
:101C8000AB0EA59F900DB49F900DA49F800D911D4C
:101C900011240895B7FF0C943F0E0E943F0E821B43
:101CA000930B08952F923F924F925F926F927F9283
:101CB0008F929F92AF92BF92CF92DF92EF92FF925C
:101CC0000F931F93CF93DF93CDB7DEB7CA1BDB0B08
:101CD0000FB6F894DEBF0FBECDBF09942A883988AD
:101CE00048885F846E847D848C849B84AA84B984B4
:101CF000C884DF80EE80FD800C811B81AA81B981C0
:101D0000CE0FD11D0FB6F894DEBF0FBECDBFED01D3
:101D10000895A1E21A2EAA1BBB1BFD010DC0AA1F2C
:101D2000BB1FEE1FFF1FA217B307E407F50720F044
:101D3000A21BB30BE40BF50B661F771F881F991FBF
:101D40001A9469F760957095809590959B01AC0108
:101D5000BD01CF010895A29FB001B39FC001A39F11
:101D6000700D811D1124911DB29F700D811D1124D4
:101D7000911D0895EE0FFF1F0590F491E02D099439
:101D80000F931F93CF93DF938230910510F482E07D
:101D900090E0E091B502F091B60230E020E0B0E0D2
:101DA000A0E0309799F42115310509F44AC0281BA9
:101DB000390B24303105D8F58A819B816115710575
:101DC00089F1FB0193838283FE0111C0408151811F
:101DD0000281138148175907E0F04817590799F411
:101DE000109761F012960C93129713961C933296EB
:101DF000CF01DF91CF911F910F9108950093B5020C
:101E00001093B602F4CF2115310551F04217530754
:101E100038F0A901DB019A01BD01DF01F801C1CF52
:101E2000EF01F9CF9093B6028093B502CDCFFE01BA
:101E3000E20FF31F81939193225031093983288354
:101E4000D7CF2091B3023091B402232B41F42091DB
:101E50001401309115013093B4022093B302209104
:101E60001201309113012115310541F42DB73EB710
:101E70004091160150911701241B350BE091B302DC
:101E8000F091B402E217F307A0F42E1B3F0B2817C2
:101E9000390778F0AC014E5F5F4F2417350748F0E3
:101EA0004E0F5F1F5093B4024093B30281939193FE
:101EB0009FCFF0E0E0E09CCFCF93DF930097E9F075
:101EC000FC01329713821282A091B502B091B60242
:101ED000ED0130E020E01097A1F420813181820FE4
:101EE000931F2091B3023091B4022817390709F0EB
:101EF00061C0F093B402E093B302DF91CF910895F3
:101F0000EA01CE17DF07E8F54A815B819E014115A2
:101F10005105B1F7E901FB83EA8349915991C40F57
:101F2000D51FEC17FD0761F4808191810296840F23
:101F3000951FE90199838883828193819B838A839A
:101F4000F0E0E0E012968D919C9113970097B9F51F
:101F50002D913C911197CD010296820F931F2091F4
:101F6000B3023091B4022817390739F6309751F58A
:101F70001092B6021092B502B093B402A093B302CD
:101F8000BCCFD383C28340815181840F951FC81772
:101F9000D90761F44E5F5F4F88819981480F591FBF
:101FA000518340838A819B819383828321153105EC
:101FB00009F0B0CFF093B602E093B5029ECFFD01D9
:101FC000DC01C0CF13821282D7CFB0E0A0E0EBEEED
:101FD000FFE00C94540E8C01009751F4CB010E9449
:101FE000C00E8C01C801CDB7DEB7E0E10C94700ED5
:101FF000FC01E60FF71F9C0122503109E217F3079D
:1020000008F49DC0D901CD91DC911197C617D7076F
:1020100098F0C530D10530F3CE01049786179707A5
:1020200008F3C61BD70B2297C193D1936D937C9372
:10203000CF010E945C0FD6CF5B01AC1ABD0A4C01E8
:102040008C0E9D1EA091B502B091B602512C412C70
:10205000F12CE12C109731F58091B3029091B402EC
:102060008815990509F05CC04616570608F058C057
:102070008091120190911301009741F48DB79EB7A2
:102080004091160150911701841B950BE817F90731
:1020900008F055C0F093B402E093B302F9017183E4
:1020A0006083A0CF8D919C91119712966C9012979E
:1020B00013967C901397A815B90559F56C0142E069
:1020C000C40ED11CCA14DB0420F1AC014A195B090F
:1020D000DA011296159780F06282738251834083F1
:1020E000D9016D937C93E114F10471F0D70113963B
:1020F000FC93EE93129776CF22968C0F9D1FF901D9
:1021000091838083F301EFCFF093B602E093B502A1
:1021100069CF4816590608F42C017D01D3019ACFE6
:10212000CB010E94C00E7C01009749F0AE01B801BE
:102130000E94A210C8010E945C0F870153CF10E0DB
:1021400000E050CFFB01DC0102C001900D92415034
:102150005040D8F70895FB01DC018D910190801962
:102160000110D9F3990B0895FB01DC0101900D9248
:102170000020E1F70895AEE0B0E0E1ECF0E10C946E
:10218000620E85E08C838B899C899A838983AE015A
:10219000495E5F4F6D897E89CE0101960E945F1274
:1021A0002E96E2E00C947E0E20FD09C0FC0123FD7A
:1021B00005C022FF02C07383628351834083089568
:1021C00044FD17C046FD1DC0DB01FC01AA0FBB1F6B
:1021D000EE1FFF1F1094D1F76A0F7B1F8E1F9F1FEA
:1021E000660F771F881F991F620F711D811D911D3A
:1021F000089533E0660F771F881F991F3150D1F77C
:10220000F3CF34E0F7CF0F931F93CF93DF938C017D
:10221000C8010E946F13EC0197FD08C00E94040ED4
:10222000892BB1F7B801CE010E94AB13CE01DF912B
:10223000CF911F910F9108958F929F92AF92BF926D
:10224000EF92FF920F931F93CF93DF938C01D62FC2
:102250007A01B22E0E946F139C0133272B32310575
:1022600029F02D323105A9F46894B7F8D15061F402
:1022700080E0DF91CF911F910F91FF90EF90BF9081
:10228000AF909F908F900895C8010E946F1397FDA3
:10229000EFCFCB2DCD7F2B2D2073F9F48033E9F4D4
:1022A000AA24AA94AD0E89F0C8010E946F1397FD6D
:1022B0000CC0282F2F7D283561F4C264D25029F03C
:1022C000C8010E946F1397FF08C0812C912C540104
:1022D0001BC0B6FE2BC0C260DA2D812C912C54019C
:1022E00020ED280F283028F1C4FD09C02A3008F15C
:1022F000C6FF05C02F7D3FEE320F3630C8F0B80163
:102300000E94AB13C1FFB4CFC7FF08C0B094A09424
:1023100090948094811C911CA11CB11C2C2FB501A0
:10232000A401C7010E94D41081E0A3CFC261D4CF21
:1023300027504C2FC501B4010E94E0104B015C01F5
:10234000C260D15009F3C8010E946F1397FFC8CF34
:10235000D9CFA0E2B0E0EFEAF1E10C94570E5C01B6
:10236000962E7A01CE0101966C0180E2F60111925F
:102370008A95E9F7F501B381890130E020E0712CFD
:10238000812CA0E041E050E0F801B3FD8591B3FF5E
:102390008191982F8F01811107C010E000E0C801E2
:1023A000A096EDE00C94730E8E3519F421153105CD
:1023B00041F1A21713064CF48D3549F18D3229F401
:1023C000811006C0882483941DC0882009F464C04D
:1023D000E92FE695E695E695EC0DFD2DF11D892F8B
:1023E0008770BA0101C0660F8A95EAF78081682B71
:1023F0006083791651F0971510F49F5FE9CF9150E3
:10240000E7CFA1E02F5F3F4FBFCF812CFBCF8820CC
:1024100019F08E8180628E83AA2359F0F6019E0105
:102420002F5D3F4F8081809580833196E217F307BF
:10243000C9F788248394C5010E946F1397FD16C0C5
:10244000E82FE695E695E695EC0DFD2DF11D208132
:1024500030E0AC014770552702C0359527954A9565
:10246000E2F720FD06C0B5010E94AB13882069F099
:1024700094CFE114F10429F0F7018083C70101969C
:102480007C019A94812C9110D6CFE114F10409F4C7
:1024900086CFF701108283CFE82FE695E695E69583
:1024A000EC0DFD2DF11D982F9770BA0101C0660F3C
:1024B0009A95EAF79081692B6083782EA3CFB0E0DC
:1024C000A0E0E5E6F2E10C94550E6C01EB015A0137
:1024D000FC0117821682512CF601E380FE01E3FC19
:1024E0008591E3FE8191182FEF018823E9F090E0B8
:1024F0000E94040E892B21F0C6010E940311ECCF2B
:10250000153241F4FE01E3FC1591E3FE1191EF0158
:10251000153269F4C6010E946F1397FD8EC018171B
:10252000D9F2B6010E94AB13852D90E08AC000E07D
:102530001A3231F4E3FC1591E3FE1191EF0101E051
:10254000F12C20ED210F2A3048F101FF37C0FF2088
:1025500059F31836B1F11C3609F43DC0112321F3AB
:10256000612F70E082E691E00E946413892BE1F212
:10257000912C812C00FD06C0F50180809180C50161
:1025800002965C011E3679F5F6014681578170E0AE
:1025900060E0202FC4010E94D4109ECF02606F2DF6
:1025A00070E090E080E040E20E94E010F62EFE0134
:1025B000E3FC1591E3FE1191EF01C3CFFF24FA94E0
:1025C000C8CFFE01E3FC1591E3FE1191EF0118362F
:1025D00009F0C4CF08600460FE01E3FC1591E3FE3E
:1025E0001191EF01BBCF1336C1F401FD02C0FF24EE
:1025F000F394C6010E946F1397FD1FC081149104CC
:1026000029F0F4018083C40101964C01FA94F11081
:10261000F0CF00FD61CF53945FCF1B35B9F49E011D
:10262000A4016F2DC6010E94A911EC01892B89F725
:10263000F6018381807309F477CF8FEF9FEF5110FC
:1026400073CFCDB7DEB7EFE00C94710EC6010E94D8
:10265000031197FDF2CF1F36A9F130F4143641F083
:10266000193639F0006405C01337B9F01537D1F7C2
:102670000062202FA4016F2DC6010E941C11811140
:10268000C8CFD6CF8114910429F0F4016082C4012F
:1026900001964C01FA94FF2071F0C6010E946F135D
:1026A0003C0197FD08C00E94040E892B59F3B60126
:1026B000C3010E94AB138114910409F4AACFF40161
:1026C0001082A7CF0061D5CFFC010590061621F03E
:1026D0000020D9F7C00108953197CF010895CF9315
:1026E000DF93EC012B8120FF1AC026FF0CC02F7B4B
:1026F0002B838E819F8101969F838E838A8190E0B8
:10270000DF91CF91089522FF18C0E881F98180817F
:10271000082E000C990B009729F420622B838FEF71
:102720009FEFEECF3196F983E8832E813F812F5FB3
:102730003F4F3F832E839927E3CFEA85FB85099599
:1027400097FFF3CF2B81019621F080E2822B8B83C0
:10275000E6CF80E1FBCFFB01238120FF11C026FDE6
:102760000FC08F3F980771F082832F7D20642383F1
:10277000268137812150310937832683992708958F
:0A2780008FEF9FEF0895F894FFCF4C
:10278A005A000000C842AE47613E8FC2F53D0100C3
:10279A0000000000B702800000000000CB013501F4
:1027AA0062011802930171018501000000004F03C4
:1027BA00440360031A033D032A031B032000474511
:1027CA00540D0A0025662025662025662025660008
:00000001FF
